:020000040003F7
:10C0000028380020D1C20300E3C20300E5C20300C8
:10C010000000000000000000000000000000000020
:10C02000000000000000000000000000E7C2030064
:10C030000000000000000000E9C20300EBC20300A2
:10C04000EDC20300EDC20300F5EC0300EDC20300F6
:10C05000EDC2030000000000F1D80300EDC20300B0
:10C06000EDC20300EDC20300EDC20300EDC2030008
:10C07000EDC20300EDC20300EDC20300EDC20300F8
:10C08000EDC20300F7D10300EDC20300EDC20300CF
:10C090000DD20300EDC2030039DC0300EDC2030042
:10C0A000EDC20300EDC2030000000000000000002C
:10C0B0000000000000000000000000000000000080
:10C0C00000F002F800F040F80CA030C8083824183E
:10C0D0002D18A246671EAB4654465D46AC4201D1C0
:10C0E00000F032F87E460F3E0FCCB64601263342B2
:10C0F00000D0FB1AA246AB46334318476431000018
:10C1000084310000103A02D378C878C1FAD85207B7
:10C1100001D330C830C101D504680C6070470000FD
:10C120000023002400250026103A01D378C1FBD853
:10C13000520700D330C100D50B6070471FB5C04611
:10C14000C0461FBD10B510BD03F01DF81146FFF726
:10C15000F5FF00F029F903F035F803B4FFF7F2FF1B
:10C1600003BC03F039F80000144C144D0646064F8A
:10C17000F0B4034C024D024E014FF0B407480047A3
:10C18000000000000000000000000021000000008E
:10C19000000000000000000000000000F9FFFFFFA9
:10C1A000016881F308884068034AEFF305839A42E7
:10C1B000DAD1024CA646004700000000FFFFFFFF57
:10C1C000401E00BF00BF00BF00BF00BF00BF00BFD8
:10C1D00000BF00BF00BF00BF00BFF1D1704700002B
:10C1E000401E00BF00BF00BF00BF00BF00BF00BFB8
:10C1F00000BF00BF00BF00BF00BFF1D1704700000B
:10C2000070B505460C46164602E00FCC0FC5103E31
:10C21000102EFAD2082E02D303CC03C5083E042EFA
:10C2200007D301CC01C5361F03E021782970641CB7
:10C230006D1C761EF9D270BD10B500F01DF80028F7
:10C2400005D01F491D484860C8131E4988611E4813
:10C25000018CC9B201290ED1818C09070BD1018D46
:10C260000906090F042906D1808D0006000F02D1AE
:10C2700016490120886010BD1348018CC9B20129FC
:10C2800017D1818C090714D1018D09060A0F03D13A
:10C29000828D1206120F0ED0090F012903D1828D53
:10C2A0001206120F07D0032903D1808D0006000F5C
:10C2B00001D000207047012070470000DFFF07C059
:10C2C00000050040006C0040C00F00F00006004078
:10C2D0000A48026803210A43026009488047094866
:10C2E0000047FEE7FEE7FEE7FEE7FEE7FEE70000A9
:10C2F00005480649064A074B7047000024050040E0
:10C3000039C20300C1C00300282C002028380020B7
:10C31000283000202830002001209A49C00388607E
:10C3200000F0ECF80A4601469748FFF7F5FF10B514
:10C3300001F0F8FD10BD10B5944C86B01ECC0394EE
:10C340006C460EC4002806D0684618DF002802D0CC
:10C350008FA2C82124E00F20800313DF002802D021
:10C360008BA2CC211CE08D4B50228D49082001F07E
:10C3700047FC002802D086A2CE2111E000206946A9
:10C380000490087404A860DF002802D080A2D521A0
:10C3900006E0844801F048FC002803D07CA2D821A4
:10C3A000FFF7BAFF06B010BD08B57F4DE869B128A8
:10C3B00025D000247D4903200860091D08607B49C1
:10C3C0000C31086079491C31086079480F214069B7
:10C3D0008903884215D101200007006901218902E3
:10C3E000884211D173480090734B0522032100202D
:10C3F00000F032FF00280CD070A29C2107E001243D
:10C40000D8E763A2EF2101E061A2F0210020FFF74D
:10C4100083FF69490120143901F0C4FA002802D0D1
:10C4200066A29121F3E7614903200004091F002758
:10C43000086000F04FFC00F095FC0126002814D0A5
:10C4400000F0B2FC002802D051A2FB21DFE7204619
:10C450007040FFF770FF00F06EF800F0CEFC00288F
:10C4600009D0FF214AA20231D1E720467040FFF7F0
:10C4700062FF00F060F8434E3069C009C007C00F8A
:10C4800004D000202043504C07D101E00120F9E7FF
:10C49000A06800F06BFB00280ED1EF610120C00204
:10C4A000B06000F028FC002803D0FF2138A215312D
:10C4B000ADE70B2000F02AF8A06800F057FB002839
:10C4C0000ED0082000F022F8092000F01FF80B2001
:10C4D00000F01CF80F2000F019F8A06800F017FC1D
:10C4E000082000F013F8092000F010F80B2000F0ED
:10C4F0000DF80F2000F00AF800F000F8BFF34F8F9E
:10C5000033493248C860BFF34F8FFEE701218140B5
:10C510001C48C16070471CB5019100902D4A08214C
:10C52000684601F0FFF81CBD10B500212A4A0846F4
:10C5300001F0F8F810BD1A4A10B550321421082045
:10C5400001F0DCF8002803D01CA2E021FFF7E4FE94
:10C5500010BD10B50246082905D0FF211FA21B31CE
:10C560000020FFF7D9FE11685068884710BD10B54C
:10C57000002904D025A299210020FFF7CDFE01F06B
:10C5800001FB10BD00050050EFBEADDE00F2030060
:10C590002E2E5C6D61696E2E6300000029C50300BC
:10C5A0007C2300202FC3030000050040200700501B
:10C5B0000010001017C503003C2100202E2E5C6DDA
:10C5C00061696E2E63000000003000000400FA056F
:10C5D00000ED00E053C503006FC503002E2E5C2E56
:10C5E0002E5C2E2E5C2E2E5C2E2E5C496E636C759E
:10C5F00064655C6170705F636F6D6D6F6E5C6170C0
:10C60000705F74696D65722E680000002E2E5C2EBE
:10C610002E5C2E2E5C2E2E5C2E2E5C496E636C756D
:10C6200064655C73645F636F6D6D6F6E5C736F6682
:10C63000746465766963655F68616E646C65722EAB
:10C640006800000070B586B01E461446FE4D6B694A
:10C65000002B20D028464068022902D004291AD194
:10C6600005E0052817D132462146032012E00228B2
:10C6700011D11422F54901A8FFF7C2FD05980090D9
:10C6800001A80FC800F0ACFA032068606B6932465D
:10C69000214602209847200003D0EDA26821FFF731
:10C6A0003BFE06B070BD38B5E74D0120287006206E
:10C6B000009400F095FA38BD10B5E34C20780028BE
:10C6C00001D0082010BD206900F0C8FE002803D06A
:10C6D000DFA28B21FFF720FE0F21002289042069B1
:10C6E00000F054FE040003D0D9A28E21FFF714FEFF
:10C6F000204610BDF0B5DC498BB0DA48086003264F
:10C700003603B0680F218903091ACF4C490847182E
:10C7100000256570214665802031D34801F0CDFDAC
:10C72000002823D121462031B068486020390A46CC
:10C73000126A8A610F229203C861121A52081831D4
:10C740008018486001A800F06AFB0398FE2802D117
:10C750003868401C12D00F20B1688003401A41088D
:10C76000B948183001F0F5FD002802D065600BB023
:10C77000F0BD08AE0ECE052000F032FAB248BB4A3A
:10C780000021103000F0BBFD002803D0B0A2BF2173
:10C79000FFF7C2FD0F2100228904206900F0F6FD99
:10C7A000002803D0AAA2C321FFF7B6FD0120E5604F
:10C7B00060600020DBE7A4494861704770B582687B
:10C7C000A94D09CA503D06CA6B60EA60A96028609D
:10C7D000440703D5840709D1940707D1C40701D0C2
:10C7E0009C0703D1840703D58C0701D0062070BDB8
:10C7F0005B189A18944C03231B03A2609E680F23B6
:10C800009B039B1B5E08964201D2C60707D0800798
:10C8100003D50F208002814201D8934201D20C201F
:10C8200070BD6068012802D00826304670BDFFF751
:10C8300043FF0600FAD12878C0070DD00220A16876
:10C8400060608148203001F084FD0028EDD088A28E
:10C85000D921FFF761FDE8E7032060606369002BE1
:10C86000E3D00022114602209847DEE770B50500AC
:10C8700004D0287A800703D0102070BD0E2070BD30
:10C88000714C6068032805D0042803D0052803D024
:10C89000082070BD052060606868A1688600E068B7
:10C8A0008019884204D90020C043E0600C2070BD8C
:10C8B000FFF702FF0028FAD16B48A96850380078CA
:10C8C000E368C007324602D05F48203001E05E488E
:10C8D000183001F00EFD0028E9D1E1688919E16006
:10C8E000A2689142E3D0092070BD70B5564C6068D3
:10C8F000052805D106206060E168A068814201D06A
:10C90000082520E0FFF7D8FE05001CD156485E4EF2
:10C9100050380078C1075B48806804D10F21890333
:10C92000091A490840180022A16801F007F960803F
:10C9300061783088002904D06188814201D00B20C1
:10C9400070BD07206060284670BD70B53E4D86B052
:10C950006868072802D008242046A2E6286900F06B
:10C960007DFD040003D03AA24849FFF7D5FC4649B3
:10C97000002610390868C207002A01D0012008E00B
:10C98000420703D500F0A1F80446E5E78007E3D5A8
:10C99000032000906A886B469A804A6802928A68EF
:10C9A0000392C968049113460091029A019900F01C
:10C9B00017F93446D0E700B58BB004A800F02FFA81
:10C9C000089800280CD0012000902E488068019023
:10C9D000012000030290089880080390684618DF41
:10C9E0000BB000BD00B58BB004A800F018FA099890
:10C9F0000028F5D0234808998068002903D10F2129
:10CA00008903091A490840180190002109980091EA
:10CA100080080290684618DFE2E700B58BB004A8F2
:10CA200000F0FDF909980028DAD016480F21089A7D
:10CA300089038068002A01D10A1A5208801803224B
:10CA400000920191029023E00420002010F20300E4
:10CA50002E2E5C6466755F6475616C5F62616E6BDF
:10CA60002E63000045C603006C250020A7C6030006
:10CA70002E2E5C6466755F6475616C5F62616E6BBF
:10CA80002E630000003000002C250020350200003D
:10CA9000099880080390684618DFA1E700B58BB0BD
:10CAA00004A800F0BCF90898002899D00320009051
:10CAB0000120000301900320000380680290089881
:10CAC00080080390684618DF8AE730B5134C85B0BC
:10CAD0001348E16801F03DFC002804D04121114ACF
:10CAE000C900FFF719FC0E48E268083841680023C6
:10CAF000083001F0FEFB05000CD1094900902039F7
:10CB000049886A469180E1680491009101A90EC9A3
:10CB100000F066F8284605B030BD00001C25002056
:10CB20002420002070CA030010B5CA480368012BF6
:10CB300002D1022900D10160100003D0C6A2372122
:10CB4000FFF7EAFB10BD10B5C24C40DF002803D050
:10CB5000C1A24921FFF7E0FB00F05AFE206802283D
:10CB600003D0032801D00428EFD110BD38B50068E8
:10CB7000401C19D00024684600F082F90098016832
:10CB8000012910D1818800290AD0C168032000033F
:10CB90008068002200F0D2FF00998988814201D18B
:10CBA000012400E00024204638BD10B50446A94801
:10CBB0001C21001D01F047FB002803D0A6A27E2106
:10CBC000FFF7AAFBA34800231C222146001D01F009
:10CBD000A9FA002803D0A0A28421FFF79DFB10BD75
:10CBE0000FB438B5684600F04BF96846818A049D59
:10CBF0009D480122FF23974C002D20D0012D24D0E9
:10CC0000032D36D00021022D42D02A46062D47D0D2
:10CC10001346FE22042B4DD01946052B51D007296F
:10CC200009D101F0A6FC002803D08BA2E021FFF778
:10CC300073FB0420206038BC08BC04B01847818016
:10CC4000089983600260C1600EE08180079D0699AB
:10CC50004919089D4919C160A521836001600699A1
:10CC6000016107998561416122607F48FFF79DFF5F
:10CC7000E1E700990B6803608B888380C968C16015
:10CC8000AA2181600699016107994161089905E02F
:10CC900081800360C1600161836041618161E3E77C
:10CCA00001F067FC002803D06BA2C621FFF734FB1C
:10CCB0000320BFE781800260C160009989688160BC
:10CCC000D3E700990B6803608B888380C968826012
:10CCD000C160CAE70EB5654800901C200190012094
:10CCE000029001F085F9002804D15A496846091DCF
:10CCF00001F0A7F90EBD10B5FFF7FCFC002805D127
:10CD000001F013FC0446FFF71EFF204610BD70B56E
:10CD100011DF002804D0FF214FA23031FFF7FCFAC9
:10CD2000534900200B68524C012180340A4682404E
:10CD30001A4204D0C506ED0E0A46AA402260401CE5
:10CD4000C0B22028F2D303242403A06813DF0028F4
:10CD500004D0FF2140A23531FFF7DEFAA06800F0D1
:10CD60008BF870BD38B50024684600F089F800984B
:10CD70000168A52910D1818800290AD0C168032043
:10CD800000038068002200F0D9FE00998988814262
:10CD900001D1012400E0002400988068AA2801D075
:10CDA000204638BD012038BD10B5FFF777FE0028BA
:10CDB00003D1FFF732FE00281ED0642001F000FBF3
:10CDC000FFF7F9FD002804D0FF2123A26831FFF707
:10CDD000A3FAFFF763FE002804D0FF211EA26B31E7
:10CDE000FFF79AFAFFF7FEFD040004D0FF211AA214
:10CDF0006E31FFF791FA204610BD00B587B01422BE
:10CE00001C4901A8FFF7FCF90598009001A80FC87C
:10CE1000FFF7E6FEFFF797FE002007B000BD10B554
:10CE20000C4988B0044600231C22091D684601F005
:10CE3000BCF90098206068468088A0800398E06074
:10CE40000298A06004982061059860610698A0612E
:10CE500008B010BD2C2000202E2E5C626F6F746C09
:10CE60006F616465722E63007825002029CB030072
:10CE700000E100E024F2030010B5FFF791F910BDC6
:10CE8000014901607047000000FC03004F48002189
:10CE9000017050484E4A02608160C1600161022207
:10CEA000416142608161084670470020704710B5BB
:10CEB00000291FD000220A60464A5368002B1DD06B
:10CEC0004B24E400A04217D85B1E5360D068972320
:10CED000401CD06010699B0014684343E3180B604A
:10CEE00001210C46936984402343814393610020D0
:10CEF000116110BD0E2010BD0C2010BD042010BD0E
:10CF0000F0B5344B8446996800292BD05A6910201B
:10CF1000511AC907C90F96461D680A460127972668
:10CF2000B6004E43AE19664506D13D469C698D401C
:10CF30006C4000209C6104E00E463946B1438E45AA
:10CF4000EDD13D469C698D43394691400C420AD152
:10CF50009968002907D0491E996059682A46491CDA
:10CF60005960F1E70420F0BD1A4A012113691268E3
:10CF7000994397239B0059431B1FC9185050002009
:10CF8000704770B500281CD000291AD0114AD36808
:10CF9000002B18D05B1ED360936897265B1C9360B0
:10CFA0005369B6001D4614687343E61806604B20AB
:10CFB000C0001818205808600120A84350610020C4
:10CFC00070BD0E2070BD042070BD00003820002010
:10CFD000B42500206C2A00208307FF22DB0E9A4034
:10CFE0008907090E994000280BDA0007000F08385E
:10CFF0008308FF489B001818C36993430B43C36120
:10D0000070478308FB489B001B181868904308432F
:10D010001860704770B50124F74960040860F7494B
:10D0200040108860F54940398860F54D6C602F20CC
:10D03000FFF7C6F8AC60F34D00242F206C61FFF7BA
:10D04000BFF82C7170BDF0B5EE4F2821BC6841438C
:10D050000D1939694A1C09D028224A431619AB68B0
:10D06000B268934204D8D21AB26069623861F0BDE6
:10D070000A4602E00A46796A9B1B4E1C0BD0282602
:10D080004E433719BE689E42F4D328264E433619C4
:10D09000B768FF1AB760AB60696228214A4311196B
:10D0A0004862F0BDF8B5D74C2569681C36D0D64823
:10D0B000002640686169401A07023F0A1AE02820EA
:10D0C0004543A0682A189068B84215D8A3693F1A4A
:10D0D0008619556A002B0AD0116AD0699847002832
:10D0E00008D0FF21C9A26431FFF716F902E0D16927
:10D0F000106A8847681CE2D1A178E078814206D1A5
:10D10000401CC0B2E070022801D10020E070BD498F
:10D110000006800D1C310E5000F0C8F9F8BDF8B5BE
:10D120000446B84801690091467856E0B548F100D8
:10D13000C2688D184BE0601C07D0B24A2821926863
:10D140006143204689184C6A20E028781821414321
:10D150006A68401CC0B252182870A978884201D170
:10D1600000202870A74B506828219B684143C918AC
:10D170001368012B2DD10B7E002B2AD19368CB6035
:10D18000D3680B6113694B6152690A629D4ACF688B
:10D190005369BC46FA1A1202A84F120ABA4202D2C6
:10D1A0000B69D21809E062469A1A12020B69120A38
:10D1B000934201D99A1A00E000228A600022CA60D4
:10D1C0000A6101220A76921E4A62FFF73CFF601C48
:10D1D000B1D1287869788842ADD13046761EF6B252
:10D1E0000028A3D1874801690098814201D001201D
:10D1F000F8BD0020F8BD92490020086048608860B2
:10D20000C8608F494039086048604BE7F0B500209E
:10D2100087B0C04302907B4846690569684600F0C4
:10D220004AF9074600F064F90446002F08D002AA24
:10D230003146009800F0A4F90298FFF770FF06E06D
:10D240000298FFF76CFF002801D1002C02D028467D
:10D2500000F0BFF907B0F0BDFFB59807002481B01A
:10D260001E4615460F4600280BD1002E09D0FFF7A9
:10D27000D1FE64490A9888610F70324600208E60A2
:10D2800008E0072005B0F0BD28234343D4509B1885
:10D290001C76401CB842F7DB28204743BB1903200B
:10D2A00048700F461846CB601946183000221823E4
:10D2B0002E465E43D3005B181C705C709D705860F6
:10D2C0003018521C032AF5DB0020C0433861BC70C3
:10D2D000FC7001245B482405046003211420FFF73F
:10D2E0007BFE454880380460474C0198A0600321CC
:10D2F0001120FFF771FE606878610020C2E770B509
:10D30000404CA568002D06D0002A06D0002804D085
:10D310000023247809E0082070BD072070BD28266E
:10D320005E43AE59002E04D05B1CA342F7DB042001
:10D3300070BD282401265C432E516419E2616160AE
:10D340000360002070BD2A494868C005C00D17D091
:10D35000103807D50207120F083A920892005118A8
:10D36000C96904E08108234A89008918096880078F
:10D37000C00EC1400806800F012803D0032803D047
:10D38000022070470020704701207047FEB5044618
:10D390001C48174682680D46002A0CD001788C4242
:10D3A00001D2052D01D20720FEBD21462823594375
:10D3B0005358012B01D00820FEBD88184068012871
:10D3C00048D00026FFF7BFFFC0000E490190C96892
:10D3D0004018694600F043F900283DD0012112C0F1
:10D3E00009494968E2C007490198C96841182BE01A
:10D3F00000ED00E000E400E080E100E040130140C7
:10D40000001001403C200020001501402E2E5C2E13
:10D410002E5C2E2E5C2E2E5C2E2E5C536F7572634E
:10D42000655C6170705F636F6D6D6F6E5C61707075
:10D430005F74696D65722E6300000000FFFF7F005E
:10D440004011014080E200E00098487000F02EF8A2
:10D450000020FEBD2E46B5E70420FEBDF8B5A14D67
:10D460000446A868002809D029788C4201D30720F7
:10D47000F8BD282161434058012801D00820F8BD9B
:10D48000FFF761FFC600E8686946301800F0E7F86A
:10D49000002809D0022112C0E868311800984870AD
:10D4A00000F004F80020F8BD0420F8BD01208E49EA
:10D4B00000050860704710B58A4900238A78CC7847
:10D4C000A24212D0521CD2B28A70022A00D18B70B2
:10D4D0008A78844B92001C339A580260486910186D
:10D4E0000002000A4861012010BD0360002010BD49
:10D4F000F8B57C4801690091457833E07948E90046
:10D50000C0680E1834782AE0182060437168641CE3
:10D510000818B178E4B2A14200D1002401680229C0
:10D5200002D003291BD113E06E4A4068282192687B
:10D5300041438F18397E002911D000F0A2F8002055
:10D5400038760CE028277843C0180276406A03E05A
:10D55000644900228B680869471CF3D10861707820
:10D56000A042D1D128466D1EEDB20028C6D15D483B
:10D5700001690098814201D00120F8BD0020F8BD6A
:10D58000F7B5584C0025A76823691EE028215943A8
:10D59000C9198E68864202D9301A886017E0801B4C
:10D5A000751900268E600E764E699C464B6AB6460B
:10D5B000002E0AD0019E76193602360ACE607646D3
:10D5C0000E6116684E6261461160591CDED12361FE
:10D5D000FEBDF8B5434801694A1C3DD0282251439D
:10D5E000826889188E6841494C6847690079E11B57
:10D5F0000D022D0AED1C002815D101203C4A000423
:10D6000050603B4A403A50603749400080310860E2
:10D61000384908603849012008602F20FEF7D0FD06
:10D62000304901200871B54200D23546E8190002A0
:10D630002E49000A403108602C494968001B091B2B
:10D640000902090A0002000AC91C814203D901200B
:10D65000254940040860F8BDFFF7DCFCF8BD4278BE
:10D660008378521C934200D100220378934201D167
:10D67000002070470A60416840781822504308181B
:10D68000704770B5174E3569B26829460C4606E0FA
:10D69000844207D0254628235C43A3185C6A631C98
:10D6A000F6D170BD002BFCD0A54208D12820414303
:10D6B0008818406A3061401C01D1FFF7ABFCB168AB
:10D6C000282044436018282382685D43406A6B1811
:10D6D0005862431CE5D028235843401881688918B4
:10D6E000816070BD3C20002000E200E00015014098
:10D6F0004013014000E100E00010014030B5CB00D4
:10D7000008339DB293070024002B01D0072030BDC1
:10D71000564B9A605219DA605C701C705880998080
:10D72000002030BDF7B5514C82B060880F46814271
:10D730006CD80020694608704E494D4E4868C005B7
:10D74000C00D16D0103807D50207120F083A9208FC
:10D7500092005118C96904E08108474A8900891874
:10D7600009688007C00EC1400806850F012D01D150
:10D770000AE0042568462EDF02280BD0002803D0DB
:10D780003EA25921FEF7C8FD6078A188884203D2E5
:10D79000401C02E072B6F7E700202278C0B2904247
:10D7A00007D066786078884201DA401C00E00020EB
:10D7B0006070012D0BD062B6684600782FDF02281A
:10D7C00005D0002803D02DA26121FEF7A5FD284831
:10D7D000864219D0A068F5000499415102990029A8
:10D7E0000CD0002F0AD060883A464643E0683018D3
:10D7F00001F0B8FBA0682818878002E000212818F3
:10D800008180002005B0F0BD0420FBE70920F9E786
:10D810000EB504E068468188029A0098904702AAF3
:10D8200001A9684600F003F80028F3D00EBD70B5DA
:10D830000E4B05245D781E78B54215D01D781C78F6
:10D840009E88B44201DA641C00E000241C705C88ED
:10D85000DE686C43A41904609B68E800C418A488BF
:10D860000C80185800241060204670BD60200020F5
:10D87000FFFF000000ED00E000E400E02E2E5C2E33
:10D880002E5C2E2E5C2E2E5C2E2E5C536F757263DA
:10D89000655C6170705F636F6D6D6F6E5C61707001
:10D8A0005F7363686564756C65722E6300000000C9
:10D8B000F0B500220123032636041F469740394263
:10D8C00012D0C5683D4203D1012464043D4301E008
:10D8D0003446BD43C560914D97007D192F68B7430D
:10D8E0002F602F6827432F60521C202AE5D3F0BDFC
:10D8F000F8B58B4805698B490020C863074632E0BC
:10D9000014213A464A434168806854180121B940BD
:10D91000014226D0E068C64320686E40064031468A
:10D920002046FFF7C5FF7E48006968400CD00543DC
:10D93000E0682168C04368400840014600902046E6
:10D94000FFF7B6FF009806433046A168A8430140A0
:10D950002A4660683240104002460A4301D02269DC
:10D9600090477F1CFFB2704841788F42C8D3F8BD02
:10D97000F0B56D4A00215368142250430124674DCD
:10D9800003273F041E5822468A40164206D08A00CA
:10D9900052191668BE43166016681660491C202985
:10D9A000F0D3F0BD10B5002903D08A070024002A67
:10D9B00001D0072010BD5C4A0B4651601070142145
:10D9C000547041431846946001F02BFB00205749E6
:10D9D000C0438860564840210160564A1068FF23C2
:10D9E0001B0498430B041843106053480160002047
:10D9F00010BDF8B54C4F84467D68002D07D0002B34
:10DA000007D078783C78A04205D30420F8BD0820E0
:10DA1000F8BD0720F8BD0E461424164344432E518A
:10DA200064192361A260616061460870411C7970CD
:10DA3000FFF79EFF0020F8BDF0B53B4A5168002972
:10DA400004D05378984203D30720F0BD0820F0BDDE
:10DA5000344B0025DD63324B1C699768002F02D1DF
:10DA6000324EDB057360012686403E4396601422E9
:10DA700050434218D560002201230D5893401D42A7
:10DA800015D01C4202D003252D0405E001256D04AC
:10DA90004618F7681F43F760204B9600F3181E687E
:10DAA00003273F04BE431E601E682E431E60521CA7
:10DAB000202AE1D30020F0BD70B51B4C05466068FC
:10DAC000002804D06078854203D3072070BD082069
:10DAD00070BD2846FFF74CFF0121A068A94088438C
:10DAE000A06003D101201149C0078860002070BDEB
:10DAF0000D4B5A68002A04D05B78984203D3072064
:10DB0000704708207047142358438018044A12694C
:10DB10000068024000200A607047000000070050C3
:10DB2000000500504061004070200020006300406C
:10DB300080E200E004E400E000E100E010B504460B
:10DB4000002A02D01088002210E00A48FBE7030AEE
:10DB500000020343A05C584003061B0F4340180318
:10DB6000584083B21806C00C5840521C8A42EED36B
:10DB700010BD0000FFFF000010B508461146FEF77B
:10DB8000D1FB10BDF8B5354C2078002837D020697E
:10DB9000002807D00026E068002805D00025002EC8
:10DBA00004D013E00126F6E70125F8E7684651DFC7
:10DBB000052806D0002806D029A26921FEF7ACFB73
:10DBC00004E0012602E0216900988847002D12D167
:10DBD000608869460880A06861DF052806D00028B3
:10DBE00006D01FA28021FEF797FB04E0012502E08A
:10DBF000E168A0688847002ED8D0002DCFD0F8BDAE
:10DC000070B5002901D08C0701D0072070BD134CDE
:10DC10000125A16062802049636010DF0028F5D1F2
:10DC20002570162026DF70BD002803D00B4908613F
:10DC3000002070470E20704710B508484068002843
:10DC400008D08047002804D0FF2105A23331FEF719
:10DC500063FB10BDFFF796FF10BD00007C20002085
:10DC60002E2E5C2E2E5C2E2E5C2E2E5C2E2E5C53C9
:10DC70006F757263655C73645F636F6D6D6F6E5C0F
:10DC8000736F66746465766963655F68616E646C02
:10DC900065722E630000000079DB030018225043F8
:10DCA000FE4A002180180171816041610122816179
:10DCB0000261C1607047FFB581B0F94C049B039AC3
:10DCC000054626691A4303200092002E03D1002A3C
:10DCD0000ED0012222612769039A0126360792009D
:10DCE0003B0001F080FA0727071629405261270000
:10DCF0000222EFE77069326992B2504332693369A8
:10DD00001204920C9BB2594321DF002812D1022148
:10DD10000FE0084620DF00280CD10399002901D02C
:10DD2000032106E00499002916D12978042946D058
:10DD300017E0216105B0F0BD7069326992B25043BD
:10DD4000326993B24B4301461846039A21DF0028FB
:10DD5000F0D10499002901D00421EAE729780429A7
:10DD600020D00521E5E773693069366980B2434305
:10DD700068681B189B18B6B24E43301880181946B5
:10DD8000049A21DF0028E9D0D4E7306980B2484303
:10DD9000696880188A08696921DF0028CAD100995A
:10DDA00000290CD00621C4E77069316989B2484363
:10DDB000316989B201F037F920DF0028BAD1072193
:10DDC000B7E7F8B5B54918230A780F205A43541815
:10DDD000B34922796669241DCF68022A1BD0012528
:10DDE0002D07042A2AD0052A5BD1286981B2304642
:10DDF00001F019F90146A36828699A1980B24843CD
:10DE0000101A820860681818861928694B1C80B29D
:10DE10005843801B34E0B80262686169121A09181D
:10DE2000A3683018181801239B029A4202D2920864
:10DE300021DF31E0FF22013221DF2DE0E268974946
:10DE400014205043F4314018001D0BC8B04203D1D8
:10DE500060685943814218D0022A16D0286981B2DD
:10DE6000304601F0E0F80146286980B24843301A94
:10DE7000820828694B1C80B2584363689B19C01AFA
:10DE800083082046FFF717FF06E0286981B2304675
:10DE900001F0C9F8C01920DF002802D17F49012212
:10DEA0008A70F8BDF8B57D4C069E65780A2D1DD0A8
:10DEB00027787D19EDB20A2D01D30A3DEDB218275E
:10DEC0007D432D192871AA6103C9EE60AB606961B9
:10DED0002861A1780020002904D1FFF772FF1128E2
:10DEE00000D100206178491C6170F8BD0420F8BDA4
:10DEF00038B5024669481823017859430818036960
:10DF00000179022B0AD014246343644CF434E4589E
:10DF10008368009383691030A04738BD604B143389
:10DF20001C68F5E7F8B55D4B9978012914D10025F7
:10DF30005B499D700A69082A05D002280FD0032882
:10DF40000AD10D2006E0022807D00D7000F025FA56
:10DF5000002801D0FFF7CCFFF8BD0D61F6E74F4870
:10DF6000182403784E496343CC681818641CCC60AD
:10DF70000379001D022B05D14668A102B14201D3ED
:10DF8000012700E00027052B01D1072A03D000213B
:10DF9000042B02D003E00121FAE7072A03D0002670
:10DFA000042B02D007E00126FAE74068A30283426F
:10DFB00001D3002A1AD00020314301433943C5D090
:10DFC000374E28463561FFF793FF344C2078FFF732
:10DFD00065FEF5606078401E60702078401CC0B21D
:10DFE00020700A28B2D30A382070AFE70120E3E797
:10DFF00070B500252A4C2948E560256105704570FB
:10E0000085702E463046FFF749FE761C0A2EF9D35E
:10E01000012212076560516928461269491E92B2B1
:10E020005143E560A1601D49F4310D608D600D61C3
:10E03000CD601B4914310D60888001212170206161
:10E0400070BDF8B5164A044610780E46002830D048
:10E05000002C30D0002E2ED0206800282BD001209C
:10E0600000076768016989B28F4228D8102F26D32C
:10E07000A168002923D09568794343694A1900694A
:10E0800080B243439A421AD801200007006980B247
:10E09000814212D901200007006903E0882A00208C
:10E0A0009020002080B2394600F0BDFF002906D143
:10E0B00003E00820F8BD0E20F8BDB80701D0072006
:10E0C000F8BDBD49486801281CD00F4621C614215F
:10E0D000BA4A41438E187560236853506168B16035
:10E0E000A168F160A2686168002351430122120710
:10E0F0005B1C14699BB2A4B28C4205D21469A4B211
:10E10000091B02E00420F8BD00211469A4B26519BE
:10E110001469A4B28C42EBD9BD60401C33617860B5
:10E120000020F8BDF8B50446A3481E460078154601
:10E130000F46002807D0002F07D0002C05D02068FC
:10E14000002817D103E00820F8BD0E20F8BD9B4839
:10E15000016800290ED0C268816840684A431018DF
:10E160006268904206D9002D04D0A94202D3A819B2
:10E17000884201D90720F8BD384600F008F9002888
:10E1800011D0304600F003F900280CD0606800F090
:10E19000FEF8002807D02B463A462146022000967A
:10E1A000FFF780FEF8BD1020F8BDFFB5824881B0B2
:10E1B00000781F4616460D46002808D0002D08D0CE
:10E1C0000198002805D02868002817D103E008200E
:10E1D000B0E50E20AEE5794C206800280ED0E1684D
:10E1E000A0686268414389186A68914206D9002E86
:10E1F00004D0B04202D3F119814201D9072099E538
:10E20000019800F0C4F800281BD0384600F0BFF891
:10E21000002816D0686800F0BAF8002811D06868A5
:10E220003246C119019800F09DFE0096286814211D
:10E2300048432458002203212846019BA047002080
:10E2400078E5102076E5F8B505465B480F4600787E
:10E25000002805D0002D05D02868002821D103E032
:10E260000820F8BD0E20F8BD544C00262068002878
:10E2700017D0A168E0684843616841186868814226
:10E280000FD900F084F800280DD0296814225143DA
:10E29000091968684A688968801A00F0C4FE002974
:10E2A00003D00720F8BD1020F8BD3B4600222946C8
:10E2B00004200096FFF7F6FDF8BD3F4A1278002AC9
:10E2C0000DD000280DD000290BD00268002A08D0FC
:10E2D000394A14321368002B05D0042070470820F7
:10E2E00070470E20704702230B600068106000200A
:10E2F0007047F8B5044630481E46007817460D466C
:10E30000002807D0002D07D0002C05D02068022857
:10E310001BD103E00820F8BD0E20F8BD26481430BC
:10E320000068002811D0084600F031F800280ED00F
:10E33000304600F02CF8002809D03B462A462146FA
:10E3400002200096FFF7AEFDF8BD0720F8BD1020B3
:10E35000F8BD08B5184A1278002A05D0002805D063
:10E360000268022A11D103E0082008BD0E2008BD72
:10E37000114A14321268002A07D00B4600220146C7
:10E3800004200092FFF78EFD08BD072008BD80071E
:10E3900001D00020704701207047084910B5F439BA
:10E3A00049780020002906D0FFF70BFD002802D095
:10E3B000112800D1002010BD902000207C2B0020CF
:10E3C00031B5054C04E0401E00902046FDF708FFE3
:10E3D00000980028F7D138BDE70300000C22504315
:10E3E000694A00211150801881604160704710B562
:10E3F000042819D20C21644A41438B1851589C6857
:10E4000000290FD0114620310A7C521E0A74FFF7F2
:10E41000E5FF201F00F0AEFA002803D05BA27721B1
:10E42000FDF77AFF002010BD072010BD10B50800D1
:10E4300003D056A2BF21FDF76FFF10BD70B5524D3E
:10E440002E46203627E000240C216143481902683B
:10E45000002A1DD06958012911D0022907D00329AB
:10E4600002D004290BD11AE0FEF700FA07E0FEF70C
:10E47000A5F9002803D045A2DE21FDF74DFFE0B24B
:10E48000FFF7B5FF002803D040A2F821FDF744FFB5
:10E49000641C042CD8D3307C0028D4D170BDFEF786
:10E4A00024FAFEF752FA70BD3EB501A9684600F0A5
:10E4B00042FA002813D1009802AC0378002B0ED04A
:10E4C00031492031087C032809D02F4A00200C252F
:10E4D00045435559002D0DD0401C0428F7D3009812
:10E4E00000F048FA002804D0FF2128A21931FDF7D6
:10E4F00013FF3EBD20700C2460431350087C401C69
:10E5000008746846808881086846007A491E60431E
:10E51000801841600099244A091D81600021084645
:10E52000FFF700F90028DAD13EBD174810B50021E9
:10E53000203001740C46E0B2FFF750FF641C042C3D
:10E54000F9D31A48FEF737F900F0A5F9002804D0EE
:10E55000FF210EA22931FDF7DFFE154800F085F9F5
:10E56000002804D0FF2109A22D31FDF7D5FE00209F
:10E5700010BD10B50024E0B2FFF739FF641C042C75
:10E58000F9D300F0B4F910BD902B00202E2E5C645E
:10E5900066755F7472616E73706F72745F736572AB
:10E5A00069616C2E630000003DE403002DE403006C
:10E5B000A9E4030010B5F648F54C007E641CC000C9
:10E5C000207000206070A070204600F0D8F9E07044
:10E5D0000421204600F0F4FA10BDF3B581B04B26BB
:10E5E000029FF600EA4C0546042F69D928784106B7
:10E5F00066D5010664D569780A07120F0E2A5FD125
:10E600004118AA78E878101808180006000E57D1AB
:10E6100000222846B91EFFF791FAE9191E394A7FF0
:10E620000B7F1102194388424AD1287801274107FC
:10E63000A069490FC2B28A4234D1401C4007400F42
:10E64000A061FFF7B7FF27700298FEF78DFC002846
:10E6500004D0FF21CFA20431FDF75EFECC49304645
:10E660001431FEF724FC00280BD0042805D0FF212C
:10E67000C8A207310020FDF74FFEC5480521343000
:10E6800001E03146606900F0B6FA002804D0FF21AD
:10E69000C0A20F31FDF740FE2169002901D0002002
:10E6A0008847FEBD3146606900F0A5FA002804D015
:10E6B000FF21B8A21D31FDF72FFEFFF77BFFFEBD46
:10E6C0003146606900F097FA0028F8D0FF21B1A226
:10E6D0002931FDF721FEFEBD70B5AD4C2146A56880
:10E6E0008B6A002D12D00A46516A126A012D1FD082
:10E6F000022D1CD100282AD0022837D0032816D199
:10E70000207F401C4007400FE0613BE000280ED115
:10E710001846FEF7A3FE002804D0FF219DA27B31FE
:10E72000FDF7FAFDE168002901D0206B884770BD34
:10E730000128FCD11046891D00F042FA002804D0BF
:10E74000FF2194A28C31FDF7E7FD02201BE00020A1
:10E750000246E0629C491846FEF718FE0028E6D003
:10E76000FF218CA2A031FDF7D7FD70BDE06A05281E
:10E7700006D0401CE0621046891D00F021FA70BDF1
:10E7800001202063002000F027F970BD70B500283B
:10E790000CD0012806D0022857D003287DA25FD0D4
:10E7A0008A495FE00120FFF797FF70BD784C042A8B
:10E7B00020D34B781807000F06D00E281AD1084630
:10E7C0001146FFF70AFF70BD0878C2188B78C97828
:10E7D00059185118C9B2002200290BD18006410FE7
:10E7E000207F401C4007400F884203D10320226352
:10E7F000FFF772FF4B256069ED00002808D029461D
:10E8000000F0F9F90028DED0FF2162A2FE3129E0F4
:10E810005F4928461431FEF74AFB00280BD0042834
:10E8200005D06A495BA216390020FDF775FD5848EE
:10E830000521343001E02946606900F0DCF9002848
:10E84000C1D0624953A210390CE05148052134303F
:10E8500000F0D1F90028B6D05C494EA2083901E099
:10E860005A49091FFDF758FD70BD10B504464848C8
:10E870000461574800F07CF9002804D0534945A2B0
:10E880000C31FDF749FD002C01D0002010BD0E20F9
:10E8900010BD022020E770B53D4C00202062606270
:10E8A000E0622070A0600120A061E0610146206369
:10E8B0002046484A2830FEF722FD002810D1FEF7F6
:10E8C000E5FA00280DD100F057F9002809D14B25B1
:10E8D0002146ED0014312846FEF7E9FA002801D060
:10E8E000032070BD2946606900F085F970BD10B540
:10E8F000274C0020E0602061FEF7D7FA002804D002
:10E900009F2124A28900FDF707FD00F051F900289E
:10E9100004D02E491FA26531FDF7FEFCA06AFEF768
:10E920009DFD042805D129491AA269310020FDF76F
:10E93000F3FC002010BD38B50D46040017D0002DA3
:10E9400015D00020124900900A78002A0DD00870D6
:10E9500069462046FEF715FB02460098801F00908E
:10E9600028802068001D206002E0042200E00E22C2
:10E97000104638BD10B5001FFEF7C2FA10BD017871
:10E980004278807851184018C043401CC0B270478C
:10E99000AC2000202E2E5C2E2E5C2E2E5C2E2E5CAB
:10E9A0002E2E5C536F757263655C6170705F636F70
:10E9B0006D6D6F6E5C6863695F7472616E73706FAA
:10E9C00072742E6300000000DF4F00001902000087
:10E9D0008DE7030093E803000149886000207BE68F
:10E9E000AC20002010B5884CE1696069405C00F003
:10E9F00074FA002802D1E169491CE16110BD10B52B
:10EA0000C02000F06AFA002805D17F49CA69002AAF
:10EA100001D17E4ACA6010BD10B57B4CE1696069C6
:10EA2000405CC02803D0DB2803D0042010BDDC20CC
:10EA300000E0DD2000F051FA0028F7D1E169491C1F
:10EA4000E1617249E16010BD10B5DB2000F045FACC
:10EA5000002802D16C4A6E49D16010BD70B56B4D73
:10EA60006C4E694C10E0E1696069415CC02903D0DB
:10EA7000E169405CDB2803D1E068A84200D1E66090
:10EA8000E0688047042813D0E069A1698842EAD38E
:10EA90006148E060FFF7B3FF002809D10120606002
:10EAA0002369002B04D05D48E269006861699847DA
:10EAB00070BD30B4544B9A6A002A09D01C69002CEE
:10EAC00006D00020196A98621862A44630BC6047DC
:10EAD00030BC7047C02808D04B49DB2806D00B6AF1
:10EAE0008A6A9854521C8A627047E2E74C488860F0
:10EAF000704710B5444CC02808D021468A6A0B6A7A
:10EB0000511CDC2805D0DD2806D104E0FFF7D1FF39
:10EB100004E0C02000E0DB209854A1624148A060DE
:10EB200010BDC02802D138493E488860704770B592
:10EB300005460068344C032804D16068022812D1CD
:10EB4000FFF78CFF286804280DD1216A002903D023
:10EB5000A26A606A824207D32369002B03D02F4840
:10EB6000A26AC068984770BDA1682879884770BDBF
:10EB7000254908610020704710B5234C86B06068B5
:10EB8000002802D0002006B010BD244B18330FCB54
:10EB9000049301AB07C31C4800900323224A0021C1
:10EBA00001A800F0DAF80028EDD101216160EAE760
:10EBB00010B5154800214160008800F09BF910BD98
:10EBC00010B5002807D0104A5368012B05D0022B3E
:10EBD0000FD0082010BD102010BD0023D36191611B
:10EBE0005061022050600C48D060FFF737FF0020D2
:10EBF00010BD042010BD044A5162106200209062D2
:10EC00000A48906000207047E8200020E5E90300F2
:10EC100019EA030049EA0300FFE9030038F20300A0
:10EC2000F3EA0300D5EA03002FEB030023EB030014
:10EC30001CB5C0490120C860BF498860032000900E
:10EC40000969684688471CBD70B502240122BB4D86
:10EC5000B84EB949030000F0C6FA05040C26192085
:10EC60000B008868012818D0022801D10320886091
:10EC700070BD8868002802D00328F9D104E0042080
:10EC8000286032608A6070BD8C6070BD8868012821
:10EC900006D0022804D00328F7D100F041F970BD56
:10ECA000FFF7C6FF70BD88680128FBD1886802287D
:10ECB00000D0B2604878E861E6E7F8B505469E4EB8
:10ECC0000C460846F1682840084208D06946B078EA
:10ECD000FEF70EFF00280CD1009805408443F06831
:10ECE000044201D0012002E0054202D00020FFF7DB
:10ECF000ABFFF8BDFEB5924CA0688F4D914E00273A
:10ED000000280ED0706840070BD5A7608B4880693B
:10ED10000421C0B2A880009169460871296968463B
:10ED20008847E069002806D07068000603D5E761CF
:10ED30000320FFF789FF606A00280DD07068800506
:10ED40000AD567627D498039086808600221009110
:10ED50000190296968468847FEBDFFB581B0044629
:10ED6000754D00200A9EA860411E2A61A980627824
:10ED700003219300744A9B18196023789B009A180A
:10ED800010606E486278C26022784261E268426236
:10ED90006A4A237A4032002B00D00E23D362676880
:10EDA000022F09D064490B78591CC9B2012F4ED0EB
:10EDB0003488002C63D064E0A3789F00624BFB187A
:10EDC0001960A37801210F469F40604B5F608B1E46
:10EDD0000361A3788360D06A0843D062E0780A4672
:10EDE000824083005848EA60594A18180260E07867
:10EDF00081403088002804D0FF280FD2072005B0BA
:10EE0000F0BD4D48534B0A46801CFEF7F2FD00282A
:10EE1000F5D1A8780002FF30308001E0000AA87028
:10EE20006946A878FEF764FE0028E8D1A878FEF7C6
:10EE300003FE0028E3D1E1780120884000990842D0
:10EE400001D1012000E00020FFF7FEFE2CE0378812
:10EE5000002F01D13380297004210160384B00213B
:10EE60009960D961D36A01210B43D362E2780261D0
:10EE7000A27882602F4881600160A96014E033802D
:10EE80002970042101602E4B00219960D961D16A5B
:10EE900049084900D1620021C943816001612549C7
:10EEA000012088600860A86000212648C94381606D
:10EEB000A12189004160284804210160274B049862
:10EEC0001A68FF2424048007000EA24300040243B2
:10EED0001A6023480160002091E710B516498A683E
:10EEE000012A01D0042010BD48700220FFF7ACFEBB
:10EEF000002010BD10B5FF2804D20420FFF7A4FEA7
:10EF0000002010BD0C4C000AA178884201D00720D7
:10EF100010BD0420FFF798FEA078FEF7CDFD10BDD0
:10EF200005490020886003490122CA604A600349FC
:10EF30000860704700200040142100200025004098
:10EF40000021004000230040000700500005005051
:10EF50000C000300BBEC030080E200E000E400E0F2
:10EF600000E100E0F8B5042A2CD3830712D00B7817
:10EF7000491C0370401C521E83070BD00B78491CA0
:10EF80000370401C521E830704D00B78491C037089
:10EF9000401C521E8B079B0F05D0C91ADF0020238F
:10EFA000DE1B08C90AE0FDF72BF9F8BD1D4608C9AC
:10EFB000FD401C46B4402C4310C0121F042AF5D259
:10EFC000F308C91A521EF0D40B78491C0370401C78
:10EFD000521EEAD40B78491C0370401C012AE4D469
:10EFE00009780170F8BD01E004C0091F0429FBD2B3
:10EFF0008B0701D50280801CC90700D002707047C2
:10F0000000290BD0C30702D00270401C491E022900
:10F0100004D3830702D50280801C891EE3E7002207
:10F02000EEE70022DFE7002203098B422CD3030A1C
:10F030008B4211D300239C464EE003460B433CD445
:10F04000002243088B4231D303098B421CD3030AAD
:10F050008B4201D394463FE0C3098B4201D3CB01DD
:10F06000C01A524183098B4201D38B01C01A52410D
:10F0700043098B4201D34B01C01A524103098B4211
:10F0800001D30B01C01A5241C3088B4201D3CB00FC
:10F09000C01A524183088B4201D38B00C01A5241DF
:10F0A00043088B4201D34B00C01A5241411A00D28F
:10F0B00001465241104670475DE0CA0F00D04942F8
:10F0C000031000D34042534000229C4603098B4268
:10F0D0002DD3030A8B4212D3FC22890112BA030AF0
:10F0E0008B420CD3890192118B4208D38901921172
:10F0F0008B4204D389013AD0921100E08909C309F7
:10F100008B4201D3CB01C01A524183098B4201D3F8
:10F110008B01C01A524143098B4201D34B01C01AE3
:10F12000524103098B4201D30B01C01A5241C3085B
:10F130008B4201D3CB00C01A524183088B4201D3CA
:10F140008B00C01A5241D9D243088B4201D34B00E5
:10F15000C01A5241411A00D20146634652415B1027
:10F16000104601D34042002B00D549427047634608
:10F170005B1000D3404201B50020C046C04602BD2E
:10F18000704770477047754600F022F8AE4605009C
:10F1900069465346C008C000854618B020B5FDF743
:10F1A000A7F860BC00274908B6460026C0C5C0C500
:10F1B000C0C5C0C5C0C5C0C5C0C5C0C5403D49006B
:10F1C0008D4670470446C046C0462046FCF7C5FF42
:10F1D00000487047C42B002001491820ABBEFEE751
:10F1E00026000200704730B47446641E2578641C03
:10F1F000AB4200D21D46635D5B00E31830BC18478C
:10F2000002000000000000000000000000000000FC
:10F2100004000000000000000000000000000000EA
:10F2200000000000020000000000000000000000DC
:10F2300000000000000000000100000000000000CD
:10F2400000000000020000000000000000000000BC
:10F2500010111312010000000000000000509D007A
:10F2600080F20300002000202801000004C10300F8
:10F27000A8F30300282100200017000020C103008C
:10F280000024F40000000000000000000000000066
:10F29000000000000000000000000000000000006E
:10F2A000000000000000000000000000000000005E
:10F2B000000000000000000000000000000000004E
:10F2C000000000000000000000000000000000003E
:10F2D000000000000000000000000000000000002E
:10F2E000000000000000000000000000000000001E
:10F2F000000000000000000000000000000000000E
:10F3000000000000000000000000000000000000FD
:10F3100000000000000000000000000000000000ED
:10F3200000000000000000000000000000000000DD
:10F3300000000000000000000000000000000000CD
:10F3400000000000000000000000000000000000BD
:10F3500000000000000000000000000000000000AD
:10F36000000000000000000000000000000000009D
:10F3700023EB0300E5E903000000000000000000AB
:10F38000000000000000000000000000000000007D
:10F390000000000001000000FFFF0000000000006E
:08F3A000000000000000000065
:020000041000EA
:0410140000C0030015
:040000050003C0C173
:00000001FF
