:020000040003F7
:10C000006034002085C2030097C2030099C2030078
:10C010000000000000000000000000000000000020
:10C020000000000000000000000000009BC20300B0
:10C0300000000000000000009DC203009FC203003A
:10C04000A1C20300A1C20300A1C20300A1C2030058
:10C05000A1C203000000000081DC0300A1C20300B4
:10C06000A1C20300A1C20300A1C20300A1C2030038
:10C07000A1C20300A1C20300A1C20300A1C2030028
:10C08000A1C203007FD50300A1C20300A1C2030027
:10C0900095D50300A1C203007DDE0300A1C2030009
:10C0A000A1C20300A1C203000000000000000000C4
:10C0B0000000000000000000000000000000000080
:10C0C00000F002F800F040F80CA030C8083824183E
:10C0D0002D18A246671EAB4654465D46AC4201D1C0
:10C0E00000F032F87E460F3E0FCCB64601263342B2
:10C0F00000D0FB1AA246AB46334318477C340000FD
:10C100009C340000103A02D378C878C1FAD852079C
:10C1100001D330C830C101D504680C6070470000FD
:10C120000023002400250026103A01D378C1FBD853
:10C13000520700D330C100D50B6070471FB5C04611
:10C14000C0461FBD10B510BD03F0BEF91146FFF784
:10C15000F5FF00F001F903F0D6F903B4FFF7F2FFA1
:10C1600003BC03F0DBF90000026882F3088843682F
:10C1700018470000401E00BF00BF00BF00BF00BF47
:10C1800000BF00BF00BF00BF00BF00BF00BFF1D1B4
:10C1900070470000401E00BF00BF00BF00BF00BFCF
:10C1A00000BF00BF00BF00BF00BF00BF00BFF1D194
:10C1B0007047000070B505460C46164602E00FCCED
:10C1C0000FC5103E102EFAD2082E02D303CC03C5A1
:10C1D000083E042E07D301CC01C5361F03E02178A9
:10C1E0002970641C6D1C761EF9D270BD10B500F06C
:10C1F0001DF8002805D01F491D484860C8131E4976
:10C2000088611E48018CC9B201290ED1818C0907B1
:10C210000BD1018D0906090F042906D1808D000676
:10C22000000F02D116490120886010BD1348018C0F
:10C23000C9B2012917D1818C090714D1018D0906D2
:10C240000A0F03D1828D1206120F0ED0090F012999
:10C2500003D1828D1206120F07D0032903D1808DDE
:10C260000006000F01D00020704701207047000039
:10C27000DFFF07C000050040006C0040C00F00F069
:10C28000000600400A48026803210A430260094888
:10C29000804709480047FEE7FEE7FEE7FEE7FEE7C6
:10C2A000FEE7000005480649064A074B70470000B4
:10C2B00024050040EDC10300C1C003006028002038
:10C2C00060340020602C0020602C00200120914967
:10C2D000C003886000F0D2F80A4601468E48FFF796
:10C2E000F5FF10B501F040FF10BD00B58B4B85B0D8
:10C2F0000FCB03936B4607C3684618DF002802D0B4
:10C3000087A2C02124E00F20800313DF002802D081
:10C3100083A2C3211CE0854B50228549082001F0EF
:10C3200089FD002802D07EA2C52111E000206946C7
:10C330000490087404A860DF002802D078A2CC2101
:10C3400006E07C4801F092FD002803D074A2CF21C2
:10C35000FFF7BCFF05B000BD08B5082000F096F857
:10C36000092000F093F80A2000F090F80F2000F068
:10C370008DF871480F2140698903884213D101204B
:10C38000000700690124A402A0420FD16B4800906D
:10C390006B4B05220321002001F022F900280AD06E
:10C3A0005FA29B2105E05EA2E52101E05CA2E621FF
:10C3B0000020FFF78BFF62490120143901F0A0FC37
:10C3C000002802D056A29021F3E703205D49000423
:10C3D000086000F049FC00F08FFC002811D000F04C
:10C3E000ADFC002802D04EA2F121E2E7FFF77DFF6D
:10C3F00000F068F800F0CBFC002806D048A2F72136
:10C40000D7E7FFF772FF00F05DF8424E30694E4DFE
:10C410000006C00F04D0A86800F072FB00280BD102
:10C42000B46000F032FC002803D0FF213CA20931A7
:10C43000BFE70A2000F031F8A86800F061FB00288F
:10C440000ED0082000F029F8092000F026F80A2074
:10C4500000F023F80F2000F020F8A86800F021FC7D
:10C46000082000F01AF8092000F017F80A2000F060
:10C4700014F80F2000F011F800F000F8BFF34F8F10
:10C4800033493248C860BFF34F8FFEE72D4A03217E
:10C4900080001C3A801801607047012181401D48CE
:10C4A000C16070471CB5019100902A4A0821684676
:10C4B00001F0FEFA1CBD10B50021274A084601F024
:10C4C000F7FA10BD1A4A10B550321421082001F0B5
:10C4D000DBFA002803D012A2D721FFF7F7FE10BD28
:10C4E00010B50246082905D0FF211CA21B310020EF
:10C4F000FFF7ECFE11685068884710BD10B50029A1
:10C5000004D023A299210020FFF7E0FE01F054FCA3
:10C5100010BD000000050050EFBEADDE44F5030085
:10C520002E2E5C6D61696E2E63000000B7C403009F
:10C5300048230020E3C2030000100010A5C403003C
:10C54000082100201C070050003000000400FA05FC
:10C5500000ED00E0E1C40300FDC403002E2E5C2EBC
:10C560002E5C2E2E5C2E2E5C2E2E5C2E2E5C496EAA
:10C57000636C7564655C6170705F636F6D6D6F6E29
:10C580005C6170705F74696D65722E6800000000F8
:10C590002E2E5C2E2E5C2E2E5C2E2E5C2E2E5C2ED5
:10C5A0002E5C496E636C7564655C73645F636F6D6C
:10C5B0006D6F6E5C736F66746465766963655F68E2
:10C5C000616E646C65722E680000000010460A46B9
:10C5D00010B5FD494C68042C03D1022A01D1002872
:10C5E00006D0002803D0F9A25521FFF76FFE10BD39
:10C5F0004A69002AFBD01946904710BD38B5F24D64
:10C60000012028700620009400F0B4FA38BD10B55F
:10C61000ED4C2078002801D0082010BD206901F0E1
:10C62000E3F8002803D0E9A27821FFF74FFE0F219D
:10C6300000228904206901F06DF8040003D0E3A210
:10C640007B21FFF743FE204610BDF0B5E5498BB0D6
:10C65000E348086003263603B0680F218903091AEE
:10C66000D94C49084718002565702146658020315E
:10C67000DC4801F031FF002823D121462031B06889
:10C68000486020390A46126A8A610F229203C86103
:10C69000121A520818318018486001A800F089FB6E
:10C6A0000398FE2802D13868401C12D00F20B168D0
:10C6B0008003401A4108C448183001F059FF00288F
:10C6C00002D065600BB0F0BD08A90EC9052000F0CE
:10C6D00051FABD48C44A0021103000F0D4FF0028B0
:10C6E00003D0BAA2AC21FFF7F1FD0F21002289048B
:10C6F000206901F00FF8002803D0B4A2B021FFF7A1
:10C70000E5FD0120E56060600020DBE7AE4948619F
:10C71000704708B50420009400F02CFAAA488168FC
:10C72000203001F025FF002803D0A8A2C921FFF77F
:10C73000CDFD08BD70B5AB4D4168503D8368C26802
:10C7400000696B60AA602960E8604C0703D58C071C
:10C7500009D1840707D1CC0701D09C0703D18C07EE
:10C7600003D5940701D0062070BD9B181818964C6D
:10C7700003231B03A0609E680F239B039B1B5E0883
:10C78000864201D2CE0707D0890703D50F2189023F
:10C790008A4201D8834201D20C2070BD6068012812
:10C7A00002D00826304670BDFFF731FF0600FAD1EF
:10C7B0002878C00702D0A068FFF7ABFF02206060B6
:10C7C000F0E770B5050004D0287A800703D0102068
:10C7D00070BD0E2070BD7C4C6068022805D0032817
:10C7E00003D0042803D0082070BD0420606068686E
:10C7F000A1688600E0688019884204D90020C043FF
:10C80000E0600C2070BDFFF702FF0028FAD17548E8
:10C81000A96850380078E368C007324602D06A48F9
:10C82000203001E06848183001F072FE0028E9D19C
:10C83000E1688919E160A2689142E3D0092070BDE6
:10C84000F8B5614C05466068022802D0032805D17E
:10C8500001E003206060E068002801D00820F8BDF6
:10C86000FFF7D5FE0028FAD15E4B0021403B08E0DF
:10C87000AA688E00965962789700521CDE51627049
:10C88000491C6A688A42F3D8F8BD70B54E4C60689E
:10C89000042805D105206060E168A068814201D0CC
:10C8A000082520E0FFF7B3FE05001CD14D48504E8F
:10C8B00050380078C1074D48806804D10F218903A2
:10C8C000091A490840180022A16801F051FA608055
:10C8D00061783088002904D06188814201D00B2022
:10C8E00070BD06206060284670BD70B5364D86B0BC
:10C8F0006868062803D00824204606B070BD286961
:10C9000000F072FF040003D030A23A49FFF7DEFCCA
:10C910003749002610390868C207002A01D00120D3
:10C9200008E0420703D500F09BF80446E4E78007DF
:10C93000E2D5032000906A886B469A804A6802928A
:10C940008A680392C968049113460091029A01997A
:10C9500000F010F93446CFE708B50720009400F046
:10C9600009F908BD00B58BB004A800F022FA0898B8
:10C9700000280CD0012000901C4880680190012004
:10C9800000030290089880080390684618DF0BB0F7
:10C9900000BD00B58BB004A800F00BFA0998002880
:10C9A000F5D0124808998068002903D10F21890326
:10C9B000091A49084018019000210998009180083F
:10C9C0000290684618DFE2E7042000202E2E5C6407
:10C9D00066755F6475616C5F62616E6B2E630000EB
:10C9E000CDC5030038250020FDC503000030000040
:10C9F000F82400201F02000000B58BB004A800F04E
:10CA0000D8F909980028C2D0032000030F21089A02
:10CA100089038068002A01D10A1A520880180290FE
:10CA2000032209980092800803900191684618DF5C
:10CA3000ADE700B58BB004A800F0BBF9089800285A
:10CA4000A5D00320009001200003019003200003E3
:10CA500080680290089880080390684618DF96E77F
:10CA600030B5134C85B01348E16801F081FD002812
:10CA700004D0FF21104AF331FFF728FC0D48E2688B
:10CA8000083841680023083001F042FD05000CD150
:10CA900008490090203949886A469180E1680491EC
:10CAA000009101A90EC900F065F8284605B030BD17
:10CAB000E824002024200020CCC9030010B5CA4877
:10CAC0000368012B02D1022900D10160100003D0BC
:10CAD000C6A23521FFF7FAFB10BD10B5C24C40DFEE
:10CAE000002803D0C1A24721FFF7F0FB01F056F860
:10CAF0002068022803D0032801D00428EFD110BDFC
:10CB000038B50068401C19D00024684600F082F94E
:10CB100000980168012910D1818800290AD0C168D4
:10CB2000032000038068002201F022F9009989881F
:10CB3000814201D1012400E00024204638BD10B517
:10CB40000446A9481C21001D01F08CFC002803D0DC
:10CB5000A6A27C21FFF7BAFBA34800231C22214692
:10CB6000001D01F0EEFB002803D0A0A28221FFF7F8
:10CB7000ADFB10BD0FB438B5684600F04BF9684600
:10CB8000818A049D9D480122FF23974C002D20D0CF
:10CB9000012D24D0032D36D00021022D42D02A466B
:10CBA000062D47D01346FE22042B4DD01946052BE7
:10CBB00051D0072909D101F0E4FD002803D08BA250
:10CBC000DE21FFF783FB0420206038BC08BC04B0E2
:10CBD00018478180089983600260C1600EE08180FF
:10CBE000079D06994919089D4919C160A5218360CF
:10CBF00001600699016107998561416122607F4862
:10CC0000FFF79DFFE1E700990B6803608B88838045
:10CC1000C968C160AA2181600699016107994161D3
:10CC2000089905E081800360C16001618360416112
:10CC30008161E3E701F0A5FD002803D06BA2C421C8
:10CC4000FFF744FB0320BFE781800260C1600099C9
:10CC500089688160D3E700990B6803608B888380C3
:10CC6000C9688260C160CAE70EB5654800901C20A3
:10CC700001900120029001F0DDFA002804D15A4908
:10CC80006846091D01F0FFFA0EBD10B5FFF7DDFC87
:10CC9000002805D101F07CFE0446FFF71EFF204668
:10CCA00010BD70B511DF002804D0FF214FA22E3136
:10CCB000FFF70CFB534900200B68524C01218034D4
:10CCC0000A4682401A4204D0C506ED0E0A46AA4022
:10CCD0002260401CC0B22028F2D303242403A068A1
:10CCE00013DF002804D0FF2140A23331FFF7EEFA12
:10CCF000A06800F08BF870BD38B50024684600F0DD
:10CD000089F800980168A52910D1818800290AD0E6
:10CD1000C168032000038068002201F029F800990F
:10CD20008988814201D1012400E0002400988068B4
:10CD3000AA2801D0204638BD012038BD10B5FFF724
:10CD400078FE002803D1FFF757FE00281ED064208C
:10CD500001F048FCFFF706FE002804D0FF2123A2C3
:10CD60006631FFF7B3FAFFF764FE002804D0FF2115
:10CD70001EA26931FFF7AAFAFFF70BFE040004D0E8
:10CD8000FF211AA26C31FFF7A1FA204610BD00B5B1
:10CD900087B014221C4901A8FFF70CFA05980090EF
:10CDA00001A80FC8FFF7E6FEFFF797FE002007B0C7
:10CDB00000BD10B50C4988B0044600231C22091D93
:10CDC000684601F001FB0098206068468088A080DA
:10CDD0000398E0600298A060049820610598606163
:10CDE0000698A06108B010BD2C2000202E2E5C6299
:10CDF0006F6F746C6F616465722E63004425002050
:10CE0000BDCA030000E100E054F5030010B5FFF7D0
:10CE1000ABF910BD014901607047000000FC030040
:10CE200030B585B0002822D00388FA4CA34220D028
:10CE3000F94B1B78002B1CD0F74B10255B1C1D7089
:10CE40005970002401259A70032269460A820094D1
:10CE5000019402940394C2890A808D708C8004A985
:10CE60000291039300886946A6DF05B030BD0E200D
:10CE7000FBE70820F9E7F0B589B0044602276846C9
:10CE800007700D468783608A08AB07AA0021A5DFDB
:10CE90000026002804D0616A00291AD0884718E0CB
:10CEA0006846008CC007C00F13D068468680208873
:10CEB0006946A8DF002812D1A97E284601221B302E
:10CEC0000B0002F032FB093F0E1E202224263D28D3
:10CED0003F00FF20FE30694688802088A8DF09B027
:10CEE000F0BD0496298B022902D26846067502E03D
:10CEF00069460A750690226A04A9204690470020D8
:10CF0000EDE70492F7E70497F5E7032014E0042027
:10CF100012E0052010E0298B032905D20322082105
:10CF20002046FFF77DFFDAE74178027808021043D8
:10CF30006946888202D006200490DCE70720FBE7E0
:10CF40000920F9E70322EBE730B585B00D46040070
:10CF500032D0002D30D0286800282DD00020C043CA
:10CF6000AE4B20800FCB049301AB07C3AC4869469E
:10CF70000880891C01A863DF00281CD1A21C694617
:10CF80000120A0DF002816D1684680782071204655
:10CF900000F0C0F800280ED1204600F0F9F8002873
:10CFA00009D1286820626868002800D060629A4928
:10CFB00001200870002058E70E2056E73EB50028F3
:10CFC00020D000291ED0026A002A1BD00A88102A0D
:10CFD00019D0112A28D0502A17D0512A12D104462C
:10CFE000891D087802280DD14888E289904209D12C
:10CFF000891C2046FFF73FFF002803D0616A002903
:10D0000000D088473EBD898810E0CA88C3889A420C
:10D01000F8D1082200928A7F6B461A712031029162
:10D02000026A694690473EBD0021C94301803EBD6A
:10D03000F0B585B00A4605002DD02888754988428C
:10D040002BD075480078002827D0734C1020641C22
:10D050002070072060700127A770032168460182B5
:10D060000026E11C104600F04CF801466846008A94
:10D070000918684601820096019602960396E9898E
:10D0800001808770868004A80394029028886946EE
:10D09000A6DF05B0F0BD0E20FBE70820F9E7F0B5EC
:10D0A00085B00A46050028D028885A49884226D0EB
:10D0B00059480078002822D0574C1120641C207059
:10D0C0000127684607820026611C104600F019F807
:10D0D00001466846008A0918684601820096019652
:10D0E00002960396E98901808770868004A80394DC
:10D0F000029028886946A6DFCBE70E20C9E7082002
:10D10000C7E70870020A4A70020C8A70000EC870E5
:10D110000420704730B58FB005461C21684602F0E8
:10D1200010F969460878042108436946087000240C
:10D1300001940394049405940694287908A98870AE
:10D1400037486946801C0884601C00070794000F5C
:10D150000C77103048778A7FF9200240921CE72034
:10D160000240012002438A77142109A802F0E9F85D
:10D1700008A8099007A80A9069468C851420CC85D8
:10D1800008860D946888AB1D09AAA2DF0FB030BDD8
:10D1900030B58FB005461C21684602F0D2F86946CA
:10D1A00008780821084310221043694608700024BB
:10D1B00001940394049405940694287908A988702E
:10D1C00017486946401C0884601C00070794000F3C
:10D1D0000C7710304877887FF9210840801CF721B0
:10D1E000084010430121084369468877142109A8A3
:10D1F00002F0A7F808A8099007A80A9069468C854C
:10D200001720CC8508860D942B4668880E3309AA12
:10D21000A2DFBBE7FFFF00003820002068F5030015
:10D22000301500004B48002101704C484A4A02600A
:10D230008160C160016108224161426081610846EC
:10D24000704710B500291DD000220A60434A536878
:10D25000002B1BD0202817D85B1E5360D0682423D6
:10D26000401CD060106914684343E3180B6001232D
:10D2700083409169401C19434007400F9161106140
:10D28000002010BD0E2010BD0C2010BD042010BDCC
:10D29000F0B5324A0646916800292BD05769102014
:10D2A000791A4907490F14680B4624254D4365191F
:10D2B000B54206D1012495698C40654000209561F6
:10D2C00004E0491C4907490F8F42EED1491C4E0723
:10D2D000760F956901210C469C402B4623420AD1CA
:10D2E0009368002B07D05B1E936053685B1C5360F0
:10D2F0003346F0E70420F0BD184A2423117C12685D
:10D30000491E4907490F59432031505000207047AA
:10D3100070B500281AD0002918D0104AD368002B05
:10D3200016D05B1ED360936824265B1C9360536900
:10D3300015681C467343EE1820330660E858641CD9
:10D3400008606007400F5061002070BD0E2070BD66
:10D35000042070BD40200020602500208026002091
:10D360008307FF22DB0E9A408907090E99400028A7
:10D370000BDA0007000F08388308FF489B001B18D2
:10D38000D86990430843D86170478308FB489B00E5
:10D390001B181868904308431860704770B5012443
:10D3A000F74960040860F74940108860F549403942
:10D3B0008860F54D6C602F20FEF7DCFEAC60F34D0D
:10D3C00000242F206C61FEF7D5FE2C7170BDF0B5E6
:10D3D000EE4F2821BC6841430D1939694A1C09D018
:10D3E00028224A431619AB68B268934204D8D21A6D
:10D3F000B26069623861F0BD0A4602E00A46796AA5
:10D400009B1B4E1C0BD028264E433719BE689E42EC
:10D41000F4D328264E433619B768FF1AB760AB60BD
:10D42000696228214A4311194862F0BDF8B5D74C0A
:10D430002569681C36D0D648002640686169401AC4
:10D4400007023F0A1AE028204543A0682A1890687E
:10D45000B84215D8A3693F1A8619556A002B0AD01D
:10D46000116AD0699847002808D0FF21C9A2643109
:10D47000FEF72CFF02E0D169106A8847681CE2D1F0
:10D48000A178E078814206D1401CC0B2E070022849
:10D4900001D10020E070BD490006800D1C310E5006
:10D4A00000F0CAF9F8BDF8B50446B8480169009122
:10D4B000467856E0B548F100C2688D184BE0601C14
:10D4C00007D0B24A282192686143204689184C6AE5
:10D4D00020E02878182141436A68401CC0B25218E5
:10D4E0002870A978884201D100202870A74B506885
:10D4F00028219B684143C9181368012B2DD10B7E4D
:10D50000002B2AD19368CB60D3680B6113694B6100
:10D5100052690A629D4ACF685369BC46FA1A1202E0
:10D52000A84F120ABA4202D20B69D21809E0624629
:10D530009A1A12020B69120A934201D99A1A00E050
:10D5400000228A600022CA600A6101220A76921EC5
:10D550004A62FFF73CFF601CB1D1287869788842A5
:10D56000ADD13046761EF6B20028A3D187480169B6
:10D570000098814201D00120F8BD0020F8BD9249F9
:10D580000020086048608860C8608F4940390860A2
:10D5900048604BE7F0B5002087B0C04302907B485D
:10D5A00046690569684600F04CF9074600F066F9DF
:10D5B0000446002F08D002AA3146009800F0A6F9D0
:10D5C0000298FFF770FF06E00298FFF76CFF002853
:10D5D00001D1002C02D0284600F0C1F907B0F0BDFF
:10D5E000FFB59807002481B01E4615460F46002857
:10D5F0000BD1002E09D0FFF7D1FE64490A9888614B
:10D600000F70324600208E6008E0072005B0F0BDA4
:10D6100028234343D4509B181C76401CB842F7DBA8
:10D6200028204743BB19032048700F461846CB609B
:10D6300019461830002218232E465E43D3005B188B
:10D640001C705C709D7058603018521C032AF5DB0A
:10D650000020C0433861BC70FC7001245B48240585
:10D66000046003211420FFF77BFE454880380460E6
:10D67000474C0198A06003211120FFF771FE6068FC
:10D6800078610020C2E770B5404CA568002D06D037
:10D69000002A06D0002804D00023247809E00820BE
:10D6A00070BD072070BD28265E43AE59002E04D001
:10D6B0005B1CA342F7DB042070BD282401265C43D9
:10D6C0002E516419E26161600360002070BD2A4937
:10D6D0004868C005C00D17D0103807D50207120FD3
:10D6E000083A920892005118C96904E08108234A57
:10D6F0008900891809688007C00EC1400806800F9C
:10D70000012803D0032803D002207047002070476F
:10D7100001207047FEB504461C48174682680D4636
:10D72000002A0CD001788C4201D2052D01D20720AD
:10D73000FEBD2146282359435358012B01D0082010
:10D74000FEBD8818406801284AD00026FFF7BFFFB9
:10D75000C0000E490190C9684018694600F045F9BB
:10D7600000283FD001214460016009494968083020
:10D77000E2C0064901982BE000ED00E000E400E083
:10D7800080E100E0401301400010014048200020EB
:10D79000001501402E2E5C2E2E5C2E2E5C2E2E5C53
:10D7A0002E2E5C2E2E5C536F757263655C617070FB
:10D7B0005F636F6D6D6F6E5C6170705F74696D65D6
:10D7C000722E6300FFFF7F004011014080E200E005
:10D7D000C96841180098487000F02EF80020FEBD7E
:10D7E0002E46B3E70420FEBDF8B5A14D0446A86857
:10D7F000002809D029788C4201D30720F8BD2821C0
:10D8000061434058012801D00820F8BDFFF75FFFB1
:10D81000C600E8686946301800F0E7F8002809D02B
:10D82000022112C0E86831180098487000F004F82E
:10D830000020F8BD0420F8BD01208E4900050860D5
:10D84000704710B58A4900238A78CC78A24212D05A
:10D85000521CD2B28A70022A00D18B708A78844B13
:10D8600092001C339A580260486910180002000A9E
:10D870004861012010BD0360002010BDF8B57C4850
:10D8800001690091457833E07948E900C0680E18D5
:10D8900034782AE0182060437168641C0818B17855
:10D8A000E4B2A14200D100240168022902D0032978
:10D8B0001BD113E06E4A40682821926841438F18BB
:10D8C000397E002911D000F0A2F8002038760CE053
:10D8D00028277843C0180276406A03E06449002292
:10D8E0008B680869471CF3D108617078A042D1D1D8
:10D8F00028466D1EEDB20028C6D15D48016900982A
:10D90000814201D00120F8BD0020F8BDF7B5584C88
:10D910000025A76823691EE028215943C9198E688C
:10D92000864202D9301A886017E0801B75190026DC
:10D930008E600E764E699C464B6AB646002E0AD023
:10D94000019E76193602360ACE6076460E6116685A
:10D950004E6261461160591CDED12361FEBDF8B5EF
:10D96000434801694A1C3DD02822514382688918E6
:10D970008E6841494C6847690079E11B0D022D0A08
:10D98000ED1C002815D101203C4A000450603B4AA0
:10D99000403A50603749400080310860384908609B
:10D9A0003849012008602F20FEF7E4FB30490120B0
:10D9B0000871B54200D23546E81900022E49000A26
:10D9C000403108602C494968001B091B0902090AFB
:10D9D0000002C91C000A814203D9012025494004E4
:10D9E0000860F8BDFFF7DAFCF8BD42788378521C76
:10D9F000934200D100220378934201D10020704766
:10DA00000A6041684078182250430818704770B582
:10DA1000174E3569B26829460C4606E0844207D0A5
:10DA2000254628235C43A3185C6A631CF6D170BDAD
:10DA3000002BFCD0A54208D1282041438818406A19
:10DA40003061401C01D1FFF7A9FCB1682820444394
:10DA50006018282382685D43406A6B185862431C33
:10DA6000E5D028235843401881688918816070BD2B
:10DA70004820002000E200E0001501404013014072
:10DA800000E100E00010014030B5CB0008339DB24A
:10DA900093070024002B01D0072030BD564B9A601D
:10DAA0005219DA605C701C7058809980002030BD7B
:10DAB000F7B5514C82B060880F4681426CD8002087
:10DAC000694608704E494D4E4868C005C00D16D0D5
:10DAD000103807D50207120F083A92089200511821
:10DAE000C96904E08108474A8900891809688007E4
:10DAF000C00EC1400806850F012D01D10AE00425A2
:10DB000068462EDF02280BD0002803D03EA2592100
:10DB1000FEF7DCFB6078A188884203D2401C02E05B
:10DB200072B6F7E700202278C0B2904207D066783C
:10DB30006078884201DA401C00E000206070012D0E
:10DB40000BD062B6684600782FDF022805D0002887
:10DB500003D02DA26121FEF7B9FB2848864219D0D7
:10DB6000A068F50004994151029900290CD0002FBA
:10DB70000AD060883A464643E068301801F082FBDC
:10DB8000A0682818878002E00021281881800020E2
:10DB900005B0F0BD0420FBE70920F9E70EB504E06D
:10DBA00068468188029A0098904702AA01A96846AF
:10DBB00000F003F80028F3D00EBD70B50E4B05241D
:10DBC0005D781E78B54215D01D781C789E88B442C9
:10DBD00001DA641C00E000241C705C88DE686C4381
:10DBE000A41904609B68E800C418A4880C80185825
:10DBF00000241060204670BD6C200020FFFF000054
:10DC000000ED00E000E400E02E2E5C2E2E5C2E2EB7
:10DC10005C2E2E5C2E2E5C2E2E5C536F757263650F
:10DC20005C6170705F636F6D6D6F6E5C6170705F73
:10DC30007363686564756C65722E6300F0B50022CD
:10DC40000123032636041F4697400C463C420FD062
:10DC5000C5682C463C420FD03446BD43C5603C4DA0
:10DC600097007D192F68B7432F602F6827432F60D7
:10DC7000521C202AE7D3F0BD012464043D43EDE7A4
:10DC8000F8B53448056934490020C863074632E0D6
:10DC900014213A464A434168806854180121B9402A
:10DCA000014226D0E068C64320686E4006403146F7
:10DCB0002046FFF7C3FF2748006968400CD00543A2
:10DCC000E0682168C0436840084001460090204653
:10DCD000FFF7B4FF009806433046A168A84301400F
:10DCE0002A4660683240104002460A4301D0226949
:10DCF00090477F1CFFB2194841788F42C8D3F8BDC6
:10DD000010B5002903D08A070024002A01D007207B
:10DD100010BD124A0B4651601070142154704143DB
:10DD20001846946001F00DFB00200D49C043886047
:10DD30000C48402101600C4A1068FF231B049843E3
:10DD40000B041843106009480160002010BD00005A
:10DD50000007005000050050406100407C2000207A
:10DD60000063004080E200E004E400E000E100E045
:10DD700010B50446002A02D01088002210E00A489C
:10DD8000FBE7030A00020343A05C584003061B0F95
:10DD900043401803584083B21806C00C5840521C28
:10DDA0008A42EED310BD0000FFFF000010B5084608
:10DDB0001146FEF791FA10BDF8B5394C20780028CD
:10DDC00037D02069002807D00026E068002805D059
:10DDD0000025002E04D013E00126F6E70125F8E720
:10DDE000684651DF052806D0002806D02DA26921FB
:10DDF000FEF76CFA04E0012602E0216900988847EA
:10DE0000002D12D1608869460880A06861DF05286E
:10DE100006D0002806D023A28021FEF757FA04E09E
:10DE2000012502E0E168A0688847002ED8D0002DC7
:10DE3000CFD0F8BD70B5002901D08C0701D00720E4
:10DE400070BD174C0125A16062802449636010DF1A
:10DE50000028F5D12570162026DF70BD002803D0DC
:10DE60000F49C860002070470E207047002803D07B
:10DE70000B490861002070470E20704710B5084814
:10DE80004068002808D08047002804D0FF2105A260
:10DE90003331FEF71BFA10BDFFF78EFF10BD0000F7
:10DEA000882000202E2E5C2E2E5C2E2E5C2E2E5CCA
:10DEB0002E2E5C2E2E5C536F757263655C73645FEF
:10DEC000636F6D6D6F6E5C736F66746465766963A6
:10DED000655F68616E646C65722E6300ADDD030082
:10DEE00018225043FA4A0021801801718160416173
:10DEF000012281610261C1607047FFB581B0F54CBC
:10DF0000049B039A054626691A4303200092002EBB
:10DF100003D1002A0ED0012222612769039A01262B
:10DF2000360792003B0001F000FB07270716294047
:10DF3000526127000222EFE77069326992B25043C2
:10DF4000326933691204920C9BB2594321DF0028D5
:10DF500012D102210FE0084620DF00280CD10399DE
:10DF6000002901D0032106E00499002916D129785F
:10DF7000042946D017E0216105B0F0BD706932690F
:10DF800092B25043326993B24B4301461846039A0A
:10DF900021DF0028F0D10499002901D00421EAE70B
:10DFA0002978042920D00521E5E7736930693669AD
:10DFB00080B2434368681B189B18B6B24E433018B2
:10DFC00080181946049A21DF0028E9D0D4E7306987
:10DFD00080B24843696880188A08696921DF00288F
:10DFE000CAD1009900290CD00621C4E770693169B3
:10DFF00089B24843316989B201F0B6F920DF0028BF
:10E00000BAD10721B7E7F8B5B14918230A780F202C
:10E010005A435418241DAF4922782669CF68022A32
:10E020001BD001252D07042A2AD0052A5BD1286997
:10E0300081B2304601F098F90146A36828699A191F
:10E0400080B24843101A8208606818188619286937
:10E050004B1C80B25843801B34E0B802626861698F
:10E06000121A0918A3683018181801239B029A4243
:10E0700002D2920821DF31E0FF22013221DF2DE0C0
:10E08000E268934914205043F4314018001D0BC836
:10E09000B04203D160685943814218D0022A16D099
:10E0A000286981B2304601F05FF90146286980B2E3
:10E0B0004843301A820828694B1C80B25843636871
:10E0C0009B19C01A83082046FFF717FF06E028694E
:10E0D00081B2304601F048F9C01920DF002802D192
:10E0E0007B4901228A70F8BDF8B5794C069E6578A7
:10E0F0000A2D1DD027787D19EDB20A2D01D30A3DD6
:10E10000EDB218277D432D192871AA6103C9EE606D
:10E11000AB6069612861A1780020002904D1FFF774
:10E1200072FF112800D100206178491C6170F8BD90
:10E130000420F8BD38B502466548182301785943D4
:10E14000081803690179022B0AD014246343604C38
:10E15000F434E4588368009383691030A04738BDD5
:10E160005C4B14331C68F5E7F8B5594B99780129D5
:10E1700014D1002557499D700A69082A05D0022844
:10E180000FD003280AD10D2006E0022807D00D7019
:10E1900000F012FA002801D0FFF7CCFFF8BD0D61A6
:10E1A000F6E74B48182403784A496343CC681818AB
:10E1B000641C001DCC600378022B05D14668A102C7
:10E1C000B14201D3012700E00027052B01D1072A26
:10E1D00003D00021042B02D003E00121FAE7072A33
:10E1E00003D00026042B02D007E00126FAE740689E
:10E1F000A302834201D3002A1AD0002031430143F5
:10E200003943C5D0334E28463561FFF793FF304C74
:10E210002078FFF765FEF5606078401E607020781A
:10E22000401CC0B220700A28B2D30A382070AFE771
:10E230000120E3E770B50025264C2548E5602561FF
:10E240000570457085702E463046FFF749FE761CF6
:10E250000A2EF9D301221207656051692846126916
:10E26000491E92B25143E560A1601949F4310D6035
:10E270008D600D61CD60174914310D6088800121DA
:10E280002170206170BDF0B5124A1378002B23D0A5
:10E29000002823D0002921D00368002B1ED00124A0
:10E2A000240743682569ADB2AB420FD8102B0DD3BC
:10E2B0008568002D0AD092685D436669AD182769AC
:10E2C000BFB27E43B54201D89B0709D00720F0BDFD
:10E2D0009C2600209C2000200820F8E70E20F6E76E
:10E2E000BE4D6B68012B1BD00B604A60194614258C
:10E2F0006943BB4D4E19726007686F504168B16049
:10E300008168F16041688068002541436D1C206987
:10E31000ADB280B2884205D2206980B2091A02E00B
:10E320000420D4E70021206980B28218206980B2DD
:10E330008842EBD9A9485B1C8260356143600020AC
:10E34000C5E7F8B50446A5481E46007815460F46B1
:10E35000002807D0002F07D0002C05D02068002807
:10E3600017D103E00820F8BD0E20F8BD9C480168D5
:10E3700000290ED0C268816840684A43101862685C
:10E38000904206D9002D04D0A94202D3A819884290
:10E3900001D90720F8BD384600F008F9002811D04F
:10E3A000304600F003F900280CD0606800F0FEF859
:10E3B000002807D02B463A46214602200096FFF758
:10E3C00093FEF8BD1020F8BDFFB5844881B00078F9
:10E3D0001F4616460D46002808D0002D08D001988B
:10E3E000002805D02868002817D103E00820C3E5DD
:10E3F0000E20C1E57A4C206800280ED0E168A068A4
:10E400006268414389186A68914206D9002E04D097
:10E41000B04202D3F119814201D90720ACE501983D
:10E4200000F0C4F800281BD0384600F0BFF80028E0
:10E4300016D0686800F0BAF8002811D06868324633
:10E44000C119019800F01EFF009628681421484366
:10E450002458002203212846019BA04700208BE579
:10E46000102089E5F8B505465C480F46007800287D
:10E4700005D0002D05D02868002821D103E0082010
:10E48000F8BD0E20F8BD564C00262068002817D095
:10E49000A168E068484361684118686881420FD903
:10E4A00000F084F800280DD029681422514309197E
:10E4B00068684A688968801A00F056FF002903D00E
:10E4C0000720F8BD1020F8BD3B4600222946042055
:10E4D0000096FFF709FEF8BD404A1278002A0DD0D9
:10E4E00000280DD000290BD00268002A08D03B4A32
:10E4F00014321368002B05D00420704708207047A1
:10E500000E20704702230B600068106000207047E7
:10E51000F8B5044631481E46007817460D460028D7
:10E5200007D0002D07D0002C05D0206802281BD171
:10E5300003E00820F8BD0E20F8BD2848143000681C
:10E54000002811D0084600F031F800280ED03046DF
:10E5500000F02CF8002809D03B462A46214602202C
:10E560000096FFF7C1FDF8BD0720F8BD1020F8BDEB
:10E5700008B51A4A1278002A05D0002805D002688A
:10E58000022A11D103E0082008BD0E2008BD134A5D
:10E5900014321268002A07D00B46002201460420DC
:10E5A0000092FFF7A1FD08BD072008BD800701D03C
:10E5B0000020704701207047094810B5F4384078B2
:10E5C0000024002807D0FFF71EFD040003D0112C03
:10E5D00001D0FFF7AFFD204610BD00009C200020B9
:10E5E0009027002031B5054C04E0401E00902046E5
:10E5F000FDF7D0FD00980028F7D138BDE7030000F3
:10E6000010B500280BD0FE48FE49808888420FD004
:10E61000132176DF00280BD0FBA2722106E008460A
:10E62000FEF736FE002803D0F7A27821FDF74EFE54
:10E6300010BD08280CD004DC002807D006280FD114
:10E6400008E00B280AD00C280AD105E00120704709
:10E65000022070470320704704207047042901D02E
:10E66000062070470520704710B50A46044603216E
:10E670001046FFF7DEFF024603212046FEF7D0FBDF
:10E68000002803D0E0A2BA21FDF720FE10BDF0B5AE
:10E69000054608790E4687B081070AD00322114645
:10E6A0002846FEF7BDFB00281FD0FF21D6A23D3132
:10E6B00043E0D34900901831FEF7C3FD010011D1AA
:10E6C000CF4CB168009AA06900F0DCFD0098FEF71D
:10E6D00013FE010006D1204669461830FEF718FEE9
:10E6E000010004D02846FFF7BFFF07B0F0BD0320AC
:10E6F0000190009880080290A069039001A8FEF79D
:10E7000060F807000BD0092F1AD0A069FEF7C0FDF2
:10E71000010002D02846FFF7A7FF3946E2E730792B
:10E72000616901224018606103212846FEF778FBE9
:10E730000028DAD0FF21B4A26D31FDF7C7FDD4E780
:10E74000307961694118616160780028CDD02089F5
:10E75000401E0004000C2081C7D12846FEF79FFC14
:10E76000002804D0FF21A8A27E31FDF7AFFDE0888C
:10E770002081BAE710B5FF21A3A2B931FDF7A6FDAC
:10E7800010BD10B59E4C9F49A088884208D0132127
:10E7900076DF002815D09CA2A149FDF797FD10E077
:10E7A000A07800280DD074DF002804D09C4996A2E0
:10E7B000FF39FDF78BFDFF209A490130C86000202A
:10E7C000A07000F0A0FA002804D095498EA209316B
:10E7D000FDF77CFD002010BD70B50D6804460120DA
:10E7E000874A2B0000F0A1FE0A303A3C061624505E
:10E7F000553F5923FEF749F80421FFF71AFF024657
:10E8000004212046FEF70CFB002810D0FF217EA239
:10E81000EB314AE0FFF7B5FF002804D0FF217AA2D0
:10E82000F131FDF753FDFEF760F8002809D170BD06
:10E83000FFF7A7FF002804D0FF2173A2FD31FDF7E9
:10E8400045FDFEF789F870BDD0600879002803D037
:10E8500088680078106170BD0420FBE7022000E0AA
:10E860000320D06070BDD2682046012A06D0022A5B
:10E8700007D0032AF6D1FFF70AFF70BD00F0FEF8BB
:10E8800070BD00F038F970BD50708888D08010815C
:10E8900070BD00205070D08070BD20465169FEF7D9
:10E8A000C7FB0028F8D058A25F49FDF70FFD70BDE7
:10E8B00010B5534CA07800280DD15C4873DF0028B8
:10E8C00004D0594950A21331FDF700FD0120554AEB
:10E8D00001029160A07010BD70B5494C0588A388F5
:10E8E000132D2CD00ADC524A4E49102D18D0112D70
:10E8F00015D1CA60207800281BD01CE0522D29D0E9
:10E90000552D0CD18079002809D11321184676DFC6
:10E91000002804D044493CA25C31FDF7D7FC70BD0F
:10E920008A60FF220132CA608088A0800020A07027
:10E9300070BDFFF7BDFF0020C043A08070BD304A0E
:10E9400018461C3200217FDF0028F7D036492EA25E
:10E950005431E2E7002211461846A9DF0028EDD025
:10E96000512129A2C900D8E710B5044600F0FCF9EE
:10E970002E4821461430FEF721FB2046FFF7ACFF5E
:10E9800010BD10B5BF2120A28900FDF79FFC10BD6E
:10E9900030B51B4887B00024C460264803250560B5
:10E9A000001D056023481C3005602348FFF756FA18
:10E9B000002861D12148FDF7A9FEFEF733FC0028AD
:10E9C0005AD100F0CBF81E4800901E48019017481D
:10E9D00069461430FEF7B8FA002804D010490AA29C
:10E9E0003B39FDF773FC00F0DDF81C21684600F0B0
:10E9F000A8FC15480190012080030094029025E0B6
:10EA0000B8200020FFFF00002E2E5C6466755F7446
:10EA100072616E73706F72745F626C652E6300005A
:10EA20004A0300000005005026020000A427002031
:10EA3000000200002007005069E9030001E603001E
:10EA4000D9E7030083E90300CD0C00006846057395
:10EA5000C48104747C4806900594684600F02FF940
:10EA6000002804D0FF21794AD031FDF72FFC00F0B7
:10EA7000CFF8FFF71DFF002007B030BD30B50546C9
:10EA800085B0087902220092714A0C28126901921D
:10EA900025D0042809D0032201212846FEF7C0F919
:10EAA00000281AD0694AD52115E088680021029112
:10EAB000039100F0BFF804906846FDF73BFE01218A
:10EAC000FFF7B7FD024601212846FEF7A9F9002805
:10EAD00003D05E4AF621FDF7F9FB05B030BD8C6826
:10EAE000204600F0A7F80290201D00F0A3F8039044
:10EAF00020460830DDE770B5044686B0012000905E
:10EB0000886802900879002283070FD08007800F61
:10EB10000422121A0020034606E00E79029D3618E0
:10EB2000B600401CAB51C0B29042F6D308798018B1
:10EB3000800801906846FDF783FE0221FFF779FD0A
:10EB4000024602212046FEF76BF9002804D0FF217F
:10EB50003E4A2931FDF7BAFB06B070BD0EB5112053
:10EB60006946087207223BA102A87CDF002803D077
:10EB7000364A3A49FDF7AAFB002000900C2269466C
:10EB800001900A8018224A808880FF209130C88036
:10EB900068467ADF002804D059212C4AC900FDF7C5
:10EBA00095FB0EBD10B592B00621684601712C4848
:10EBB0000179684681702B4901803C2102A800F050
:10EBC000C0FB0220029000246846447301210182A8
:10EBD00001A80590684681830890214602A800F0AC
:10EBE00033FA002804D01D49184A2831FDF76EFB7E
:10EBF0001B481421143800F0A4FB1948FF211438D5
:10EC000004704460047291310182448212B010BDDC
:10EC10000F491E201C310880887801221043E12210
:10EC200010400C30DF22104088700720C870102080
:10EC30000871704710B5044600F085FB0002E178CA
:10EC4000000A0906084310BD75E7030008EA03003F
:10EC5000B82000204466755465737400BE0200003D
:10EC6000B82700203015000038B56749674A488842
:10EC700090420FD04A78664C521CD2B24A70237B25
:10EC8000934208D3083175DF002803D0A169002919
:10EC900000D0884738BD00254D70217C002907D061
:10ECA0003B2176DF002803D0A169002900D08847E6
:10ECB00061690029EED068460095884738BD70B577
:10ECC000054601461C225248FDF774FA4E4C0026B8
:10ECD00026702968002907D00822A01800F0D2FA6F
:10ECE000204608307ADF02E0474808307BDF002802
:10ECF00008D1401E608044486670464A0021001DCD
:10ED0000FEF7C1FC70BD10B53F484068FEF76CFDD2
:10ED100010BDF8B53C48103000F069F800263A4DB7
:10ED20003B4C002806D06169002919D001200090D1
:10ED3000684614E02878002804D0616900290FD0C3
:10ED40000096F5E7687800280CD0A1680022686872
:10ED5000FEF7E0FC002803D0A169002900D0884715
:10ED60002E70F8BD6168F1E7F8B5294C02880027DC
:10ED7000254DE689102A18D029464968112A21D044
:10ED8000122A2DD0502A0FD1801D0288B2420BD1F9
:10ED9000028B022A08D1C27E837E10021843C0076C
:10EDA000C00F13D0FFF7B5FFF8BD81886980014619
:10EDB000154808220E31103000F064FA6F70002EF2
:10EDC000F0D0F8BD0020C04368806F700846FEF7A1
:10EDD0000BFD0028F5D0A1690029F2D08847F8BDC5
:10EDE000811D09480822103000F04CFADAE741880A
:10EDF000054808300288914204D34088814201D8F6
:10EE00000120704700207047DC200020FFFF000039
:10EE1000E027002069EC0300FFB583B0074600201F
:10EE20000C9C8646267805463AE07868A900411889
:10EE30000A88684682804988C1800022694601A804
:10EE400065DF002810D1684601780598814226D1F7
:10EE50007046002801D0002200E0022220788918A4
:10EE600041181F2902D90C2007B0F0BD71460029B6
:10EE700008D1401CC0B2411C069B049A21701A5450
:10EE800001208646217806980A18694601A865DFA0
:10EE90000028E9D1694620780978401820706D1C57
:10EEA0003888A842C1DC7046002804D02078069932
:10EEB000801B401E88550020D6E7F8B51546069CF5
:10EEC0001E46074602220094FFF7A6FF002806D13F
:10EED00033461022294638460094FFF79DFFF8BDBF
:10EEE000F7B582B000260546167000681446002863
:10EEF00005D02846039900F0DFF806002DD1687987
:10EF000000281BD02078039F001D1F2824D86846A6
:10EF100079DF002821D121780322481C20707A54FF
:10EF200021781922481C20707A542078C11968462B
:10EF3000008800F0BCF82178401820702989002949
:10EF400023D001208446EA680398002A07D022785B
:10EF500053189B1C1F2B04D90C2005B0F0BD0720B3
:10EF6000FBE71346521C491C2270C15422786746A5
:10EF7000511C2170875423782A891818E96800F0F9
:10EF800081F92078297A401820702869002815D046
:10EF90000021415622788C46D01C03991F28DBD8CB
:10EFA000501C022320708B5422780A23501C20709E
:10EFB0008B5420786246431C23700A54A88A002888
:10EFC00009D028460094062202211430039BFFF743
:10EFD00074FF0600C1D1A88B002809D028460094F0
:10EFE000072203211C30039BFFF767FF0600B4D103
:10EFF000A88C002809D0284600941522142124301A
:10F00000039BFFF75AFF0600A7D1E86A002805D046
:10F010002246039900F085F806009ED1286B00284F
:10F0200005D02246039900F0BBF8060095D13820A0
:10F03000405D002806D022462846039900F0E2F8F9
:10F0400006008AD1304688E770B50D4692B000219F
:10F050006A46117007241171002812D00189002915
:10F0600005D0C168002902D00978490702D420469A
:10F0700012B070BD02A9FFF733FF0028F8D102AE2D
:10F0800000E00026002D0BD028890028EFD101AA2E
:10F090000AA92846FFF724FF0028E9D10AAA00E0C0
:10F0A0000022684603790178304672DFE0E7087095
:10F0B000000A487002207047F8B514780746A01C73
:10F0C00015460E461F2803D83879801C1F2801D901
:10F0D0000C20F8BD1D20001B80B2694686460880C2
:10F0E0003019801C7DDF0028F3D13868022805D153
:10F0F00068460088704501D8092107E03879082161
:10F10000002801D0704501D968460088421C32555C
:10F11000641CE2B2B1542978801C081828700020C1
:10F12000F8BDF8B50D4611780646881D14461F280F
:10F1300001D90C20F8BD33880720062BFAD31927F4
:10F14000FF01BB4202D94E4A9342F3D17288062A8C
:10F15000F0D3BA4202D94A4FBA42EBD1484FBB4230
:10F1600003D0BA4201D09342E4D8481C0522207053
:10F170006A5420781222411C21702A5420784119A7
:10F180003088FFF794FF21784018C0B220704119F1
:10F190007088FFF78CFF2178401820700020F8BDA0
:10F1A00070B5054600790E46801C1446C0B2117831
:10F1B000821C8A181F2A01D90C2070BD0A46491CDE
:10F1C000401C2170B0542078FF22411C2170325421
:10F1D000207881192888FFF76AFF21784018C0B28B
:10F1E0002070AA88002A09D0A968002908D08019AF
:10F1F00000F048F82078297940182070002070BD70
:10F20000072070BDF7B582B002981446406B0F46D8
:10F21000002832D0029800252030009028E0029883
:10F22000416B0C2068430E18217830794A1CC01CB1
:10F230002270785421781622481C20707A54207845
:10F24000C1193088FFF733FF21784018C0B2207011
:10F25000B288002A09D0B16800290ED0C01900F088
:10F2600011F820783179401820706D1C0098EDB2AB
:10F27000007EA842D3D800206FE607206DE600008C
:10F28000FFFF0000F8B5042A2CD3830712D00B78B7
:10F29000491C0370401C521E83070BD00B78491C7D
:10F2A0000370401C521E830704D00B78491C037066
:10F2B000401C521E8B079B0F05D0C91ADF0020236C
:10F2C000DE1B08C90AE0FCF775FFF8BD1D4608C93A
:10F2D000FD401C46B4402C4310C0121F042AF5D236
:10F2E000F308C91A521EF0D40B78491C0370401C55
:10F2F000521EEAD40B78491C0370401C521EE4D401
:10F3000009780170F8BD01E004C0091F0429FBD28F
:10F310008B0701D50280801CC90700D0027070479E
:10F3200000290BD0C30702D00270401C491E0229DD
:10F3300004D3830702D50280801C891EE3E70022E4
:10F34000EEE70022DFE70378C27819464378120619
:10F350001B0219438378C0781B0419431143090227
:10F36000090A000608437047002203098B422CD388
:10F37000030A8B4211D300239C464EE003460B4305
:10F380003CD4002243088B4231D303098B421CD367
:10F39000030A8B4201D394463FE0C3098B4201D359
:10F3A000CB01C01A524183098B4201D38B01C01A91
:10F3B000524143098B4201D34B01C01A5241030908
:10F3C0008B4201D30B01C01A5241C3088B4201D3B7
:10F3D000CB00C01A524183088B4201D38B00C01A64
:10F3E000524143088B4201D34B00C01A5241411A8B
:10F3F00000D201465241104670475DE0CA0F00D06E
:10F400004942031000D34042534000229C46030966
:10F410008B422DD3030A8B4212D3FC22890112BAEC
:10F42000030A8B420CD3890192118B4208D38901C4
:10F4300092118B4204D389013AD0921100E08909DC
:10F44000C3098B4201D3CB01C01A524183098B42BD
:10F4500001D38B01C01A524143098B4201D34B01A6
:10F46000C01A524103098B4201D30B01C01A524109
:10F47000C3088B4201D3CB00C01A524183088B4290
:10F4800001D38B00C01A5241D9D243088B4201D319
:10F490004B00C01A5241411A00D201466346524104
:10F4A0005B10104601D34042002B00D54942704703
:10F4B00063465B1000D3404201B50020C046C04601
:10F4C00002BD704770477047754600F023F8AE469E
:10F4D000050069465346C008C000854618B020B5EF
:10F4E000FCF7E0FE60BC00274908B6460026C0C510
:10F4F000C0C5C0C5C0C5C0C5C0C5C0C5C0C5403DEC
:10F5000049008D4670470446C046C0462046FCF779
:10F5100024FE000000487047FC2700200149182005
:10F52000ABBEFEE726000200704730B47446641E8E
:10F530002578641CAB4200D21D46635D5B00E31876
:10F5400030BC18470200000000000000000000006E
:10F5500000000000020000000000000000000000A9
:10F56000000000000000000023D1BCEA5F782315F2
:10F57000DEEF12120000000098F5030000200020CA
:10F58000F400000004C103008CF60300F420002006
:10F590006C13000020C103000024F40000000000F0
:10F5A000000000000000000000000000000000005B
:10F5B000000000000000000000000000000000004B
:10F5C000000000000000000000000000000000003B
:10F5D000000000000000000000000000000000002B
:10F5E000000000000000000000000000000000001B
:10F5F000000000000000000000000000000000000B
:10F6000000000000000000000000000000000000FA
:10F6100000000000000000000000000000000000EA
:10F6200000000000000000000000000000000000DA
:10F6300000000000000000000000000000000000CA
:10F6400000000000000000000000000000000000BA
:10F6500000000000FFFF00000000000000000000AC
:10F66000000000000000000000000000000000009A
:10F67000000000000000000000000000000000008A
:0CF680000000000000000000000000007E
:020000041000EA
:0410140000C0030015
:040000050003C0C173
:00000001FF
