:020000021000EC
:106000000040002031040200790402007B040200F9
:106010000000000000000000000000000000000080
:106020000000000000000000000000007D040200ED
:1060300000000000000000007F0402008104020054
:10604000830402008304020083040200830402002C
:106050008304020000000000C9F90100830402006B
:10606000830402008304020083040200830402000C
:1060700083040200830402008304020083040200FC
:106080008304020055B90100830402008304020066
:10609000A1B90100830402003D95010083040200C0
:1060A00083040200830402000000000000000000DE
:1060B00000000000000000000000000000000000E0
:1060C00010B5064C2378002B07D1054B002B02D0CE
:1060D000044800E000BF0123237010BD4C240020C1
:1060E00000000000580D020008B5084B002B03D03B
:1060F0000748084900E000BF07480368002B03D0A9
:10610000064B002B00D0984708BDC0460000000099
:10611000580D0200502400204824002000000000F8
:10612000164B002B00D1144B9D46402292029A1A26
:10613000924600218B460F461348144A121A0AF061
:10614000DFFA0F4B002B00D098470E4B002B00D0EE
:1061500098470020002104000D000D48002802D0BF
:106160000C480AF0F5FB0AF0EDF92000290001F0D7
:10617000AFF90AF0D7F9C04600000800004000203F
:1061800000000000000000004C2400202C2E002005
:10619000510902006109020080B582B000AF021C03
:1061A000FB1D1A70FB1D1B787F2B16D9164AFB1D91
:1061B0001B78191C0F230B40083B9B0806339B00E0
:1061C000D3185A68FB1D1B78191C03230B40DB00F6
:1061D000DA40FF2313409B0911E00C4BFA1D1278A3
:1061E00052B29208C0329200D258FB1D1B78191C83
:1061F00003230B40DB00DA40FF2313409B09181CEC
:10620000BD4602B080BDC04600ED00E000E100E008
:1062100080B582B000AF7860A023DB057A68C13218
:10622000FF3292000321D150BD4602B080BDC0466E
:1062300080B582B000AF7860FB1C1970BB1C1A706F
:10624000A023DB05BA1C12781204111CFA1C127868
:10625000920011437A68C132FF329200D150BD469C
:1062600002B080BD80B582B000AF7860A023DA05AF
:106270007B6801219940A123DB00D150BD4602B0CB
:1062800080BDC04680B582B000AF7860A023DA053B
:106290007B6801219940024BD150BD4602B080BDC0
:1062A0000C05000080B582B000AF7860A023DA054D
:1062B000A223DB00D2587B68DA4001231340181C6C
:1062C000BD4602B080BDC04670DF7047181CC04696
:1062D00071DF7047181CC04672DF7047181CC0463B
:1062E00073DF7047181CC04674DF7047181CC04627
:1062F00075DF7047181CC04676DF7047181CC04613
:1063000077DF7047181CC04678DF7047181CC046FE
:1063100079DF7047181CC0467ADF7047181CC046EA
:106320007BDF7047181CC0467CDF7047181CC046D6
:106330007DDF7047181CC0467EDF7047181CC046C2
:106340007FDF7047181CC04680DF7047181CC046AE
:1063500081DF7047181CC04682DF7047181CC0469A
:1063600083DF7047181CC04684DF7047181CC04686
:10637000B0DF7047181CC046B1DF7047181CC0461C
:10638000B2DF7047181CC04690DF7047181CC0462B
:1063900091DF7047181CC04692DF7047181CC0463A
:1063A00093DF7047181CC04694DF7047181CC04626
:1063B00095DF7047181CC04696DF7047181CC04612
:1063C00097DF7047181CC04698DF7047181CC046FE
:1063D000A0DF7047181CC046A1DF7047181CC046DC
:1063E000A2DF7047181CC046A3DF7047181CC046C8
:1063F000A4DF7047181CC046A5DF7047181CC046B4
:10640000A6DF7047181CC046A7DF7047181CC0469F
:10641000A8DF7047181CC046A9DF7047181CC0468B
:10642000AADF7047181CC04660DF7047181CC046C2
:1064300061DF7047181CC04662DF7047181CC046F9
:1064400063DF7047181CC04664DF7047181CC046E5
:1064500065DF7047181CC04666DF7047181CC046D1
:1064600067DF7047181CC04668DF7047181CC046BD
:1064700069DF7047181CC04623DF7047181CC046F0
:1064800024DF7047181CC04625DF7047181CC04623
:1064900026DF7047181CC04627DF7047181CC0460F
:1064A00028DF7047181CC04629DF7047181CC046FB
:1064B0002ADF7047181CC0462BDF7047181CC046E7
:1064C0002CDF7047181CC0462DDF7047181CC046D3
:1064D0002EDF7047181CC0462FDF7047181CC046BF
:1064E00030DF7047181CC04631DF7047181CC046AB
:1064F00032DF7047181CC04635DF7047181CC04695
:1065000036DF7047181CC04633DF7047181CC04682
:1065100034DF7047181CC04637DF7047181CC04670
:1065200038DF7047181CC04639DF7047181CC0465A
:106530003ADF7047181CC0463BDF7047181CC04646
:106540003CDF7047181CC0463DDF7047181CC04632
:106550003EDF7047181CC0463FDF7047181CC0461E
:1065600041DF7047181CC04642DF7047181CC04608
:1065700043DF7047181CC04640DF7047181CC046F8
:1065800044DF7047181CC04645DF7047181CC046E2
:1065900046DF7047181CC04647DF7047181CC046CE
:1065A00048DF7047181CC04649DF7047181CC046BA
:1065B0004ADF7047181CC0464BDF7047181CC046A6
:1065C0004CDF7047181CC0464DDF7047181CC04692
:1065D00051DF7047181CC04652DF7047181CC04678
:1065E00021DF7047181CC04620DF7047181CC046CA
:1065F00022DF7047181CC0464EDF7047181CC0468B
:106600004FDF7047181CC04650DF7047181CC0464B
:1066100010DF7047181CC04611DF7047181CC046B9
:1066200012DF7047181CC04613DF7047181CC046A5
:1066300080B582B000AF0C4B5B68DB05DB0D7B6087
:106640007B68002B0BD07B68103B3B603B68DBB268
:106650005BB2181CFFF7A0FD031CDBB200E00423B3
:10666000181CBD4602B080BD00ED00E080B58CB0C6
:1066700000AFF860B9607A603B1C173300221A70D3
:10668000FFF7D6FF031CFB62FB6A012B17D03B1CF4
:106690001733181CFFF71CFF031CBB62BB6A022BDD
:1066A00001D172B60BE0BB6A7B627B6A002B06D01D
:1066B0007A6A174B101CA5211A1CFFF7D7FF0A2076
:1066C000FFF7A6FD0A20FFF7CDFD01233B623B6AE1
:1066D000002BFCD1FB6A012B17D062B63B1C173391
:1066E0001B78181CFFF7F8FE031CFB61FB69022BEB
:1066F0000BD0FB69BB61BB69002B06D0BA69044BA8
:10670000101CB1211A1CFFF7B1FFBD460CB080BDB3
:106710006C0A020080B582B000AF021C3960BB1D5C
:106720001A80BB1D1A8805493B68081C111C1A1CDD
:10673000FFF79CFFBD4602B080BDC046EFBEADDE98
:1067400080B582B000AF154A154B101C191C02F021
:10675000D3FB021CFB1D1A70124AFB1D1B78101C78
:10676000191C01F0BDFD031C3B603B68002B11D0E0
:106770003B68082B0ED03A680B4B9A420AD03A6815
:106780000A4B9A4206D03A68094B101CD8211A1CB1
:10679000FFF76CFFBD4602B080BDC046F424002068
:1067A000E42400207C240020043000000134000098
:1067B0006C0A020080B582B000AF7860FFF7C0FFBE
:1067C000BD4602B080BDC04680B584B000AF7860E1
:1067D0001F4A204B101C191C02F08EFB021C3B1C94
:1067E0000E331A801C4B1B685A1C1B4B1A601B4A29
:1067F0003B1C0E331B88101C191C02F0D1F9031C22
:10680000BB60BB68002B14D0BB68082B11D0BA68E2
:10681000134B9A420DD0BA68124B9A4209D0B9680C
:1068200006231A1CFF32104B081C111C1A1CFFF700
:106830001DFF094B1B68181C032109F067FE0B1C88
:106840005A1E9341DAB2094B1A70BD4604B080BD9E
:106850000C250020FC24002040250020942400204A
:1068600004300000013400006C0A02000620002001
:1068700080B584B000AF78600C4B1B78002B11D032
:106880000B4A0C4B101C191C02F036FB021C3B1C63
:106890000E331A80084A3B1C0E331B88101C191C2F
:1068A00002F0E0F9BD4604B080BDC04606200020DD
:1068B00024250020142500209424002080B582B0D7
:1068C00000AF78600B4B1B785A1E9341DBB201225C
:1068D0005340DBB21A1C01231340DAB2054B1A7085
:1068E000044B1B78044A101C191C02F015FABD4613
:1068F00002B080BD442500209424002080B500AF64
:106900000820FFF785FC0920FFF782FC0F20FFF726
:106910007FFCBD4680BDC04680B58AB002AF3C4B0F
:106920000022009200200621052205F03FF8031CFA
:10693000FB61FB69BB61BB69002B08D0B969A62369
:106940005A00344B081C111C1A1CFFF78FFE324AE8
:10695000324B101C01211A1C05F0E0F8031C7B616E
:106960007B693B613B69002B08D03969A9235A0038
:10697000284B081C111C1A1CFFF778FE284A294BCB
:10698000101C01211A1C05F0C9F8031C7B617B69EE
:10699000FB60FB68002B09D0F96858231A1CFF32F2
:1069A0001C4B081C111C1A1CFFF760FE1E4A1F4BD3
:1069B000101C01211A1C05F0B1F8031C7B617B69D6
:1069C000BB60BB68002B08D0B968AE235A00114BDE
:1069D000081C111C1A1CFFF749FE154A154B101C08
:1069E00001211A1C05F09AF8031C7B617B697B600E
:1069F0007B68002B09D0796862231A1CFF32054B93
:106A0000081C111C1A1CFFF731FEBD4608B080BDE2
:106A1000482500206C0A02002C250020B5670100E3
:106A200030250020C967010034250020716801006D
:106A300038250020BD68010080B588B000AF3B1D3F
:106A40001A780F218A4301210A431A703B1D1978D5
:106A50000F220A4010210A431A703A1D2E4B101CB7
:106A6000191C0A22FFF760FC031CFB61FB69BB6178
:106A7000BB69002B09D0B96976231A1CFF32274B5A
:106A8000081C111C1A1CFFF7F1FD254B181CFFF701
:106A90003BFC031CFB61FB697B617B69002B08D01D
:106AA0007969BC235A001D4B081C111C1A1CFFF7E6
:106AB000DDFD3B1C0833181C0021082209F020FED4
:106AC0003B1C0833C82252001A803B1C0833C822E2
:106AD00092005A803B1C083300229A803B1C0833EA
:106AE000C8225200DA803B1C0833181CFFF714FC44
:106AF000031CFB61FB693B613B69002B08D03969D2
:106B0000C1235A00054B081C111C1A1CFFF7AEFDCF
:106B1000BD4608B080BDC046780A02006C0A02007B
:106B20004103000080B594B000AF3B1C0F33062238
:106B30001A703A1C2B4B111C1A1C0C23081C111C1C
:106B40001A1C09F049FD3B1C1033181C0021382287
:106B500009F0D6FD3B1C103302221A703B1C103387
:106B600001229A703B1C103301229A803B1C103387
:106B70003A1C0F329A603B1C103303221A833B1CD1
:106B800010333A1CDA613B1C1033181C002103F04F
:106B9000BDFA031CFB64FB6CBB64BB6C002B09D00F
:106BA000B96CA4231A1CFF320F4B081C111C1A1CB1
:106BB000FFF75CFD0D4B181C0021142209F0A0FD0D
:106BC0000A4B00221A70094B00225A60074B002220
:106BD0001A72064B28221A82044BB4225A82BD46EE
:106BE00014B080BD840A02006C0A020068240020F0
:106BF00080B5A0B000AFFB1DDE221A703B1C5C33D9
:106C0000181C0021142209F07BFD3B1C5C33002280
:106C10001A603B1C5C3301221A713B1C5C33FA1D69
:106C20009A603B1C5C331A7B0F218A4301210A4383
:106C30001A733B1C5C33197B0F220A4010210A4354
:106C40001A733B1C5C335A7B0F218A435A733B1CDB
:106C50005C33597B0F220A405A733B1C5C339A7B8E
:106C60000F218A439A733B1C5C33997B0F220A40A5
:106C70009A733B1C5C33DA7B0F218A4301210A4360
:106C8000DA733B1C5C33D97B0F220A4010210A4384
:106C9000DA733B1C5C331A7C0F218A431A743B1C49
:106CA0005C33197C0F220A401A74634A3B1C5C3324
:106CB000101C191C01F01EFF031CFB67FB6FBB6758
:106CC000BB6F002B09D0B96FF6231A1CFF325B4B48
:106CD000081C111C1A1CFFF7C9FC3B1C4833181C6C
:106CE0000021142209F00CFD3B1C48335A7B0F2174
:106CF0008A4301210A435A733B1C4833597B0F22B4
:106D00000A4010210A435A733B1C48339A7B0F21D7
:106D10008A4301210A439A733B1C4833997B0F2213
:106D20000A4010210A439A733B1C4833DA7B0F2137
:106D30008A43DA733B1C4833D97B0F220A40DA734B
:106D40003B1C48331A7C0F218A4301210A431A74E1
:106D50003B1C4833197C0F220A4010210A431A7445
:106D60003B1C483300221A603B1C483301221A7135
:106D70003B1C483300229A603B1C483364221A7340
:106D80002F4A3B1C4833101C191C01F06FFA031CDE
:106D9000FB67FB6F7B677B6F002B07D0796F294AFE
:106DA000264B081C111C1A1CFFF760FC3B1C083307
:106DB000181C0021402209F0A3FC3A1C0832224B87
:106DC000101C191C02F068F83A1C08323C23D15CF4
:106DD0000F20814301200143D1543A1C08323C2347
:106DE000D05C0F21014010200143D1543A1C0832DD
:106DF0003D23D15C0F208143D1543A1C08323D23FE
:106E0000D05C0F210140D1543B1C0833181C00F00A
:106E100031FE031CFB67FB6F3B673B6F002B07D00A
:106E2000396F0A4A054B081C111C1A1CFFF71EFC7F
:106E3000BD4620B080BDC046942400206C0A0200EC
:106E40007C24002007020000900A020012020000C9
:106E500080B500AF1C4B51221A601B4B64225A6054
:106E6000194B01229A60184B01221A73174A164BCC
:106E7000101C191C02F024F8154B8C221A60144BBC
:106E8000962252005A60124B0A229A60104B00223E
:106E90001A73104A0E4B101C191C02F011F80E4BFD
:106EA00064221A600C4BFA2252005A600A4B0122EB
:106EB0009A60094B00221A73084A074B101C191CD0
:106EC00001F0FEFFBD4680BDE4240020F424002034
:106ED000FC2400200C25002014250020242500205F
:106EE00080B586B000AF314B1A6880235B02101C5E
:106EF000191C002204F08AFE031C7B617B693B6144
:106F00003B69002B07D03969294A2A4B081C111C00
:106F10001A1CFFF7ABFB284B1A6880231B02101CBE
:106F2000191C002204F072FE031C7B617B69FB606C
:106F3000FB68002B07D0F968204A1E4B081C111C67
:106F40001A1CFFF793FB1E4B1A681E4B101C191CD2
:106F5000002204F05BFE031C7B617B69BB60BB68A5
:106F6000002B08D0B96894239A00124B081C111CFE
:106F70001A1CFFF77BFB144B1A68A0239B02101C02
:106F8000191C002204F042FE031C7B617B697B60BC
:106F90007B68002B07D079680C4A064B081C111C33
:106FA0001A1CFFF763FBBD4606B080BD2C250020F0
:106FB0004A0200006C0A0200302500204D02000049
:106FC00034250020662600003825002053020000EA
:106FD00080B584B000AF3B1C181C06F0D1F8031C30
:106FE000FB60FB68BB60BB68002B07D0B968134A25
:106FF000134B081C111C1A1CFFF738FB3B68002BB5
:1070000003D0104B01221A7015E00F4B181CFFF72C
:1070100067F9031CFB60FB687B607B68002B07D073
:1070200079680A4A064B081C111C1A1CFFF71EFB44
:107030000820FFF717F9BD4604B080BD61020000CB
:107040006C0A02003D250020682400206A0200002E
:1070500080B584B000AF78607B681B78002B14D1BA
:107060000B4B1B88181C3B21FFF746F9031CFB60E8
:10707000FB68BB60BB68002B07D0B968054A064BAC
:10708000081C111C1A1CFFF7F1FABD4604B080BDA4
:1070900004200020810200006C0A020080B582B04A
:1070A00000AF78607968A3239A00044B081C111C78
:1070B0001A1CFFF7DBFABD4602B080BD6C0A020065
:1070C00080B58AB000AF3B1D181C00211C2209F0BE
:1070D00017FB3B1D00221A603B1DA02292025A6042
:1070E0003B1DF02212039A603B1D03221A73114BC1
:1070F0009A893B1DDA813B1D00221A743B1D0E4A02
:107100005A613B1D0D4A9A613B1D181C03F05CFA45
:10711000031C7B627B6A3B623B6A002B07D0396AA7
:10712000074A084B081C111C1A1CFFF79FFABD46A2
:107130000AB080BD94240020517001009D700100B0
:10714000A30200006C0A020080B584B000AF786032
:107150007B681B88112B0FD0192B13D0102B00D05C
:107160002AE00920FFF77EF80820FFF78BF87B68FC
:107170009A88134B1A801FE00920FFF783F8FFF766
:1071800027FF19E07B689B79002B14D10820FFF7BB
:1071900079F8FFF7BDF9031CFB60FB68BB60BB68B7
:1071A000002B08D0B968074A074B081C111C1A1C91
:1071B000FFF75CFAFFE7C046BD4604B080BDC0469D
:1071C00004200020C60200006C0A020080B582B0D4
:1071D00000AF78607B68023B012B0AD8074B1B7815
:1071E000002B05D0054B00221A70FFF7F1FE01E0DD
:1071F00000E0C046BD4602B080BDC0463D2500202F
:1072000080B582B000AF78607B68181C07F0F2FD93
:107210000B4A7B68101C191C01F040FA094A7B6874
:10722000101C191C00F09CFE7B68181C03F02AFB44
:107230007B68181CFFF788FFBD4602B080BDC046C2
:10724000942400207C24002080B582B000AF7860B8
:107250007B68181C04F0C8FF7B68181CFFF7B6FF9A
:10726000BD4602B080BDC04680B588B000AF2F4B90
:107270000820191C5022002302F0DEF8031CFB61D9
:10728000FB69BB61BB69002B07D0B969284A294B50
:10729000081C111C1A1CFFF7E9F93B1D181C0021E2
:1072A000012209F02DFA3B1D1A7801218A431A7038
:1072B0003B1D181CFFF7B8F8031C7B617B693B6121
:1072C0003B69002B07D039691B4A1A4B081C111C5B
:1072D0001A1CFFF7CBF9194B181C02F007F9031C15
:1072E0007B617B69FB60FB68002B08D0F968C823D1
:1072F0009A00104B081C111C1A1CFFF7B7F9104B11
:10730000181C02F007F9031C7B617B69BB60BB683A
:10731000002B08D0B968C9239A00064B081C111C21
:107320001A1CFFF7A3F9BD4608B080BD0028002055
:10733000130300006C0A02001B030000017201002D
:107340004972010080B500AF002000210322FEF742
:107350006FFF012000210322FEF76AFFBD4680BDBA
:1073600080B586B000AFF860B9607A607B687B61F9
:107370007B69002B07D07969054A064B081C111C54
:107380001A1CFFF773F90023181CBD4606B080BD18
:107390003F0300006C0A020080B588B000AF05F022
:1073A0007FFA031CFB61FB69BB61BB69002B07D043
:1073B000B969354A354B081C111C1A1CFFF756F9E0
:1073C0000120FEF76FFF031C5A425341DAB23B1C07
:1073D0000C331A703B1C0C33181C06F0A9FD031C5F
:1073E000FB61FB697B617B69002B08D07969D52340
:1073F0009A00264B081C111C1A1CFFF737F93B1C7E
:107400000633181C0021062209F07AF93B1C1E22C3
:10741000DA803B1C1A7A01210A431A723B1C1A7A41
:1074200002218A431A723B1C1A7A1C218A430C21BE
:107430000A431A723B1C1A7A20218A431A723B1C97
:1074400007225A723B1C10229A723B1C104A1A6087
:107450003B1C01221A710F4A3B1C101C191C06F020
:107460001DFE031CFB61FB693B613B69002B07D0E0
:107470003969094A054B081C111C1A1CFFF7F6F85C
:10748000BD4608B080BDC0464E0300006C0A020035
:10749000617301003C2500206303000080B582B0C9
:1074A00000AFFFF769F8031C7B607B683B603B68BB
:1074B000002B08D03968DB239A00044B081C111CF0
:1074C0001A1CFFF7D3F8BD4602B080BD6C0A02005B
:1074D00080B500AFFFF712FAFFF734FFFFF71CFA91
:1074E000FFF7C2FEFFF758FFFFF7A6FAFFF71AFBF8
:1074F000FFF77EFBFFF7ACFCFFF7E2FDFFF7F0FCC8
:10750000FFF766FDFFF7CAFFFCE7C04680B582B013
:1075100000AF021C3960BB1D1A80BB1D1B88DAB28C
:107520003B681A703B680133BA1D1288120A92B286
:10753000D2B21A700223181CBD4602B080BDC046EC
:1075400070DF7047181CC04671DF7047181CC046BA
:1075500072DF7047181CC04673DF7047181CC046A6
:1075600074DF7047181CC04675DF7047181CC04692
:1075700076DF7047181CC04677DF7047181CC0467E
:1075800078DF7047181CC04679DF7047181CC0466A
:107590007ADF7047181CC0467BDF7047181CC04656
:1075A0007CDF7047181CC0467DDF7047181CC04642
:1075B0007EDF7047181CC0467FDF7047181CC0462E
:1075C00080DF7047181CC04681DF7047181CC0461A
:1075D00082DF7047181CC04683DF7047181CC04606
:1075E00084DF7047181CC046B0DF7047181CC046C7
:1075F000B1DF7047181CC046B2DF7047181CC04688
:10760000A0DF7047181CC046A1DF7047181CC04699
:10761000A2DF7047181CC046A3DF7047181CC04685
:10762000A4DF7047181CC046A5DF7047181CC04671
:10763000A6DF7047181CC046A7DF7047181CC0465D
:10764000A8DF7047181CC046A9DF7047181CC04649
:10765000AADF7047181CC046F0B593B000AFF863BE
:10766000B963391C4731BB6B5A1E93410B703B1CED
:1076700047331A7801235340DBB2002B05D04F4B20
:10768000002033211A1CFEF7F1FF391C4631FB6B39
:107690005A1E93410B703B1C46331A78012353400A
:1076A000DBB2002B05D0454B002034211A1CFEF71D
:1076B000DDFFBB6B5C681B68DBB2FA6B1370FB6BA6
:1076C000581CBB6B19685A68FF231B020D1C1D4018
:1076D0000023161C1E403306290A39633A6B1A43ED
:1076E0003A63330A7B633024E41923780370FB6B1D
:1076F000981CBB6B19685A68FF231B040C1C1C40A8
:10770000BC620023141C1C40FC62F96A0B04BA6AB8
:10771000120C3A623C6A1C433C62F96A090C7962B9
:107720002022D21913780370FB6BDA1CBB6B5C68E8
:107730001B68190E0906B9610021201C0840F86178
:10774000F9690B02BC69240E3C6138691843386141
:10775000F969090E79613B7C1370FB6B1A1DBB6BD9
:107760005C681B680021181C0840B860FF21201CC1
:107770000840F860F9680900396000237B603B78B5
:107780001370FB6B5A1DBB6B9B68DBB21370FB6BFA
:107790009A1DBB6B9968FF231B020B401B0ADBB2CF
:1077A0001370FB6BDA1DBB6B9968FF231B040B4046
:1077B0001B0CDBB21370BD4613B0F0BDA40A02006F
:1077C00080B584B000AF786039603B1C0F33002275
:1077D0001A703B1C0E333A68511E8A411A703B1CCA
:1077E0000E331B7801225340DBB2002B05D03E4BF9
:1077F00000204B211A1CFEF739FF3B1C0D337A6821
:10780000511E8A411A703B1C0D331B7801225340D4
:10781000DBB2002B05D0344B00204C211A1CFEF7A4
:1078200025FF3B1C0F331B783A1C0F32591C11707B
:107830007A68D3183A6812781A703B685A883B1CE9
:107840000F331B787968CB18101C191CFFF75EFEEC
:10785000031C191C3B1C0F333A1C0F3212788A1878
:107860001A703B689A883B1C0F331B787968CB18D9
:10787000101C191CFFF74AFE031C191C3B1C0F337C
:107880003A1C0F3212788A181A703B68DA883B1C4F
:107890000F331B787968CB18101C191CFFF736FEC4
:1078A000031C191C3B1C0F333A1C0F3212788A1828
:1078B0001A703B1C0C333A1C0F321278073A5142B3
:1078C0004A411A703B1C0C331B7801225340DBB237
:1078D000002B05D0044B002054211A1CFEF7C6FED5
:1078E000BD4604B080BDC046A40A020080B594B075
:1078F00000AFB9607B603B1C0E33011C19803B1C40
:107900000C331A803B1C4F33BA68511E8A411A70DF
:107910003B1C4F331B7801225340DBB2002B05D0B8
:10792000524B00206D211A1CFEF7A0FE3B1C4E336B
:107930003A1C0C321288511E8A411A703B1C4E337D
:107940001B7801225340DBB2002B05D0474B0020AF
:107950006E211A1CFEF78AFE3B1C2C33181C0021DA
:107960001C2208F0CDFE3B1C2C331A7802210A435E
:107970001A703B1C2C3300225A603B1C2C33002213
:10798000DA603B1C2C3300221A613B1C2C33002292
:107990005A613B1C2C3300229A613B1C4833012264
:1079A0009A703B1C48333A1C0E3212881A803B1CDA
:1079B0001433181C0021032208F0A2FE3B1C1433D0
:1079C0007A6812781A703B1C14337A6852785A70AD
:1079D0003B1C14339A7806218A4302210A439A7089
:1079E0003B1C14339A7808218A439A703B1C143349
:1079F0009A7810218A439A703B1C14339A7801219B
:107A00008A439A703B1C1833181C0021142208F07A
:107A100077FE3B1C18333A1C48321A603B1C183363
:107A20003A1C14325A603B1C18333A1C0C32128830
:107A30001A813B1C183300225A813B1C18333A1C14
:107A40000C3212889A813B1C1833BA681A61084BB1
:107A50001888391C2C313A1C1832BB6DFFF7D8FD41
:107A6000031C181CBD4614B080BDC046A40A020009
:107A70005028002090B58BB002AF78603B1C1833C3
:107A800001229A703B1C1833784A1A803A1C18322B
:107A9000774B0120111C1A1CFFF7B2FD031CFB6180
:107AA000FB69002B01D0FB69DBE07B681B88002BA6
:107AB00011D07B6859687B681A887B683C336D48B5
:107AC0006D4C0094FFF712FF031CFB61FB69002B58
:107AD00001D0FB69C5E07B681B89002B11D07B6856
:107AE000D9687B681A897B683C336448644C00948D
:107AF000FFF7FCFE031CFB61FB69002B01D0FB6957
:107B0000AFE07B681B8A002B11D07B6859697B68CA
:107B10001A8A7B683C335B485B4C0094FFF7E6FEB7
:107B2000031CFB61FB69002B01D0FB6999E07B68BA
:107B30001B8B002B11D07B68D9697B681A8B7B6803
:107B40003C335248524C0094FFF7D0FE031CFB61BB
:107B5000FB69002B01D0FB6983E07B681B8C002B49
:107B600011D07B68596A7B681A8C7B683C33494822
:107B7000494C0094FFF7BAFE031CFB61FB69002B24
:107B800001D0FB696DE07B681B8D002B11D07B68F9
:107B9000D96A7B681A8D7B683C334048404C00941E
:107BA000FFF7A4FE031CFB61FB69002B01D0FB69FE
:107BB00057E07B681B6B002B1AD07B681B6B3A1C51
:107BC0001032101C191CFFF747FD7B683C33354908
:107BD0003A1C103234480090081C111C0822FFF790
:107BE00085FE031CFB61FB69002B01D0FB6938E0BB
:107BF0007B685B6B002B14D07B685B6B19687B68C0
:107C00005B6B1B791A1C7B683C332848284C00941A
:107C1000FFF76CFE031CFB61FB69002B01D0FB69C5
:107C20001FE07B689B6B002B1AD07B689B6B3A1C18
:107C30000832101C191CFFF7C3FD7B683C331D493B
:107C40003A1C08321C480090081C111C0722FFF740
:107C50004DFE031CFB61FB69002B01D0FB6900E0BA
:107C60000023181CBD4609B090BDC0460A1800008C
:107C700050280020292A000054280020242A00002F
:107C80005C280020252A000064280020272A000004
:107C90006C280020262A000074280020282A0000D2
:107CA0007C280020232A0000842800202A2A0000A3
:107CB0008C280020502A00009428002070DF704794
:107CC000181CC04671DF7047181CC04672DF704731
:107CD000181CC04673DF7047181CC04674DF70471D
:107CE000181CC04675DF7047181CC04676DF704709
:107CF000181CC04677DF7047181CC04678DF7047F5
:107D0000181CC04679DF7047181CC0467ADF7047E0
:107D1000181CC0467BDF7047181CC0467CDF7047CC
:107D2000181CC0467DDF7047181CC0467EDF7047B8
:107D3000181CC0467FDF7047181CC04680DF7047A4
:107D4000181CC04681DF7047181CC04682DF704790
:107D5000181CC04683DF7047181CC04684DF70477C
:107D6000181CC046B0DF7047181CC046B1DF704712
:107D7000181CC046B2DF7047181CC04690DF704721
:107D8000181CC04691DF7047181CC04692DF704730
:107D9000181CC04693DF7047181CC04694DF70471C
:107DA000181CC04695DF7047181CC04696DF704708
:107DB000181CC04697DF7047181CC04698DF7047F4
:107DC000181CC046A0DF7047181CC046A1DF7047D2
:107DD000181CC046A2DF7047181CC046A3DF7047BE
:107DE000181CC046A4DF7047181CC046A5DF7047AA
:107DF000181CC046A6DF7047181CC046A7DF704796
:107E0000181CC046A8DF7047181CC046A9DF704781
:107E1000181CC046AADF7047181CC04660DF7047B8
:107E2000181CC04661DF7047181CC04662DF7047EF
:107E3000181CC04663DF7047181CC04664DF7047DB
:107E4000181CC04665DF7047181CC04666DF7047C7
:107E5000181CC04667DF7047181CC04668DF7047B3
:107E6000181CC04669DF7047181CC04680B582B038
:107E700000AF78607B681B781A1C7B6801331B7825
:107E80001B029BB213439BB29BB2181CBD4602B0AF
:107E900080BDC04690B585B000AF78603C1C0E3404
:107EA0007B68181CFFF7E2FF031C23803B1C0E338A
:107EB0001A88012313405A1E9341DBB2181CBD4699
:107EC00005B090BD80B582B000AF786039603B6886
:107ED0009A887B685A82BD4602B080BD80B582B068
:107EE00000AF786039607B68012252425A82BD46F9
:107EF00002B080BD80B584B000AF786039607B6827
:107F00001B7D002B29D03B680633FB60FB681A8879
:107F10007B685B899A4220D1FB681B8B022B1CD1AA
:107F20007B681B68002B18D0FB681A33181CFFF7FE
:107F3000B1FF031C002B04D03B1C083300221A7035
:107F400003E03B1C083301221A707B681B687968C8
:107F50003A1C0832081C111C9847BD4604B080BD6D
:107F600080B582B000AF786039603B681B88112B08
:107F70000BD0502B10D0102B00D014E07A683B6847
:107F8000101C191CFFF79EFF0DE07A683B68101C5F
:107F9000191CFFF7A3FF06E07A683B68101C191C48
:107FA000FFF7A8FFC046BD4602B080BD90B595B0B2
:107FB00000AF786039607B681B7D002B23D03B1CB1
:107FC0002833181C0021032208F09AFB3B1C28339D
:107FD0001A780F218A4301210A431A703B1C283367
:107FE00019780F220A4010210A431A703B1C2833CB
:107FF0003A68527B5A703B1C28339A7806218A4390
:1080000002210A439A703B1C2C33181C00211C22AD
:1080100008F076FB3B1C2C331A7802210A431A70B5
:108020007B681B7D1A1C01231340D9B23B1C2C33E7
:1080300001220A4012011978102081430A431A7064
:108040003B1C2C3300225A603B1C2C330022DA608C
:108050003B1C2C3300221A617B681B7D002B02D055
:108060003A1C283200E000223B1C2C335A613B1C96
:108070002C3300229A613B1C103301229A703B1C66
:108080001033784A1A803B1C0C33181C0021032241
:1080900008F036FB3B1C0C333A68927B1A703B1C91
:1080A0000C333A68D27B5A703B1C0C339A78062109
:1080B0008A4302210A439A703B1C0C339A780821A8
:1080C0008A439A703B1C0C339A7810218A439A7029
:1080D0003B1C0C339A7801218A439A703B681A7BC7
:1080E0003B1C0B331A703B1C1433181C0021142248
:1080F00008F006FB3B1C14333A1C10321A603B1C80
:1081000014333A1C0C325A603B1C143301221A817E
:108110003B1C143300225A813B1C143301229A81E8
:108120003B1C14333A1C0B321A617B6898887B68BD
:108130000633391C2C313A1C1432FFF74BFE031C5A
:10814000FB64FB6C002B01D0FB6C87E03B689B68F9
:10815000002B00D17EE03B1C103301229A703B1CA7
:108160001033414A1A803B1C0C33181C0021032297
:1081700008F0C6FA3B1C0C333A68127C1A703B1CA0
:108180000C335A780F218A435A703B1C0C335978B0
:108190000F220A405A703B1C0C339A7806218A43FE
:1081A00002210A439A703B1C0C339A7808218A43B7
:1081B0009A703B1C0C339A7810218A439A703B1CAE
:1081C0000C339A7801218A439A703B689B683C1C67
:1081D0004B343A1C0832101C191C00F01BFE031C07
:1081E00023703B1C1433181C0021142208F088FA59
:1081F0003B1C14333A1C10321A603B1C14333A1CDB
:108200000C325A603B1C4B331B789AB23B1C143324
:108210001A813B1C143300225A813B1C14331A89E7
:108220003B1C14339A813B1C14333A1C08321A61EC
:108230007B68D9887B680E333A1C1432081C111CE9
:108240001A1CFFF7CBFD031CFB64FB6C002B04D056
:10825000FB6C03E07B680022DA810023181CBD461A
:1082600015B090BD192A00000829000080B584B01F
:1082700000AF786039603B681A687B681A607B6879
:10828000012252425A823B681A797B681A757B68D0
:10829000FF221A743B1C083301229A703B1C0833DE
:1082A0000E4A1A807B6804333A1C08320120111CE4
:1082B0001A1CFFF787FD031CFB60FB68002B01D035
:1082C000FB6806E07A683B68101C191CFFF76EFE1D
:1082D000031C181CBD4604B080BDC0460F1800002A
:1082E00080B588B000AF78600A1CFB1C1A700023B0
:1082F000FB617B681A7CFB1C1B789A424FD03B1CAD
:108300001A3301221A80FB1C1A787B681A747B6866
:10831000D9883A1C1A32FB1C081C0021FFF762FDA9
:10832000031CFB61FB69002B01D0FB6938E07B6813
:108330005A8A1D4B9A4230D07B681B7D002B2CD073
:108340003B1C0833181C0021102208F0D9F93B1CF3
:108350001A3301221A807B68DA883B1C08331A80A2
:108360003B1C083301229A703B1C083300229A8080
:108370003B1C08333A1C1A329A603B1C0833FA1C27
:10838000DA607B685A8A3B1C0833101C191CFFF703
:1083900031FD031CFB61C04601E00823FB61FB6962
:1083A000181CBD4608B080BDFFFF000070DF70479D
:1083B000181CC04671DF7047181CC04672DF70473A
:1083C000181CC04673DF7047181CC04674DF704726
:1083D000181CC04675DF7047181CC04676DF704712
:1083E000181CC04677DF7047181CC04678DF7047FE
:1083F000181CC04679DF7047181CC0467ADF7047EA
:10840000181CC0467BDF7047181CC0467CDF7047D5
:10841000181CC0467DDF7047181CC0467EDF7047C1
:10842000181CC0467FDF7047181CC04680DF7047AD
:10843000181CC04681DF7047181CC04682DF704799
:10844000181CC04683DF7047181CC04684DF704785
:10845000181CC046B0DF7047181CC046B1DF70471B
:10846000181CC046B2DF7047181CC04690DF70472A
:10847000181CC04691DF7047181CC04692DF704739
:10848000181CC04693DF7047181CC04694DF704725
:10849000181CC04695DF7047181CC04696DF704711
:1084A000181CC04697DF7047181CC04698DF7047FD
:1084B000181CC046A0DF7047181CC046A1DF7047DB
:1084C000181CC046A2DF7047181CC046A3DF7047C7
:1084D000181CC046A4DF7047181CC046A5DF7047B3
:1084E000181CC046A6DF7047181CC046A7DF70479F
:1084F000181CC046A8DF7047181CC046A9DF70478B
:10850000181CC046AADF7047181CC04660DF7047C1
:10851000181CC04661DF7047181CC04662DF7047F8
:10852000181CC04663DF7047181CC04664DF7047E4
:10853000181CC04665DF7047181CC04666DF7047D0
:10854000181CC04667DF7047181CC04668DF7047BC
:10855000181CC04669DF7047181CC04680B582B041
:1085600000AF021C3960BB1D1A80BB1D1B88DAB22C
:108570003B681A703B680133BA1D1288120A92B226
:10858000D2B21A700223181CBD4602B080BDC0468C
:1085900080B582B000AF78607B681B781A1C7B685E
:1085A00001331B781B029BB213439BB29BB2181C76
:1085B000BD4602B080BDC04690B585B000AF7860C2
:1085C0003C1C0E347B68181CFFF7E2FF031C238061
:1085D0003B1C0E331A88012313405A1E9341DBB211
:1085E000181CBD4605B090BD80B582B000AF786064
:1085F00039603B689A887B681A84BD4602B080BDAA
:1086000080B582B000AF786039607B680122524249
:108610001A84BD4602B080BD80B584B000AF7860DA
:1086200039603B681B8B022B1CD17B681B68002BBD
:1086300018D03B681A33181CFFF7BEFF031C002B31
:1086400004D03B1C0C3300221A7003E03B1C0C339B
:1086500001221A707B681B6879683A1C0C32081C6E
:10866000111C9847BD4604B080BDC04680B584B09B
:1086700000AF786039603B680633FB60FB681A889E
:108680007B689B899A4205D17A68FB68101C191C8B
:10869000FFF7C2FFBD4604B080BDC04680B582B0C2
:1086A00000AF786039603B681B88112B0BD0502BD2
:1086B00010D0102B00D014E07A683B68101C191CF5
:1086C000FFF792FF0DE07A683B68101C191CFFF75A
:1086D00097FF06E07A683B68101C191CFFF7C6FF7D
:1086E000C046BD4602B080BD80B586B000AFF86020
:1086F0007A603B1C0A330A1C1A803B1C1733002289
:108700001A703B1C163301221A70FB685B79002B30
:1087100007D03B1C17333A1C1732127804210A4346
:108720001A70FA682223D35C002B07D03B1C173346
:108730003A1C1732127802210A431A703B1C0A3382
:108740001B88FF2B1DD93B1C17333A1C173212789C
:1087500001210A431A703B1C16331B787A68D31820
:108760003A1C0A321288101C191CFFF7F7FE031C72
:10877000191C3B1C16333A1C163212788A181A70D0
:108780000DE03B1C16331B783A1C1632591C117035
:108790007A68D3183A1C0A321288D2B21A70FA6870
:1087A0004C23D35A002B07D03B1C17333A1C1732EB
:1087B000127810210A431A7000233B6136E03B1CFB
:1087C00016331B780233142B15D9FB68191C24317E
:1087D0003B6910335B00FA68D3181A1DF8684C2304
:1087E000C35A181C3B69C31A5B00081C111C1A1CD5
:1087F00007F034FF21E0FA683B6910335B00D318BF
:108800009A883B1C16331B787968CB18101C191CEE
:10881000FFF7A4FE031C191C3B1C16333A1C16322E
:1088200012788A181A703B6901333B61FA684C234D
:10883000D35A1A1C3B699A42C1DCFA684C23D25ABB
:108840003B699BB2D31A99B2FA684C23D1527B6828
:108850003A1C173212781A703B1C16331B78181CFE
:10886000BD4606B080BDC04680B596B000AF78600A
:1088700039603B1C3833181C0021032207F040FFED
:108880003B1C38331A780F218A4301210A431A709E
:108890003B1C383319780F220A4010210A431A7002
:1088A0003B1C38333A68127B5A703B1C38339A7839
:1088B00006218A4302210A439A703B1C3C33181C50
:1088C00000211C2207F01CFF3B1C3C331A781021AE
:1088D0000A431A703B1C3C3300225A603B1C3C3359
:1088E0000022DA603B1C3C3300221A613B1C3C3303
:1088F0003A1C38325A613B1C3C3300229A613B1CC3
:10890000203301229A703B1C2033334A1A803B1CCF
:108910001C33181C0021032207F0F2FE3B1C1C3301
:108920003A68527B1A703B1C1C333A68927B5A702F
:108930003B1C1C339A7806218A4302210A439A7011
:108940003B1C1C339A7808218A439A703B1C1C33C9
:108950009A7810218A439A703B1C1C339A78012123
:108960000A439A703B1C2433181C0021142207F080
:10897000C7FE3B1C24333A1C20321A603B1C2433B4
:108980003A1C1C325A607A683B1C0833101C0021C8
:108990001A1CFFF7A9FE031C1A1C3B1C24331A8166
:1089A0003B1C243300225A813B1C243314229A811D
:1089B0003B1C24333A1C08321A617B68D8887B68D8
:1089C0000833391C3C313A1C2432FFF77BFD031C71
:1089D000181CBD4616B080BD372A000080B590B087
:1089E00000AF786039603B1C2433181C00211C2226
:1089F00007F086FE3B1C24331A7802210A431A70C2
:108A00003B1C243300225A603B1C24330022DA60D2
:108A10003B1C243300221A613B1C243300225A6180
:108A20003B1C243300229A613B1C0C3301229A70B8
:108A30003B1C0C332E4A1A803B1C0833181C0021A7
:108A4000032207F05DFE3B1C08333A68D27B1A70A4
:108A50003B1C08333A68127C5A703B1C08339A78E6
:108A600006218A4302210A439A703B1C08339A78F4
:108A700008218A439A703B1C08339A7810218A4354
:108A80009A703B1C08339A7801218A439A703B1CE8
:108A90001033181C0021142207F032FE3B1C103347
:108AA0003A1C0C321A603B1C10333A1C08325A60D4
:108AB0003B1C103301221A813B1C103300225A81C7
:108AC0003B1C103301229A813B689A683B1C10338F
:108AD0001A617B68D8887B681033391C24313A1CB2
:108AE0001032FFF7EFFC031C181CBD4610B080BD10
:108AF000382A000080B584B000AF786039603B68E8
:108B00001A687B681A603B681A797B685A717B68BF
:108B1000012252421A847A6822230021D1547A68B1
:108B20004C230021D1523B1C083301229A703B1C7C
:108B300008331A4A1A807B6806333A1C083201202F
:108B4000111C1A1CFFF7B6FC031CFB60FB68002B12
:108B500001D0FB681EE07A683B68101C191CFFF707
:108B600083FE031CFB60FB68002B01D0FB6811E057
:108B70003B689B68002B0CD07A683B68101C191C62
:108B8000FFF72CFF031CFB60FB68002B01D0FB6888
:108B900000E00023181CBD4604B080BDCDABFFFF34
:108BA00080B58EB000AF78600A1CBB1C1A807B6851
:108BB0001A8C2B4B9A424BD07968BB1C1A883B1CF1
:108BC0001C33081C111C1A1CFFF78EFD031C1A1CF9
:108BD0003B1C32331A803B1C1A333A1C3232128847
:108BE0001A803B1C0833181C0021102207F088FD56
:108BF0007B681A893B1C08331A803B1C083301220E
:108C00009A703B1C083300229A803B1C08333A1CA4
:108C10001A329A603B1C08333A1C1C32DA607B68BB
:108C20001A8C3B1C0833101C191CFFF75BFC031C3F
:108C30007B637B6B002B0AD13B1C1A331B883A1CCD
:108C4000323212889A4202D00C237B6302E001E0A8
:108C500008237B637B6B181CBD460EB080BDC046ED
:108C6000FFFF000080B582B000AF78600A1CBB1C1B
:108C70001A807A684C23D35A142B11D17B681A1CA2
:108C800024327B682633101C191C262207F0E6FCD0
:108C90007A684C23D35A013B99B27A684C23D1525B
:108CA0007A684C23D35A5A1C90B279684C22885265
:108CB000796810335B00BA1CCB1812889A80BD46C5
:108CC00002B080BD80B582B000AF78607A684C2376
:108CD000D35A143B5A425341DBB2181CBD4602B072
:108CE00080BDC04680B582B000AF78600A1CFB1C16
:108CF0001A707B681A8C074B9A4205D17B68FA1C64
:108D000012785A71002300E00823181CBD4602B0F7
:108D100080BDC046FFFF000080B582B000AF786024
:108D20000A1CFB1C1A707A68F91C22230978D1549A
:108D3000BD4602B080BDC04680B584B000AF78604B
:108D40000A1CFB1C1A703B1C0E3301221A807B6824
:108D5000198A3A1C0E32FB1C081C0021FFF7BAFBD3
:108D6000031C181CBD4604B080BDC04670DF7047B0
:108D7000181CC04671DF7047181CC04672DF704770
:108D8000181CC04673DF7047181CC04674DF70475C
:108D9000181CC04675DF7047181CC04676DF704748
:108DA000181CC04677DF7047181CC04678DF704734
:108DB000181CC04679DF7047181CC0467ADF704720
:108DC000181CC0467BDF7047181CC0467CDF70470C
:108DD000181CC0467DDF7047181CC0467EDF7047F8
:108DE000181CC0467FDF7047181CC04680DF7047E4
:108DF000181CC04681DF7047181CC04682DF7047D0
:108E0000181CC04683DF7047181CC04684DF7047BB
:108E1000181CC04680B584B000AF786039603B1C38
:108E20000F3300221A703B1C0F331B783A1C0F3291
:108E3000591C11707A68D3183A6812781A703B1C62
:108E40000F331B783A1C0F32591C11707A68D318F3
:108E50003A6852781A703B1C0E333A1C0F32127863
:108E6000023A51424A411A703B1C0E331B780122D0
:108E70005340DBB2002B05D0064B002020211A1CEA
:108E8000FDF7F4FB3B1C0F331B78181CBD4604B0E8
:108E900080BDC046D80A020080B582B000AF7860BD
:108EA00039603B68181C07F079FC031C9AB27B6898
:108EB0001A807B683A685A60BD4602B080BDC046E1
:108EC00080B582B000AF786039603B681B7B002BB7
:108ED00007D03B685A687B681A607B6800221A7169
:108EE00006E03B681A687B681A607B6801221A7189
:108EF000BD4602B080BDC04680B582B000AF78608C
:108F000039607B681B79002B18D03B685A687B68F6
:108F10001B68D21A3B689B689A4207D97B681A681B
:108F20003B689B68D2187B681A601FE03B685A68F0
:108F30007B681A607B6800221A7117E07B681A68E8
:108F40003B681B68D21A3B689B689A4207D97B68CA
:108F50001A683B689B68D21A7B681A6006E03B6817
:108F60001A687B681A607B6801221A717B681B682B
:108F7000181CBD4602B080BD23DF7047181CC046D8
:108F800024DF7047181CC04625DF7047181CC046F8
:108F900026DF7047181CC04627DF7047181CC046E4
:108FA00028DF7047181CC04629DF7047181CC046D0
:108FB0002ADF7047181CC0462BDF7047181CC046BC
:108FC0002CDF7047181CC0462DDF7047181CC046A8
:108FD0002EDF7047181CC0462FDF7047181CC04694
:108FE00030DF7047181CC04631DF7047181CC04680
:108FF00032DF7047181CC04635DF7047181CC0466A
:1090000036DF7047181CC04633DF7047181CC04657
:1090100034DF7047181CC04637DF7047181CC04645
:1090200038DF7047181CC04639DF7047181CC0462F
:109030003ADF7047181CC0463BDF7047181CC0461B
:109040003CDF7047181CC0463DDF7047181CC04607
:109050003EDF7047181CC0463FDF7047181CC046F3
:1090600041DF7047181CC04642DF7047181CC046DD
:1090700043DF7047181CC04640DF7047181CC046CD
:1090800044DF7047181CC04645DF7047181CC046B7
:1090900046DF7047181CC04647DF7047181CC046A3
:1090A00048DF7047181CC04649DF7047181CC0468F
:1090B0004ADF7047181CC0464BDF7047181CC0467B
:1090C0004CDF7047181CC0464DDF7047181CC04667
:1090D00051DF7047181CC04652DF7047181CC0464D
:1090E00021DF7047181CC04620DF7047181CC0469F
:1090F00022DF7047181CC0464EDF7047181CC04660
:109100004FDF7047181CC04650DF7047181CC04620
:1091100010DF7047181CC04611DF7047181CC0468E
:1091200012DF7047181CC04613DF7047181CC0467A
:1091300080B582B000AF78607A68032313405A424A
:109140005341DBB2181CBD4602B080BD70DF7047D2
:10915000181CC04671DF7047181CC04672DF70478C
:10916000181CC04673DF7047181CC04674DF704778
:10917000181CC04675DF7047181CC04676DF704764
:10918000181CC04677DF7047181CC04678DF704750
:10919000181CC04679DF7047181CC0467ADF70473C
:1091A000181CC0467BDF7047181CC0467CDF704728
:1091B000181CC0467DDF7047181CC0467EDF704714
:1091C000181CC0467FDF7047181CC04680DF704700
:1091D000181CC04681DF7047181CC04682DF7047EC
:1091E000181CC04683DF7047181CC04684DF7047D8
:1091F000181CC046B0DF7047181CC046B1DF70476E
:10920000181CC046B2DF7047181CC04690DF70477C
:10921000181CC04691DF7047181CC04692DF70478B
:10922000181CC04693DF7047181CC04694DF704777
:10923000181CC04695DF7047181CC04696DF704763
:10924000181CC04697DF7047181CC04698DF70474F
:10925000181CC046A0DF7047181CC046A1DF70472D
:10926000181CC046A2DF7047181CC046A3DF704719
:10927000181CC046A4DF7047181CC046A5DF704705
:10928000181CC046A6DF7047181CC046A7DF7047F1
:10929000181CC046A8DF7047181CC046A9DF7047DD
:1092A000181CC046AADF7047181CC04660DF704714
:1092B000181CC04661DF7047181CC04662DF70474B
:1092C000181CC04663DF7047181CC04664DF704737
:1092D000181CC04665DF7047181CC04666DF704723
:1092E000181CC04667DF7047181CC04668DF70470F
:1092F000181CC04669DF7047181CC04680B584B092
:1093000000AFF8607A603B1C0A330A1C1A803B1CD1
:109310000A331A887B68101C191CFDF7FBF9BD463F
:1093200004B080BD80B584B000AF3D4B1B78DBB28C
:1093300001225340DBB2002B00D06DE0394B1A689C
:109340003B1C0F3351424A411A70374B1A683B1C81
:109350000E3351424A411A703B1C0F331B780122D5
:109360005340DBB2002B1DD03B1D181CFFF7B0FE95
:10937000031CBB60BB68052B04D13B1C0F330122CF
:109380001A700FE0BB68002B07D0BA68274B101C7F
:1093900069211A1CFDF76AF904E0224B1B687A6800
:1093A000101C98473B1C0E331B7801225340DBB244
:1093B000002B25D01E4B1A88BB1C1A801D4B1A6827
:1093C000BB1C101C191CFFF775FF031CBB60BB689E
:1093D000052B04D13B1C0E3301221A7010E0BB6830
:1093E000002B07D0BA68114B101C80211A1CFDF706
:1093F0003DF905E00C4B1A680E4B1B68181C904792
:109400003B1C0F331B78002B05D03B1C0E331B7805
:10941000002B00D000E09FE7BD4604B080BDC046F1
:10942000A6280020AC280020A8280020140B020049
:10943000A4280020A028002080B586B000AFF860E6
:10944000B9603B60BB1D1A80BB68002B01D10723AC
:1094500029E0BB68181CFFF76BFE031C0122534078
:10946000DBB2002B01D007231DE0114BBA681A6054
:10947000104BBA1D12881A800F4B3A681A60FA68AE
:109480000E4B101C191CFFF743FE031C7B617B690C
:10949000002B01D07B6906E0094B01221A701620CF
:1094A000FFF776FD031C181CBD4606B080BDC04604
:1094B000A0280020A42800209C280020FD92010064
:1094C000A628002080B582B000AFFFF725FE031C60
:1094D0007B607B685A1E9341DAB2034B1A707B683B
:1094E000181CBD4602B080BDA628002080B582B001
:1094F00000AF78607B68002B01D10E2303E0044BA2
:109500007A681A600023181CBD4602B080BDC046B0
:10951000A828002080B582B000AF78607B68002B5F
:1095200001D10E2303E0044B7A681A600023181C53
:10953000BD4602B080BDC046AC28002080B582B0D8
:1095400000AF0F4B1B68002B14D00D4B1B689847C6
:10955000031C7B607B683B603B68002B09D039684B
:1095600099235A00074B081C111C1A1CFDF77EF8A2
:1095700002E001E0FFF7D6FEBD4602B080BDC04666
:109580009C280020140B020070DF7047181CC04696
:1095900071DF7047181CC04672DF7047181CC04648
:1095A00073DF7047181CC04674DF7047181CC04634
:1095B00075DF7047181CC04676DF7047181CC04620
:1095C00077DF7047181CC04678DF7047181CC0460C
:1095D00079DF7047181CC0467ADF7047181CC046F8
:1095E0007BDF7047181CC0467CDF7047181CC046E4
:1095F0007DDF7047181CC0467EDF7047181CC046D0
:109600007FDF7047181CC04680DF7047181CC046BB
:1096100081DF7047181CC04682DF7047181CC046A7
:1096200083DF7047181CC04684DF7047181CC04693
:10963000B0DF7047181CC046B1DF7047181CC04629
:10964000B2DF7047181CC04690DF7047181CC04638
:1096500091DF7047181CC04692DF7047181CC04647
:1096600093DF7047181CC04694DF7047181CC04633
:1096700095DF7047181CC04696DF7047181CC0461F
:1096800097DF7047181CC04698DF7047181CC0460B
:10969000A0DF7047181CC046A1DF7047181CC046E9
:1096A000A2DF7047181CC046A3DF7047181CC046D5
:1096B000A4DF7047181CC046A5DF7047181CC046C1
:1096C000A6DF7047181CC046A7DF7047181CC046AD
:1096D000A8DF7047181CC046A9DF7047181CC04699
:1096E000AADF7047181CC04660DF7047181CC046D0
:1096F00061DF7047181CC04662DF7047181CC04607
:1097000063DF7047181CC04664DF7047181CC046F2
:1097100065DF7047181CC04666DF7047181CC046DE
:1097200067DF7047181CC04668DF7047181CC046CA
:1097300069DF7047181CC04680B582B000AF021CBC
:109740003960BB1D1A80BB1D1B88DAB23B681A70DA
:109750003B680133BA1D1288120A92B2D2B21A7053
:109760000223181CBD4602B080BDC04680B588B03B
:1097700000AFF860B9607A603B1C1C337A681278DD
:109780001A703B1C1C331B7802331F2B04DCFB6854
:109790005B7802331F2B01DD0C237DE03B1C1C3367
:1097A0001B789AB23B1C1E331D218A1A1A803B1C5F
:1097B00016333A1C1E3212881A803B1C1C331B784D
:1097C0000233BA68D2183B1C1633101C191CFFF761
:1097D0000FFF031CBB61BB69002B01D0BB695BE0C1
:1097E000FB681B78022B12D13B1C16331B883A1CDA
:1097F0001E3212889A420AD33B1C1D3309221A706A
:109800003B1C1E333A1C163212881A801AE03B1C8D
:109810001D3308221A70FB685B78002B0CD0FB68A4
:109820005B783A1C1E3212889A4205D3FB685A783C
:109830003B1C1E331A8005E03B1C1E333A1C1632BB
:1098400012881A803B1C1C331B783A1C1C32591C92
:109850001170BA68D3183A1C1E321288D2B2013283
:10986000D2B21A703B1C1C331B783A1C1C32591C98
:109870001170BA68D3183A1C1D3212781A707B68BE
:109880001A783B1C1E331B88DBB2D318DBB20233C1
:10989000DAB27B681A700023181CBD4608B080BD80
:1098A00090B585B000AF786039603B681B780433B1
:1098B0001F2B01DD0C2332E03B1C0A33181CFFF781
:1098C00087FE031CFB60FB68002B01D0FB6826E0D1
:1098D0003B681B785A1CD1B23A6811707A68D31869
:1098E00003221A703B681B785A1CD1B23A68117077
:1098F0007A68D31819221A703B681C783B1C0A330B
:109900001A883B681B787968CB18101C191CFFF764
:1099100013FF031CE318DAB23B681A700023181C0B
:10992000BD4605B090BDC04680B584B000AFF860BC
:109930007A603B603B1C0B330A1C1A70FB685B6847
:10994000002B01D107233AE03B681B789A1CFB6887
:109950001B88D3181F2B01DD0C2330E03B681B78DC
:109960005A1CD1B23A6811707A68D318FA68128812
:10997000D2B20132D2B21A703B681B785A1CD1B2F3
:109980003A6811707A68D3183A1C0B3212781A7040
:109990003B681B787A68D118FB685A68FB681B889B
:1099A000081C111C1A1C06F017FE3B681A78FB688D
:1099B0001B88DBB2D318DAB23B681A700023181C7C
:1099C000BD4604B080BDC04680B584B000AFB9606C
:1099D0007A603B1C0F33021C1A707B681B780333C0
:1099E0001F2B01DD0C2320E07B681B785A1CD1B2B1
:1099F0007A681170BA68D31802221A707B681B78D3
:109A00005A1CD1B27A681170BA68D3180A221A7037
:109A10007B681B785A1CD1B27A681170BA68D31867
:109A20003A1C0F3212781A700023181CBD4604B07D
:109A300080BDC04680B58AB000AFF8607B603B1C3B
:109A40000B3319703B1C0A331A703B1C2333002262
:109A50001A703B1C22333A6B12781A7000237B6217
:109A60007EE0FB685A687B6A9B00D3183A1C14326C
:109A7000111C1A1C0423081C111C1A1C06F0ACFD36
:109A80003A1C14323B1C1A33101C191C0022FFF71D
:109A90003FFE031CFB61FB69002B01D0FB697BE0EF
:109AA0003B1C1A331B783A1C0A3212789A4254D162
:109AB0003B1C23331B78002B01D0002300E0022342
:109AC0003A1C1B3213703B6B1B781A1C3B1C1A335D
:109AD0001B78D2183B1C1B331B78D3181F2B01DDBE
:109AE0000C2359E03B1C23331B7801225340DBB28B
:109AF000002B15D03B6B1B780133DAB23B6B1A702D
:109B00003B6B1B785A1CD1B23A6B11707A68D31830
:109B10003A1C0B3212781A703B1C233301221A7044
:109B20003B6B1B787A68D318391C14313A1C1A32F3
:109B3000081C111C1A1CFFF7EBFD031CFB61FB69E1
:109B4000002B01D0FB6927E03B6B1A783B1C1A33D2
:109B50001B78D318DAB23B6B1A707B6A01337B62D5
:109B6000FB681B881A1C7B6A9A4200DD79E73B1C64
:109B700023331B78002B0ED03B1C22331B787A68D2
:109B8000D3183A6B11783A1C223212788A1AD2B260
:109B9000013AD2B21A700023181CBD460AB080BD2B
:109BA00080B588B002AFF8607B603B1C0B33197046
:109BB0003B1C0A331A70F9683B1C0B331A787B681C
:109BC000386A0090081C111C0222FFF733FF031CA7
:109BD0007B617B69002B01D07B6913E0F9683B1C3A
:109BE0000A331A787B68386A0090081C111C10220E
:109BF000FFF720FF031C7B617B69002B01D07B6991
:109C000000E00023181CBD4606B080BD80B582B0C0
:109C100000AF78607B681B88052B0AD97B681A889F
:109C2000C8231B019A4206D97B681A88164B9A42B0
:109C300001D0072323E07B685B88052B0AD97B686A
:109C40005A88C8231B019A4206D97B685A880E4B52
:109C50009A4201D0072312E07B681A880A4B9A4285
:109C60000CD07B685A88084B9A4207D07B681A88C8
:109C70007B685B889A4201D9072300E00023181C07
:109C8000BD4602B080BDC046FFFF000090B587B062
:109C900000AFF860B9607A607B681B7806331F2BD1
:109CA00001D90C2341E0FB68181CFFF7AFFF031C30
:109CB0007B617B69002B01D07B6936E07B681B7878
:109CC0005A1CD1B27A681170BA68D31805221A707A
:109CD0007B681B785A1CD1B27A681170BA68D318A5
:109CE00012221A707B681C78FB681A887B681B78C4
:109CF000B968CB18101C191CFFF71EFD031CE318D4
:109D0000DAB27B681A707B681C78FB685A887B68BB
:109D10001B78B968CB18101C191CFFF70DFD031C2C
:109D2000E318DAB27B681A700023181CBD4607B02E
:109D300090BDC04690B587B000AFF860B9607A605A
:109D4000FB689B88DAB23B1C173302321A707B68BF
:109D50001B789A1C3B1C17331B78D3181F2B01DD73
:109D60000C2349E07B681B785A1CD1B27A681170C9
:109D7000BA68D3183A1C173212780132D2B21A706C
:109D80007B681B785A1CD1B27A681170BA68D318F4
:109D9000FF221A707B681C78FB681A887B681B7826
:109DA000B968CB18101C191CFFF7C6FC031CE3187C
:109DB000DAB27B681A70FB689B88002B1BD0FB68AB
:109DC0009B68002B01D1072316E07B681B78BA68DB
:109DD000D118FB689A68FB689B88081C111C1A1C28
:109DE00006F0FAFB7B681A78FB689B88DBB2D31815
:109DF000DAB27B681A700023181CBD4607B090BD0C
:109E000090B589B000AFF860B9607A60FB681B6BF1
:109E1000002B01D107236FE03B1C1F3300221A7077
:109E200061E0FB68196B3B1C1F331A78131C5B0045
:109E30009B189B00CB18BB61BB699B88DAB23B1CAB
:109E4000173302321A707B681B785A1CD1B27A68B9
:109E50001170BA68D3183A1C173212780132D2B294
:109E60001A707B681B785A1CD1B27A681170BA6874
:109E7000D31816221A707B681C78BB691A887B6815
:109E80001B78B968CB18101C191CFFF755FC031C74
:109E9000E318DAB27B681A70BB699B88002B1BD071
:109EA000BB699B68002B01D1072325E07B681B78E9
:109EB000BA68D118BB699A68BB699B88081C111CD9
:109EC0001A1C06F089FB7B681A78BB699B88DBB299
:109ED000D318DAB27B681A703B1C1F331A783B1C0C
:109EE0001F3301321A70FA683423D35C3A1C1F32D4
:109EF00012789A4295D30023181CBD4609B090BD34
:109F000080B588B002AFF860B9607A6000237B61E9
:109F10007B6800221A70FB681B78002B0ED0F96852
:109F2000BA687B68081C111C1A1CFFF71FFC031C75
:109F30007B617B69002B01D07B69B8E0FB689B7873
:109F4000002B0CD0BA687B68101C191CFFF7A8FC0A
:109F5000031C7B617B69002B01D07B69A7E0FB6858
:109F60009B88002B0ED0FB68191DBA687B68081C03
:109F70000121FFF7D9FC031C7B617B69002B01D019
:109F80007B6994E0FB68DB68002B11D0FB68DB6821
:109F90001B7859B2BA687B68081C111C1A1CFFF7A1
:109FA00013FD031C7B617B69002B01D07B697EE084
:109FB000FB681B8A002B11D0FB681A1C1032BB688F
:109FC00079680091101C02210622FFF7E9FD031CAD
:109FD0007B617B69002B01D07B6968E0FB681B8B90
:109FE000002B11D0FB681A1C1832BB6879680091ED
:109FF000101C03210722FFF7D3FD031C7B617B6943
:10A00000002B01D07B6952E0FB681B8C002B11D028
:10A01000FB681A1C2032BB6879680091101C14215F
:10A020001522FFF7BDFD031C7B617B69002B01D06E
:10A030007B693CE0FB689B6A002B0FD0FB68996A48
:10A04000BA687B68081C111C1A1CFFF71FFE031C52
:10A050007B617B69002B01D07B6928E0FB68DB6AB0
:10A06000002B0FD0FB68D96ABA687B68081C111CEA
:10A070001A1CFFF75FFE031C7B617B69002B01D07C
:10A080007B6914E0FA683423D35C002B0ED0F968A6
:10A09000BA687B68081C111C1A1CFFF7B1FE031C70
:10A0A0007B617B69002B01D07B6900E07B69181C18
:10A0B000BD4606B080BDC04680B582B000AF7860B6
:10A0C0007B689B88002B0AD07B689B68002B06D09E
:10A0D0007B689B681B781A1C0423134001D107235B
:10A0E00000E00023181CBD4602B080BD80B582B0E0
:10A0F00000AF78607B689B88002B01D0072300E0CD
:10A100000023181CBD4602B080BDC04680B596B085
:10A1100000AF786039603B1C4B3300221A703B1C47
:10A120004A3300221A707B68002B1FD07B68181CF2
:10A13000FFF7C2FF031CFB64FB6C002B01D0FB6C20
:10A1400046E079683A1C28323B1C4B33081C111C32
:10A150001A1CFFF7D5FE031CFB64FB6C002B01D01F
:10A16000FB6C35E03B1C28337B6501E000237B65FD
:10A170003B68002B1FD03B68181CFFF7B7FF031C80
:10A18000FB64FB6C002B01D0FB6C21E039683A1CAE
:10A1900008323B1C4A33081C111C1A1CFFF7B0FE86
:10A1A000031CFB64FB6C002B01D0FB6C10E03B1C20
:10A1B00008333B6501E000233B653B1C4B331978BA
:10A1C0003B1C4A331B78786D3A6DFFF7E5F9031CA9
:10A1D000181CBD4616B080BD80B584B000AFF860D5
:10A1E000B9607A600B4A7B68101C191C7F2206F04C
:10A1F000DDFA084A7F230021D154BB689AB2064B8E
:10A200001A80064BFA681A60034B1B88034B1B68C5
:10A2100072B6FEE7B0280020302900203429002043
:10A2200080B500AF6B46181CBD4680BD80B586B0BA
:10A2300000AF78600E4B1B687B61FFF7F1FF031CDA
:10A240003B617A693B69D31AFB607B68191C8831D2
:10A25000FB6880225200934201D980235B003A6957
:10A26000081C111C1A1C06F0B7F9BD4606B080BDCB
:10A270000060010080B584B000AFF860B960BB1D1C
:10A280001A800F4B01221A800D4BFA685A600C4B52
:10A29000BA1D12885A800B4ABB68101C191C7F22F9
:10A2A00006F084FA064A87230021D154044B181C77
:10A2B000FFF7BCFF0023181CBD4604B080BDC0469C
:10A2C000382900204029002070DF7047181CC04644
:10A2D00071DF7047181CC04672DF7047181CC046FB
:10A2E00073DF7047181CC04674DF7047181CC046E7
:10A2F00075DF7047181CC04676DF7047181CC046D3
:10A3000077DF7047181CC04678DF7047181CC046BE
:10A3100079DF7047181CC0467ADF7047181CC046AA
:10A320007BDF7047181CC0467CDF7047181CC04696
:10A330007DDF7047181CC0467EDF7047181CC04682
:10A340007FDF7047181CC04680DF7047181CC0466E
:10A3500081DF7047181CC04682DF7047181CC0465A
:10A3600083DF7047181CC04684DF7047181CC04646
:10A37000B0DF7047181CC046B1DF7047181CC046DC
:10A38000B2DF7047181CC04690DF7047181CC046EB
:10A3900091DF7047181CC04692DF7047181CC046FA
:10A3A00093DF7047181CC04694DF7047181CC046E6
:10A3B00095DF7047181CC04696DF7047181CC046D2
:10A3C00097DF7047181CC04698DF7047181CC046BE
:10A3D000A0DF7047181CC046A1DF7047181CC0469C
:10A3E000A2DF7047181CC046A3DF7047181CC04688
:10A3F000A4DF7047181CC046A5DF7047181CC04674
:10A40000A6DF7047181CC046A7DF7047181CC0465F
:10A41000A8DF7047181CC046A9DF7047181CC0464B
:10A42000AADF7047181CC04660DF7047181CC04682
:10A4300061DF7047181CC04662DF7047181CC046B9
:10A4400063DF7047181CC04664DF7047181CC046A5
:10A4500065DF7047181CC04666DF7047181CC04691
:10A4600067DF7047181CC04668DF7047181CC0467D
:10A4700069DF7047181CC04680B582B000AF7860B5
:10A480007B681B781A1C7B6801331B781B029BB20C
:10A4900013439BB29BB2181CBD4602B080BDC046A0
:10A4A00090B585B000AF78603C1C0E347B68181CFA
:10A4B000FFF7E2FF031C23803B1C0E331A880123A5
:10A4C00013405A1E9341DBB2181CBD4605B090BD27
:10A4D00080B582B000AF78607B685A88084B1B88D3
:10A4E0009A4207D37B685A88054B5B889A4201D809
:10A4F000012300E00023181CBD4602B080BDC04609
:10A50000DC2A002080B586B000AF7860294B1A881D
:10A51000294B9A424BD0294B1B780133DAB2274B97
:10A520001A70274B1A7B254B1B789A4216D3214B66
:10A530001A88244B101C191CFFF7DAFE031C7B61E0
:10A540007B69002B09D01E4B9B69002B05D01C4B4F
:10A550009B697A69101C984729E028E0174B002274
:10A560001A70174B1B7C002B13D0124B1B88181C26
:10A570003B21FFF7C1FE031C3B613B69002B08D068
:10A580000F4B9B69002B04D00D4B9B693A69101C43
:10A5900098470B4B5B69002B09D03B1C0C33002206
:10A5A0001A70074B5B693A1C0C32101C9847BD4669
:10A5B00006B080BDE62A0020FFFF0000E42A00204C
:10A5C000C02A0020DC2A002090B585B000AF78605A
:10A5D000214B7A6813CA13C313CA13C312681A60D3
:10A5E0001E4B00221A707B681B68002B15D07B68FD
:10A5F0001B681B4A111C1A1C0823081C111C1A1C5E
:10A6000005F0EAFF164B181CFFF786FE031CFB60E3
:10A61000FB68002B0CD0FB6819E0114B181CFFF7EE
:10A620007FFE031CFB60FB68002B01D0FB680EE083
:10A630000C4B012252421A800B4B00221A700B4A1B
:10A640000B4B101C00211A1C01F068FA031C181C8B
:10A65000BD4605B090BDC046C02A0020F42A0020A7
:10A66000DC2A0020E62A0020E42A0020F02A00202C
:10A6700005A5010080B500AF044B1B68181C01F054
:10A680000BFB031C181CBD4680BDC046F02A0020F1
:10A6900080B584B000AF284B181CFFF719FF031CCE
:10A6A00001225340DBB2002B33D0244B1B78002B0C
:10A6B0000CD0234B5B69002B2AD03B1D00221A7063
:10A6C0001F4B5B693A1D101C98472EE01D4B1B78F1
:10A6D000002B03D11A4B5B68FB6002E0184B9B68B0
:10A6E000FB60194B1A68FB68101C191C002201F052
:10A6F0008DFA031CBB60BB68002B09D0104B9B6913
:10A70000002B05D00E4B9B69BA68101C98470CE0D3
:10A710000BE00B4B5B69002B07D03B1C01221A702E
:10A72000074B5B693A1C101C9847044B00221A70B7
:10A73000BD4604B080BDC046E82A0020F42A0020AF
:10A74000C02A0020E42A0020F02A002080B582B030
:10A7500000AF78607B689A880B4B1A800B497A6847
:10A760000E23D2180823081C111C1A1C05F034FFF4
:10A77000074B00221A70074BDB89002B01D1FFF732
:10A7800087FFBD4602B080BDE62A0020E82A0020EF
:10A79000E42A0020C02A002080B584B000AF786091
:10A7A0000E4B012252421A800D4B00221A700D4BA3
:10A7B0001B68181C01F070FA031CFB60FB68002B7F
:10A7C00008D0094B9B69002B04D0074B9B69FA68A2
:10A7D000101C9847BD4604B080BDC046E62A002044
:10A7E000E42A0020F02A0020C02A002080B584B08E
:10A7F00000AF78607B680633FB60FB681A88144BF7
:10A80000DB899A4221D1FB681B8B022B1DD1FB688F
:10A810001A33181CFFF744FE031C002B02D0FFF76D
:10A8200037FF12E00B4B1B68181C01F035FA031CB4
:10A83000BB60BB68002B08D0054B9B69002B04D084
:10A84000034B9B69BA68101C9847BD4604B080BD95
:10A85000C02A0020F02A002080B582B000AF7860C6
:10A8600007497A680623D2180823081C111C1A1CF1
:10A8700005F0B2FEFFF70CFFBD4602B080BDC0463A
:10A88000E82A002080B582B000AF78607B681B8822
:10A89000112B0DD002DC102B05D018E0122B11D09B
:10A8A000502B0AD013E07B68181CFFF74FFF0EE017
:10A8B0007B68181CFFF770FF09E07B68181CFFF726
:10A8C00095FF04E07B68181CFFF7C6FFC046BD4635
:10A8D00002B080BD80B584B000AF7860204A7B684C
:10A8E000111C1A1C0823081C111C1A1C05F074FEEC
:10A8F0001B4B181CFFF710FD031CFB60FB68002BB3
:10A9000029D1184B181CFFF7E3FD031C012253400B
:10A91000DBB2002B0FD0144B01221A70134B1A8894
:10A920000F4B101C191CFFF7E3FC031CFB60104BC2
:10A9300001221A700FE00F4B5B69002B09D03B1C02
:10A94000083301221A700B4B5B693A1C0832101C49
:10A9500098470023FB60FB68181CBD4604B080BD0F
:10A96000DC2A0020E82A0020F42A0020E62A002021
:10A97000E42A0020C02A002080B582B000AF7860B1
:10A980007A68032313405A425341DBB2181CBD4678
:10A9900002B080BD80B582B000AF021CFB1D1A70F2
:10A9A000064BFA1D1278111C1F220A400121081CB7
:10A9B0009040021C1A60BD4602B080BD00E100E07C
:10A9C00080B582B000AF021CFB1D1A70074AFB1D48
:10A9D0001B78191C1F230B400121081C9840031CE5
:10A9E000191C8023D150BD4602B080BD00E100E0BB
:10A9F00080B582B000AF021CFB1D1A70084AFB1D17
:10AA00001B78191C1F230B400121081C9840031CB4
:10AA1000191C80235B00D150BD4602B080BDC046EA
:10AA200000E100E080B582B000AF021CFB1D1A708F
:10AA3000084AFB1D1B78191C1F230B400121081C11
:10AA40009840031C191CC0235B00D150BD4602B0C6
:10AA500080BDC04600E100E0B0B582B000AF021C8E
:10AA60003960FB1D1A70FB1D1B787F2B32D93049D2
:10AA7000FB1D1B781A1C0F231340083B98082C4A17
:10AA8000FB1D1B781C1C0F232340083B9B0806332F
:10AA90009B00D3185B68FA1D1278141C0322224015
:10AAA000D200FF24251C95402A1CD2431A403B6843
:10AAB0009C01FF231C40FB1D1B781D1C03232B4006
:10AAC000DB00251C9D402B1C1A43831D9B00CB18CB
:10AAD0005A6029E0174BFA1D127852B292081549B4
:10AAE000F81D007840B28008C03080004158F81D41
:10AAF0000078041C03202040C000FF24251C854052
:10AB0000281CC043084039688C01FF210C40F91D06
:10AB100009780D1C03212940C900251C8D40291CE2
:10AB20000143C0329200D150BD4602B0B0BDC04614
:10AB300000ED00E000E100E080B582B000AF021C53
:10AB4000FB1D1A70FB1D1B787F2B16D9164AFB1DA7
:10AB50001B78191C0F230B40083B9B0806339B00F6
:10AB6000D3185A68FB1D1B78191C03230B40DB000C
:10AB7000DA40FF2313409B0911E00C4BFA1D1278B9
:10AB800052B29208C0329200D258FB1D1B78191C99
:10AB900003230B40DB00DA40FF2313409B09181C02
:10ABA000BD4602B080BDC04600ED00E000E100E01F
:10ABB00023DF7047181CC04624DF7047181CC046AE
:10ABC00025DF7047181CC04626DF7047181CC0469A
:10ABD00027DF7047181CC04628DF7047181CC04686
:10ABE00029DF7047181CC0462ADF7047181CC04672
:10ABF0002BDF7047181CC0462CDF7047181CC0465E
:10AC00002DDF7047181CC0462EDF7047181CC04649
:10AC10002FDF7047181CC04630DF7047181CC04635
:10AC200031DF7047181CC04632DF7047181CC04621
:10AC300035DF7047181CC04636DF7047181CC04609
:10AC400033DF7047181CC04634DF7047181CC046FD
:10AC500037DF7047181CC04638DF7047181CC046E5
:10AC600039DF7047181CC0463ADF7047181CC046D1
:10AC70003BDF7047181CC0463CDF7047181CC046BD
:10AC80003DDF7047181CC0463EDF7047181CC046A9
:10AC90003FDF7047181CC04641DF7047181CC04694
:10ACA00042DF7047181CC04643DF7047181CC0467F
:10ACB00040DF7047181CC04644DF7047181CC04670
:10ACC00045DF7047181CC04646DF7047181CC04659
:10ACD00047DF7047181CC04648DF7047181CC04645
:10ACE00049DF7047181CC0464ADF7047181CC04631
:10ACF0004BDF7047181CC0464CDF7047181CC0461D
:10AD00004DDF7047181CC04651DF7047181CC04605
:10AD100052DF7047181CC04621DF7047181CC04620
:10AD200020DF7047181CC04622DF7047181CC04641
:10AD30004EDF7047181CC0464FDF7047181CC046D6
:10AD400050DF7047181CC04680B582B000AF7860F5
:10AD5000C046C046C046C046C046C046C046C046C3
:10AD6000C046C046C046C046C046C0467B68013BA0
:10AD70007B60002BECD1BD4602B080BD80B582B0B7
:10AD800000AF0C4B5B68DB05DB0D7B607B68002B49
:10AD90000BD07B68103B3B603B68DBB25BB2181C9E
:10ADA000FFF7CAFE031CDBB200E00423181CBD46FB
:10ADB00002B080BD00ED00E080B582B000AF7860E9
:10ADC000054AA123DB007968D15011200321FFF748
:10ADD00043FEBD4602B080BD0010014080B500AF0B
:10ADE0000E4AD1239B0080214902D1500B4AC12336
:10ADF0009B0080214902D1501120FFF713FE112042
:10AE0000FFF7C8FD054B01221A602F20FFF79CFFBA
:10AE1000034B01221A70BD4680BDC04600100140A0
:10AE2000202B002080B500AF1120FFF7C9FD104A8C
:10AE3000D2239B0080214902D1500D4AC2239B009E
:10AE400080214902D1500A4B01225A602F20FFF77E
:10AE50007BFF074B01229A60064B00221A602F20CD
:10AE6000FFF772FF044B00221A70BD4680BDC0463A
:10AE7000001001400C2B0020202B002080B500AFDB
:10AE8000024A034BD358181CBD4680BD0010014038
:10AE90000405000080B582B000AF786039607A6840
:10AEA0003B68D31A1B021B0A181CBD4602B080BDAA
:10AEB00080B582B000AF7860034AA823DB007968D0
:10AEC000D150BD4602B080BD0010014080B586B0B3
:10AED00000AF78604C4B19687A68131CDB009B1834
:10AEE0009B00CB18BB60494B1B68013303D1474B18
:10AEF0007A681A6084E0BB685968434B1868434B12
:10AF00001A68131CDB009B189B00C3185B689942EE
:10AF10001ED83D4B19683D4B1A68131CDB009B186B
:10AF20009B00CA18384B1868384B19680B1CDB009B
:10AF30005B189B00C3185968BB685B68CB1A5360E9
:10AF4000324B1A68BB681A62304B7A681A6057E055
:10AF5000BB685B68FB602D4B1B687B612B4B1B68E0
:10AF60003B6117E0284B19683A69131CDB009B18FA
:10AF70009B00CB185B68FA68D31AFB603B697B6166
:10AF8000214B19683A69131CDB009B189B00CB18F6
:10AF90001B6A3B613B6901330BD01B4B19683A6953
:10AFA000131CDB009B189B00CB185A68FB689A4265
:10AFB000D8D33B69013313D0134B19683A69131C7A
:10AFC000DB009B189B00CA180F4B186839690B1CD3
:10AFD000DB005B189B00C3185968FB68CB1A5360F1
:10AFE000BB68FA685A60BB683A691A62064B19680E
:10AFF0007A69131CDB009B189B00CB187A681A62D5
:10B00000BD4606B080BDC046FC2A0020082B0020AB
:10B0100080B586B000AF7860394B1B687B617B6977
:10B020003B6110E03A697B689A4200D10EE03B69CF
:10B030007B61344B19683A69131CDB009B189B0039
:10B04000CB181B6A3B613B690133EBD13B69013390
:10B0500000D152E07A693B699A4211D1294B1968B3
:10B06000274B1A68131CDB009B189B00CB181A6A2D
:10B07000234B1A60224B1B68013301D1FFF7D2FE2C
:10B08000204B19683A69131CDB009B189B00CB18F6
:10B090005B68FB601B4B19687A69131CDB009B180B
:10B0A0009B00CA18174B186839690B1CDB005B182A
:10B0B0009B00C3181B6A1362124B19687A69131C30
:10B0C000DB009B189B00CB181B6A3B613B6901337B
:10B0D00013D00C4B19683A69131CDB009B189B00BA
:10B0E000CA18084B186839690B1CDB005B189B00F9
:10B0F000C3185968FB68CB185360BD4606B080BDC5
:10B10000082B0020FC2A002080B500AF1120FFF79B
:10B110006FFCBD4680BDC04680B500AF1420FFF770
:10B1200067FCBD4680BDC04680B584B000AF786086
:10B13000144B1B68002B1BD0124B1A687B68996953
:10B140007B68DB69081C191C9047031CFB60FB68CB
:10B15000BB60BB68002B0AD0B96864231A1CFF329D
:10B16000094B081C111C1A1CFBF780FA06E005E0CD
:10B170007B689A697B68DB69181C9047BD4604B000
:10B1800080BDC0461C2B00204C0B020080B584B053
:10B1900000AF2B4B1B6801334FD000237B60FFF7C0
:10B1A0006DFE021C274B1B68101C191CFFF772FE5A
:10B1B000031CBB60224B1B68FB601FE0224B19681D
:10B1C000FA68131CDB009B189B00CB183B603B68A4
:10B1D0005A68BB689A4200D913E03B685B68BA685A
:10B1E000D31ABB603B685B687A68D3187B603B68A6
:10B1F0001B6AFB603B68181CFFF796FFFB68013376
:10B20000DCD1124B1A78124B1B789A420CD1104B9E
:10B210001B780133DAB20E4B1A700D4B1B78022BE0
:10B2200002D10B4B00221A70094B1B781A1C094BD8
:10B2300092007968D150FFF76FFFBD4604B080BD22
:10B24000082B00200C2B0020FC2A0020182B0020AB
:10B25000192B0020102B002080B582B000AF786041
:10B26000184B1A78184B1B789A4223D0154B1B7831
:10B270000133DAB2134B1A70124B1B78022B02D136
:10B28000104B00221A700F4B1B781A1C0F4B9200A8
:10B29000D2587B681A607B681A680D4B1B68D218FD
:10B2A0000B4B1A600A4B1B681B021A0A084B1A60E8
:10B2B000012303E07B6800221A600023181CBD46AE
:10B2C00002B080BD182B0020192B0020102B00206D
:10B2D0000C2B002080B586B000AF434B1B683B6150
:10B2E0003B1C1733414A12781A7068E0404B1A68C9
:10B2F0003B1C17331B78DB00D318FB603B1C163359
:10B30000FA6812781A7053E0FB6859683B1C1633D0
:10B310001A78131C5B009B18DB00CB18BB603B1C2E
:10B3200016331A783B1C163301321A70FB689B786F
:10B330003A1C163212789A4203D13B1C1633002273
:10B340001A70BB681B78022B02D0032B2AD02FE087
:10B35000284B1968BB685A68131CDB009B189B00BC
:10B36000CB187B607B681B7D002B08D0BB685B68BB
:10B37000181CFFF74DFE7B6800221A7518E017E0D5
:10B380001C4B1968184B1A68131CDB009B189B0098
:10B39000CB183B603B6800221A753B681A6A124B57
:10B3A0001A6000E0C046104B1B680133E8D1C0466C
:10B3B000FB685B783A1C163212789A42A4D13B1C87
:10B3C00017331B783A1C1732591E1170002B8DD180
:10B3D000054B1A683B69D31A5A1E9341DBB2181CFD
:10B3E000BD4606B080BDC046082B0020002B0020C3
:10B3F000042B0020FC2A002080B588B000AFF86044
:10B40000B9607A600023FB6142E0254B1968254B47
:10B410001A68131CDB009B189B00CB18BB61BB692F
:10B420005A68FB689A4206D9BB695A68FB68D21A07
:10B43000BB695A6030E0BB695B68FA68D31AFB608D
:10B44000BB695B68FA69D318FB61BB6900225A606B
:10B45000BB6900221A75134B1B687B61BB691A6AB2
:10B46000104B1A60BB691B69002B11D0BA68FB69CD
:10B47000D3181B021A0ABB699A60BB691A69BB69B7
:10B48000DA607B681A68BB691A627B687A691A603D
:10B49000044B1B680133B8D1BD4608B080BDC0461F
:10B4A000FC2A0020082B002080B58AB000AF78600D
:10B4B000624B1B68BB613B1C2733614A12781A70D0
:10B4C000A7E0604B1A683B1C27331B78DB00D318BE
:10B4D0007B6193E07B6801330ED07B683B625A4B03
:10B4E00019683A6A131CDB009B189B00CB18FB61A0
:10B4F000FB691B6A7B603EE07B6959687B691B784E
:10B500001A1C131C5B009B18DB00CB183B617B698A
:10B510001B780133DAB27B691A707B691A787B6910
:10B520009B789A4202D17B6900221A703B695B6862
:10B530003B62454B19683A6A131CDB009B189B0061
:10B54000CB18FB613B691B78012B03D1FB691B7D89
:10B55000002B00D052E03B699A68FB699A603B6916
:10B56000DA68FB69DA603B691A69FB691A613B6951
:10B570005A69FB69DA61FB699A68344B1B68D31A14
:10B580001B021A0A324B9A420ED8FB699A682F4B5B
:10B590001B68101C191CFFF77DFC021CFB69DB6893
:10B5A000D218FB695A6018E0284B1A68FB699B683F
:10B5B000101C191CFFF76EFC031CFB60FB69DA68AA
:10B5C000FB689A4206D9FB69DA68FB68D21AFB6904
:10B5D0005A6002E0FB6900225A60FB6900229A600F
:10B5E000FB690022DA60FB6901221A75FB690122FE
:10B5F00052421A623B6A181CFFF768FC7B680133F1
:10B6000000D067E77B691A787B695B789A4200D043
:10B6100060E73B1C27331B783A1C2732591E1170F8
:10B62000002B00D04DE7054B1A68BB69D31A5A1E90
:10B630009341DBB2181CBD460AB080BD082B002028
:10B64000002B0020042B0020FC2A00200C2B0020C3
:10B65000FEFF7F0090B589B000AF78602A4B1B6871
:10B6600001334CD0294B1968274B1A68131CDB0097
:10B670009B189B00CB185B68FB61FFF7FFFB031C6B
:10B68000BB61234B1B687B61BA697B69101C191C69
:10B69000FFF700FC031C03333B611E4B1B780122A8
:10B6A0005340DBB2002B01D0FFF798FBFA693B69EE
:10B6B000934200D2131C7A69D3187B617B691B0209
:10B6C0001B0A7B617B69181CFFF7F2FBFFF7D6FBB7
:10B6D000031CFB60FA68BB69101C191CFFF7DAFB3E
:10B6E000031CDC1C7A69BB69101C191CFFF7D2FB18
:10B6F000031C9C4202D9FFF707FD02E001E0FFF7BF
:10B7000091FBBD4609B090BD082B0020FC2A00200B
:10B710000C2B0020202B002090B587B000AF012318
:10B720005B427B601D4B1B683B611D4B1B68FB60D4
:10B730003C1C0B343B1C181CFFF78EFD031C2370B4
:10B740003C1C1734FFF7C6FD031C23703B1C0B3356
:10B750001B78002B0BD039683A693B1D081C111C63
:10B760001A1CFFF749FE3B1C173301221A707B6835
:10B77000181CFFF799FE031C002B03D03B1C17334A
:10B7800001221A703B1C17331B78002B03D0FB6877
:10B79000181CFFF75FFFBD4607B090BD0C2B0020C3
:10B7A000082B002080B582B000AF786039603B681C
:10B7B000DAB27B685A70BD4602B080BD80B584B0F5
:10B7C00000AF786039607B685B780133FB607B6831
:10B7D0009B781A1CFB689A4201D10023FB607B68AE
:10B7E0001B781A1CFB689A4201D100230EE03B68CB
:10B7F000FA681A607B6859687B685B781A1C131CAE
:10B800005B009B18DB00CB18BB60BB68181CBD46F7
:10B8100004B080BD80B586B000AFF860B9607A60D2
:10B820003B601B4B1A68FB68DB00D2183B1C1033D3
:10B83000101C191CFFF7C2FF031C7B617B69002BE6
:10B8400001D1042320E07B6901221A707B69BA6868
:10B850005A60FFF713FB021C7B699A607B697A6868
:10B86000DA607B693A681A617B693A6A5A61084B07
:10B870001A68FB68DB00D2183B69101C191CFFF723
:10B8800091FFFFF749FC0023181CBD4606B080BDA0
:10B89000042B002080B584B000AF78603960144B71
:10B8A0001A687B68DB00D2183B1C0833101C191C7B
:10B8B000FFF784FF031CFB60FB68002B01D104230E
:10B8C00012E0FB6802221A70FB683A685A60084B63
:10B8D0001A687B68DB00D218BB68101C191CFFF7C4
:10B8E00061FFFFF719FC0023181CBD4604B080BDA2
:10B8F000042B002080B584B000AF7860144B1A6828
:10B900007B68DB00D2183B1C0833101C191CFFF7A6
:10B9100055FF031CFB60FB68002B01D1042313E0DF
:10B92000FB6803221A70FB68012252425A60084BDE
:10B930001A687B68DB00D218BB68101C191CFFF763
:10B9400031FFFFF7E9FB0023181CBD4604B080BDA2
:10B95000042B002080B500AF104AA0235B0000211B
:10B96000D1500E4AA2235B000021D1500B4AA423E0
:10B970005B000021D150094AA6235B000021D15071
:10B98000064A80235B000021D150044A82235B00D9
:10B990000021D150FFF7FAFBBD4680BD00100140E9
:10B9A00080B500AFFFF7B8FEBD4680BD80B586B05C
:10B9B00000AFF8607B603B1C0B3319703B1C0A33F3
:10B9C0001A707B68181CFEF7D7FF031C0122534036
:10B9D000DBB2002B01D0072389E07B68002B01D16B
:10B9E000072384E0FFF71EFA434B3A6A1A60434B81
:10B9F0003A1C0B3212781A70414B7A681A60002395
:10BA00007B6116E03E4B19687A69131CDB009B18BA
:10BA10009B00CB1800221A70394B19687A69131CE5
:10BA2000DB009B189B00CB1800221A757B69013341
:10BA30007B613B1C0B331A787B699A42E2DC3B1C2E
:10BA40000B331A78131CDB009B189B007A68D31801
:10BA50007B602C4B03221A702B4B7A681A607B6830
:10BA600018337B6000237B6120E0274B1A687B69D9
:10BA7000DB00D3183B613B6900221A703B6900224E
:10BA80005A703B693A1C0A3212789A703B697A689C
:10BA90005A603B1C0A331A78131C5B009B18DB00AE
:10BAA0007A68D3187B607B6901337B617B69022BE9
:10BAB000DBDD164B012252421A60154B00221A7030
:10BAC000144B00221A701420FEF7ACFF142003213F
:10BAD000FEF7C2FF1420FEF75DFFFB68181CFFF79E
