:20000000C0070000D1060000D1000000B106000000000000000000000000000000000000BA
:20002000000000000000000000000000510700000000000000000000DB000000E5000000A8
:20004000EF000000F9000000030100000D01000017010000210100002B010000350100000A
:200060003F01000049010000530100005D01000067010000710100007B0100008501000068
:200080008F01000099010000A3010000AD010000B7010000C1010000CB010000D5010000C8
:2000A000DF010000E9010000F3010000FD01000007020000110200001B0200002502000024
:2000C0001FB5C046C04600F0EFFA04B00FB41FBD08205A49096809580847382057490968BF
:2000E000095808473C2055490968095808474020524909680958084744205049096809584A
:20010000084748204D490968095808474C204B49096809580847502048490968095808472E
:2001200054204649096809580847582043490968095808475C2041490968095808476020CF
:200140003E4909680958084764203C49096809580847682039490968095808476C20374996
:20016000096809580847702034490968095808477420324909680958084778202F4909687F
:20018000095808477C202D4909680958084780202A49096809580847842028490968095861
:2001A0000847882025490968095808478C2023490968095808479020204909680958084746
:2001C00094201E4909680958084798201B490968095808479C201949096809580847A020A7
:2001E0001649096809580847A4201449096809580847A8201149096809580847AC200F49D6
:20020000096809580847B0200C49096809580847B4200A49096809580847B8200749096896
:2002200009580847BC200549096809580847000003480449024A034B7047000000000020BA
:20024000C0070000C00700000122D84B5A6000BFD74A1268002AFBD0016000BFD44A126809
:20026000002AFBD00022D14B5A6000BFD04A1268002AFBD07047F0B505460E4617460024CD
:2002800006E0A200B158A2005019FFF7DDFF641CBC42F6D30020F0BD0120C043C549086042
:2002A0004010486070470146012292040868904201D9102070470020FCE7F0B505460C4647
:2002C0001646002706E028462168FFF7BDFF2D1D241D7F1CB742F6D3F0BD70B505460C46B5
:2002E0002E460BE0304600F075F9FF2C01D8002401E0FF3C013C012080023618002CF1D16B
:2003000070BD0146012292044868904201D909207047A9484069401C01D10F20F8E700207E
:20032000F6E7FEB504462068030000F037FA05042B4249598B00201DFFF7E3FF0546002D07
:2003400001D02846FEBDFFF7A7FF0120C00200F041F9042221469948FFF78DFF002801D011
:200360000320EFE708222146944800F06DF9002806D1002192480068FFF766FF00F00CF90F
:200380000320DFE7A768E6686068019031463846FFF7A3FF324638460199FFF78EFFB2006C
:2003A0003846019900F050F9002800D1CAE70320C8E700F0E3F9834800688349086041E01C
:2003C00060680190E668A0680090B2000099019800F03AF90746002F00D1B3E70E20B1E72A
:2003E000201DFFF760FF0546002D01D02846A9E76068002807D1FFF74FFF0320800200F083
:20040000E9F800F0C9F8FFF747FF0120C00200F0E1F8042221466948FFF72DFF002801D009
:2004200003208FE708222146644800F00DF9002806D1002162480068FFF706FF00F0ACF82F
:2004400003207FE700BF00207CE770B505460C46182D04D12068FFF764FF206002E0012091
:20046000206000BF00BF70BDF0B589B05248406903905248806881000398081802900398B2
:20048000000B01900121090302984018401E000B00900124002520462946019A00F0C4F841
:2004A0000022401E9141079106900126002730463946009A00F0B8F80022401E9141059157
:2004C0000490049BDB43059AD243069818430799114307910690374906980860079848602F
:2004E00009B0F0BD70B534484469344885684668AA003146204600F0A7F8002801D0002002
:2005000070BD0120FCE72D484068002801D0012000E000200546FFF7E5FF002807D0FFF759
:20052000BBFE0320800200F055F800F035F8FFF79BFF002D0ED0204846692048846847684E
:2005400021463046FFF7C9FE224639463046FFF7B4FE00BF00F020F810B5184844681A4802
:200560000460204600F0DCF810BD154800680068401C01D100BFFEE710480068002802D067
:20058000042806D101E0FFF7BEFFFFF7E5FF00BFFEE700BF00BFFEE7BFF34F8F0B480C49AB
:2005A000C860BFF34F8F00BFFEE7000000E5014000E4014000060040001000100008000026
:2005C000B8070000BC070000000000200400FA0500ED00E010B50146104B1A68084602234D
:2005E0000F4C636000BF0F4B1B68002BFBD0531C04D0904202D20A4B186101E0084B986068
:2006000000BF084B1B68002BFBD00023044C636000BF044B1B68002BFBD010BD00100010A5
:2006200000E5014000E4014010B5202A04DB0146203A9140002010BD914020239C1A03460F
:20064000E3401943904010BD034610B50B439B070FD1042A0DD308C810C9121FA342F8D00B
:2006600018BA21BA884201D9012010BD0020C04310BD002A03D0D30703D0521C07E000202C
:2006800010BD03780C78401C491C1B1B07D103780C78401C491C1B1B01D1921EF1D1184627
:2006A00010BD70477047704710B500F007F810BD014B1B68DB6818470000002019481A4972
:2006C0007047FFF7FBFFFFF7FBFC00BD20BFFDE71649174C24688C420BD1164B1B6899424F
:2006E0000CD1154B154A1360186810498842EDD00AE0134880F30888124B18470F4A1360BB
:2007000018680A498842E1D080F308880E49884204DD0E48026802210A4302605B681847D2
:200720000346DFE7C0070000C0070000FFFFFFFF000C0000141000100010000000000020B0
:20074000000400206B05000000200020240500400D48704502D1EFF3098101E0EFF30881C7
:20076000886902380078182802D1C046074A1047074A12682C3212681047000000B5054B16
:20078000054A9B58984700BDFDFFFFFF4B04000000000020001000000400000030B4744660
:2007A000641E2578641CAB4204D3635D5B00E31830BC18471D46F8E7000C00000010000017
:20100000981D002089500100F93D0000EF4F010000000000000000000000000000000000AC
:20102000000000000000000000000000F95001000000000000000000F93D0000F93D0000FA
:20104000655101006B510100F93D0000F93D0000F93D0000F93D0000F93D0000F93D0000D8
:2010600071510100F93D0000F93D000077510100F93D00007D5101008351010089510100C3
:20108000F93D0000F93D0000F93D0000F93D0000F93D0000F93D0000F93D0000F93D0000A0
:2010A0008F51010095510100F93D0000F93D0000F93D0000F93D0000F93D0000F93D000024
:2010C00000F002F813F0C1FF0CA030C8083824182D18A246671EAB4654465D46AC4201D1A3
:2010E00013F0B3FF7E460F3E0FCCB6460126334200D0FB1AA246AB4633431847544101008E
:2011000084410100103A02D378C878C1FAD8520701D330C830C101D504680C607047000024
:201120000023002400250026103A01D378C1FBD8520700D330C100D50B6070471FB5C04605
:20114000C04613F023FF04B00FB41FBD826902498161024810447047611100000100000031
:2011600001B41EB400B510F02FFC01B40198864601BC01B01EBD0000F0B440464946524654
:201180005B460FB402A0013001B50648004700BF01BC86460FBC8046894692469B46F0BCC0
:2011A00070470000C1100000401E00BF00BF00BF00BF00BF00BF00BF00BF00BF00BF00BF14
:2011C00000BFF1D17047000070B505460C46164602E00FCC0FC5103E102EFAD2082E02D3C5
:2011E00003CC03C5083E042E07D301CC01C5361F03E021782970641C6D1C761EF9D270BD74
:201200008307FF22DB0E9A408907090E994000280BDA0007000F0838830828489B001B18B4
:20122000D86990430843D8617047830824489B001B181868904308431860704710B50446BE
:2012400000210120FFF7DCFF00211820FFF7D8FF00210B20FFF7D4FF02211920FFF7D0FF1F
:2012600002210D20FFF7CCFF02210E20FFF7C8FF02210F20FFF7C4FF0221C81FFFF7C0FF85
:2012800003211620FFF7BCFF03211520FFF7B8FF204600F019F8002010BD6321018070472D
:2012A00010B500F03AF810BD0648704710B500F035F810BD704770477047000000ED00E0D4
:2012C00000E400E003F900C330B50446374D95B007202870A81CFFF7E0FF5920A88034481E
:2012E00001F03AFC0546072000F0DCF929462F4800F08CFA641E072C0AD83021684601702D
:20130000047101F0FAFA002802D009A800F0DDFC284601F083FE15B030BD7047F8B5234E98
:201320000446B61E307801270D46002807D0204660380B2808D8204601F0B8FB2BE0602CBB
:20134000F9D01C480860F8BD20466C38032803D8204601F0EDFB1EE0204670381F2803D8C6
:20136000204600F037F816E0204690380F2803D8204600F0BBF80EE02046A0380F2803D86B
:20138000204600F023F906E02046B0380F2804D8204600F000F9286000E02F60602CD2D11F
:2013A00028680028CFD13770F8BD00001A000020C53300000130000070477047704770473A
:2013C000704770477047704710B5012801D100F042FA10BD10B57038030013F0F3FE150CF3
:2013E00012161E22252C33383D41454950555C646C747B8085004A680878114603F0C3FFBA
:2014000010BD086804F027F810BD0C790B7B8A680868214604F02FF810BD086804F0A5F8F2
:2014200010BD03F06DFC10BD08884A6880B2114604F06AFA10BD0A790888114680B204F036
:20144000B6FA10BD087840B204F0C1FA10BD088880B204F0DDFA10BD086804F0ECFA10BDB0
:20146000086804F0FFFA10BD086804F028FB10BD088982B209C9194604F050FB10BD05C91E
:20148000114604F0A4FB10BD08884A6880B2114604F0BDFB10BD0B7908888A6880B21946BA
:2014A00004F011FC10BD0B7908888A6880B2194604F0CAFC10BD08884B688A6880B219467A
:2014C00004F008FD10BD08884A6880B2114604F053FD10BD088880B204F072FD10BD0888E8
:2014E00080B204F092FD10BD012010BD10B59038030013F067FE09060F161D242C363F4628
:201500004E0088888A6883B20888194680B205F0ADF910BD08884A6880B2114605F003FA00
:2015200010BD08884A6880B2114605F047FA10BD08884A6880B2114605F07DFA10BD08887C
:201540004B688A6880B2194605F0AEFA10BD088982B2888883B20888194680B205F0E3FAEE
:2015600010BD08894B6882B20888194680B205F018FB10BD08884A6880B2114605F048FB2D
:2015800010BD888882B20888114680B205F0DCFB10BD012010BD10B5B02805D0B12808D077
:2015A000B2280BD0012010BD088880B205F0BAFE10BD088880B205F0E5FE10BD08884B68A2
:2015C0008A6880B2194605F0EEFE10BD10B5A038030013F0F7FD0B070E172028323C434DC6
:2015E000545D65004B6808788A68194607F01FFA10BD88888A6883B20888194680B207F025
:201600002BFA10BD08884C68CB688A6880B2214607F032FA10BD08884B688A6880B2194620
:2016200007F04CFA10BD8888CB6884B208888A6880B2214607F06CFA10BD8888CB6884B269
:2016400008888A6880B2214607F08CFA10BD08884A6880B2114607F0C0FA10BD088982B217
:20166000888883B20888194680B207F0C0FA10BD08884A6880B2114607F0DDFA10BD08898F
:201680004B6882B20888194680B207F05AFB10BD08884B688A6880B2194607F017FC10BD8C
:2016A000012010BD10B507F0FEFC0FF0A7FF00F007F810F0F5F808F013FA08F09FF910BDA3
:2016C00001202B49C00308602A490020087003202949800288607047F8B5264D044628787F
:2016E000A04207D0002C05D0002803D023A14D2013F077FC2878A04213D02C700325002342
:201700002349AD021C48002C27D01B4A214E4032214F012C06D0022C13D018A16E2013F013
:2017200060FCF8BD0B6002230B604E6185601B4911625762091D91621749091DD162456002
:20174000F8BD0B6003230B604E610121C9028160134B9362D7624160F8BD0B600B608560BE
:20176000F8BD10B505A1772013F03BFC10BD000080E100E02000002000F501407372635C50
:2017800068616C5F63636D5F6161722E6300000000F500407C01002000F00040001100400B
:2017A000488100401CB50446002069460870204609F014F96946204608F0D2FF002803D178
:2017C000FBA1B62013F00DFC01A9204608F027FF002803D1F6A1BB2013F003FC68460078C7
:2017E0001CBD70B5F74D002428462C7620308471C47113F0F5FC2846403804702030847364
:20180000847484762C74AC7070BDEAE710B50C46ED4982888A8042884A80007808700846E9
:201820000A38847008F0D1FEFFF7DBFF20460AF039FAE44AE03211463839084614468138DF
:2018400009F03AF92146E0480BF0CEFC09F0BDF813F0C6FC10BD10B50120FFF7ADFD10BD75
:20186000F8B509F093FDD84DD64C0A3D022802D0207C00287CD0207E0026102819D1A0789A
:20188000002803D0CAA1D14813F0ABFBCD48E838817A89070DD50146267160398989E18094
:2018A000C17A217281896181C089A0810120A0702676C44F203FB87C002859D1C448694684
:2018C000808908F04DFF002805D06946687809784018687004E06B20B5A1000113F081FB39
:2018E000207C002838D0BA488189FF300930406D8089814204D0B548ADA1223013F071FB4F
:20190000B348808908F0D2FF002804D1AF48A8A1283013F066FB09F040F800281CD0AC48C8
:201920008089FFF73FFF697840186870A5484038416D20318A7C012A0DD1A54A3E77928927
:20194000C287C87C20700120B876207E102801D0282800D1267626746978002908D09C4857
:201960008289FF300930C28601870120B8746E7009F0DCFC002805D1207C002802D0A87874
:2019800001F00EF9F8BDF8B50F460446FFF768FF8C4D403D28788B4E002813D0002F10D107
:2019A000307E002804D0FF2081A1C93013F019FB2C22A91C204613F077F90E202070002062
:2019C00028708FE07F4D203DA87B002818D0002FF7D1307E102808D0282806D0002804D0CD
:2019E000FF2073A1D53013F0FCFA0120E070E87BA070287C60700F2020700020A87371E013
:201A00000121204609F002F8002807D0307C002852D13946204608F0F9FFF8BDA97C6948F5
:201A20000C38009068480A38002913D00178052910D2002F56D1491C0170002666700D20F6
:201A40002070012028750622A01C009913F02CF9AE7447E05C4800210A380170B078002882
:201A600015D0002F3ED1307E002804D0432050A1C00013F0B6FA002565700120514920708D
:201A80000A22091DA01C13F00FF9B5702AE0394620460BF013FB002824D1A87C002805D0D2
:201AA000002F1FD148480A380178C4E7A87E002802D0307C002801D00020F8BD002F11D166
:201AC000307E002803D03AA1424813F08AFA002666700A203B4920700622091FA01C13F028
:201AE000E3F8AE760120F8BD10B53648017E002908D1007C012805D001210020FFF743FF59
:201B0000002801D0072010BD012010BD10B501240AF010F90443FFF7E7FF044308F056FF46
:201B200001462143084610BDF8B51D4614460E4608F095FD002807D0684608F09BFD002832
:201B400003D0002C07D101E00120F8BD214818A1303013F046FA08F039FDA04204D2272005
:201B600013A1000113F03DFA009808F0A7F93146009808F0B5F9E2B22946009808F06CFB97
:201B800008F08AFD002804D1124809A1403013F028FA08F01DFF0E4800244030417C00294C
:201BA00002D044740AF0B1F90948C480CCE700007372635C6C6C5F6374726C2E73302E63BD
:201BC00000000000200300202C00002093060000D80100203F02000010B50179002908D063
:201BE00001290BD0FF20FD49043013F0FAF9002010BD831D42880488022103E04288048812
:201C0000831D01212046FFF78FFF10BDF8B51F4615460E46044609F0B9FB022803D0F0485E
:201C2000007C00281FD0EF488089208008F03EFE002803D1E949EC4813F0D3F905246846F5
:201C400008F03FFE00280ED0009808F081F93070022809D0012807D008F073FE641E240687
:201C6000240EECD10020F8BD3946009808F00CFB2880002804D1DC48D849123013F0B1F9B1
:201C800008F05FFE002804D1D748D449193013F0A8F90120F8BD38B50446831D821C6946CF
:201CA000FFF7B4FF00280DD00020607168460078012808D0022806D0FF20C849253013F0D6
:201CC00090F9012038BD2071FBE700215BE670B5C34C0546403C2078002803D1C048007E7B
:201CE000002803D0BD49C14813F07BF903CD07F05DFA00202071012060713D21E170207063
:201D000070BD70B5B64C0546403C2078002803D1B348007E002804D0B448B0490D3813F062
:201D200060F9287808F083FF28780BF0A8FB00202071012060713921E170207070BD70B5C2
:201D4000A74D0446403D2878002803D1A448007E002804D0A548A149253813F042F9A14E65
:201D60002188B089884203D109F010FB022807D002202871012068713821E970287070BDB2
:201D80007F2070769748E17820304174A17801740020EEE710B5924C403C207800280BD143
:201DA0008F48007E002807D109F0F0FA032803D009F0F0FA032804D18B488849653013F0CE
:201DC00010F9874900202031C8712071012060713A21E170207010BD70B5814C0646403C3A
:201DE000207800280BD17E48007E002807D109F0CDFA032803D009F0CDFA032804D1652000
:201E00007649C00013F0EDF8754D2035E87908280CD2E8791022000100196830314600F029
:201E20002DFEE879401CE871002000E007202071012060713B21E170207070BDF8B5684DEB
:201E40000446403D2878002803D16548007E002804D0664861495F3813F0C3F8614F2188F2
:201E6000B889884203D109F091FA022801D0022022E03E8C64887200788CF98B521C9442EC
:201E800017D35B4A51439200504312F087FF401EFF2180B2F531884200D90846844200D213
:201EA0002046711C401C12F079FF761C7043401E86B2FE85EE8000202871012068713C217D
:201EC000E9702870F8BDF8B5454C0546403C2078002803D14248007E002804D043483F49AC
:201EE0008B3813F07EF8A878002801D0012804D1A888FF21F531884204D93C4837498538B1
:201F000013F06FF8374E2988B089884203D109F03DFA022807D0022020710120607136211D
:201F2000E1702070F8BD2F48002720308772A988B18501213176A978012900D000218172C5
:201F400028484030407C002801D009F0DEFF2771E3E770B5224C0546403C2078002807D1C2
:201F60001F48007E002803D109F010FA002804D0AD201A49C00013F034F8287809F0DDFEEE
:201F800000202071012060713021E170207070BD70B5134C0546403C2078002803D1104808
:201FA000007E002804D011480C490C3013F019F8287800280BD0012809D0022807D0687823
:201FC000402804D309480549133013F00AF8284609F0D3F900280DD000200CE0B01B0000CC
:201FE00020030020D8010020AD0200001A060000C40900000C202071012060713421E170B4
:20200000207070BD70B5FF4C05462078002808D120464030007E002803D109F0B7F900288E
:2020200003D0F949F94812F0DCFF2978002914D00A2912D0142910D01E290ED028290CD03B
:2020400032290AD04B2908D0642906D0FF2904D0EE48ED490E3012F0C4FF284609F0ECFEE0
:2020600000202071012060713321E170207070BD70B5E44C06462078251D002804D120467D
:202080004030007E002804D0E048DF49203812F0A8FF3146002008F09FFD2870002804D145
:2020A00006223146DA4812F0FFFD012060713221E170207070BD70B5D24C054620780028C0
:2020C00004D120464030007E002804D0CF48CE49383812F086FF00216956042914D000299C
:2020E00012D0081D10D0001D0ED0001D0CD0001D0AD0001D08D00A3006D0283104D0C348D1
:20210000C149363812F06DFFC24829780170012060713121E170207070BD10B5B94C207809
:20212000002804D120464030007E002804D0DF20B549C00012F055FF08F048FAE08008F0AD
:202140000DFB207200202071012060710521E170207010BDF8B5AB4C07462034A07B2546A3
:202160002035002805D1287E002802D1A878002804D0A648A449623812F033FF09F006F9AE
:202180001026022822D1A4483988808988421DD19C49483908460A7F6038807A002A03D0B2
:2021A00080070CD40C200CE0800708D40620087799484030407C002801D009F0A6FE2E7651
:2021C0000020E07326740120A073F8BD0220F8E710B58C4C2078002804D120464030007E82
:2021E000002804D089488849743812F0FAFE002020710E20A0700F20E070FF20A0710020DD
:20220000C04320818248C01D0178A1728188A1814088E08101206071207010BD10B5794CBA
:202220002078002804D120464030007E002804D0DF207549800012F0D4FE0821A01D0FF0C3
:2022400079FA00202071012060712B21E170207010BD70B56B4D04462878002804D128463C
:202260004030007E002804D019206749800112F0B8FE694810222146303800F0FFFB664808
:202280001022A118203800F0F9FB634830380FF058FB6149102210392C46A81D00F0EEFB7D
:2022A000002020710E20A0702A20E07001206071207070BDF8B5534C05462034A07B264674
:2022C0002036002802D1307E002803D04E49534812F087FEA978052912D0132910D01429C1
:2022E0000ED015290CD01A290AD0292908D03D2906D03B2904D049484349083012F071FE65
:2023000028884749884204D944483F49113012F068FE09F03BF80C212827022809D13E48E7
:202320002A888089904215D136484838027E002A01D0E17310E0A97841760121017637764F
:202340000020E07334484030407C002804D009F0DCFD01E00220E07327740120A073F8BDBA
:20236000F8B5284F064638783D1D002804D138464030007E002804D028482349163812F052
:2023800030FE3146012008F027FC01242870002807D11C48062260303146054612F084FC3F
:2023A000AC717C711720F8703C70F8BDF0B5194F85B0403F3D7A064612480078002804D180
:2023C0003846A038007E002803D00F49154812F008FE3078002806D0012804D035200A4926
:2023E000000112F0FEFD082D4CD20A4820380190C469307800283FD0012817D00948024999
:202400000F3011E0E0020020B01B0000750500002500002000040020D8010020630400007C
:20242000FF0E00004F03000012F0DBFD294608310120884004430120A84020430090B17965
:202440007279080210436900FE4C0919FF3101318881B01C12F089FC717800020843A900C2
:202460000919C031C862387A401C387201990098C8610020207108E02946083101208840E2
:202480008443D8E7EF48072101710121ED480B224171C270017005B0F0BD10B5E94C207818
:2024A000002804D120464030007E002803D0E649E64812F096FD12F093FE00202071012079
:2024C00060710A21E170207010BD10B509F0CDFB002804D0DD48DC49583812F082FD08F07D
:2024E00073FA08F056F80AF070FE002804D0D748D5494A3812F075FD08F0B5FA002804D0EF
:20250000D248D149463812F06CFD12F069FED04800240470FFF765F9CA48012104714171D6
:202520000222C270017010BD70B5C64D04462878002804D128464030007E002804D03D2033
:20254000C149000112F04DFD20781F2801D8601C04D1BE48BC49903012F043FD0020287155
:202560002078611C08F052FB012068712021E970287070BDF8B5B34C064620782546403538
:20258000002802D1287E002804D0B048AE499D3012F027FD3078012806D0002804D0AB4826
:2025A000A9499E3012F01DFD012060710C20207130780027A74E012808D008F0E7FE0328C3
:2025C00069D008F0E7FE032873D078E008F0DEFE002803D108F0DEFE002804D008F0D6FEB3
:2025E00002283DD06BE008F07DFA002867D0287C002864D1974802210C300FF024F8002809
:2026000006D00F21B089090212F0C8FBB18100E0B781012203218F4807F05EFE8D4808F023
:2026200003FCB08907F0D4FF002804D187488649B93012F0D6FCB089002108F0CDF9002800
:2026400004D082488049BD3012F0CBFC297F688B09F077FB002831D07C487B49C13017E0BE
:2026600008F098FE00282AD1287F002827D0012825D0042823D008F035FA00281FD0297FC0
:20268000688B09F05EFB002818D070486E49D53012F0A7FC12E0002009F086FA00280ED13A
:2026A0002771287C00280AD1B089FFF77BF806E0FFE7002009F078FA002800D127711B2016
:2026C000E07001202070F8BD70B55E4D04462878002804D128464030007E002804D05B4892
:2026E0005949813012F07DFC20781F2801D8601C04D156485449823012F073FC00202871EC
:202700002078611C08F096FA012068711A21E970287070BDF8B54B4D044628780C272E46F3
:20272000403600280AD1307E002807D108F02EFE032803D008F02EFE032804D17120424910
:20274000C00012F04EFC6079002801D0012829D1A079002801D0012824D1A07B002805D030
:20276000012803D0022801D003281BD1607B400718D0628801208003824202D821888142A9
:2027800001D920790CE02079002804D0022805D0032803D004E0202A12D20CE0A0290FD2A0
:2027A00001280DD02079042805D12088202802D36188884204D9254823495D3012F011FCAE
:2027C00020887083207930776079002802D0012803D00CE0204A002105E01A4A60329079F4
:2027E000002804D00121204608F080F9074601202F7168711821E9702870F8BD70B5114C9C
:2028000005462078002804D120464030007E002803D00D49114812F0E4FB08F0B7FD0C2120
:2028200002280ED10B482A8883899A4228D10246C032137F002B04D1807E0E2812D00F2890
:2028400010D00DE0E0020020B01B00004103000000040020D801002025000020D60400005E
:20286000217103E005201077002020710E20A0702E20E0702888E08001206071207070BDEB
:202880000220F2E770B5844C05462078002804D120464030007E002803D08049804812F086
:2028A000A0FB08F073FD0C2102280ED17D482A8883899A421FD10646C036327F002A04D19E
:2028C000807E0E2803D00F2801D0217109E072481022A91C1E3812F0E7F90420307700209A
:2028E00020710E20A0702D20E0702888E08001206071207070BD0220F2E710B501780B0069
:2029000012F060FC3E8B8B388B8B588B8B8B8B3B3E8B8B8B51548B8B8B8B8B8B42288B2C11
:20292000308B8B8B8B348B8B8B8B8B8B8B468B4A4E8B20248B6B5B5F63678B6F8B7E827B88
:202940007773868B001DFFF79DFF64E0001DFFF755FF60E0001DFFF7DDFE5CE0001DFFF7A5
:20296000B3FE58E0001DFFF705FE54E0001DFFF7DBFD50E0FFF7A9FD4DE0FFF78EFD4AE095
:20298000001DFFF713FD46E0001DFFF7E9FC42E0001DFFF78FFC3EE0001DFFF75AFC3AE095
:2029A000FFF73CFC37E0FFF713FC34E0001DFFF7D1FB30E0FFF7B1FB2DE0001DFFF77BFB92
:2029C00029E0001DFFF754FB25E0001DFFF71AFB21E0001DFFF7DCFA1DE0001DFFF7B9FAB2
:2029E00019E0001DFFF76FFA15E0001DFFF726FA11E0001DFFF7F0F90DE0FFF7CBF90AE0BC
:202A0000001DFFF79CF906E0001DFFF77AF902E0001DFFF75CF9012010BD002010BD10B5B8
:202A20001E49214812F0DDFA10BD70B51A4A012411461C4D4031030012F0C4FB05191C1C27
:202A400004191C0001220021164807F045FC12480021483801774177C03809F0EEF9002838
:202A600004D011480D49D33012F0BBFA70BD0C74556570BDEB200949C000F5E730B513464E
:202A800006E0CC18203CE47FD51A44555B1EDBB2002BF6D130BD0000E0020020B01B000073
:202AA000AA040000D80100205206000010B56038030012F087FB0A060A0F13181F262A313F
:202AC000363B086800F073FD10BD05C9114600F08DFD10BD086800F027FE10BD05C9114605
:202AE00000F02BFE10BD4B6808788A68194600F036FE10BD4B688A680868194600F04AFECF
:202B000010BD086800F05FFE10BD08884A6880B2114600F07BFE10BD05C9114600F0A6FEA4
:202B200010BD05C9114600F0BDFE10BD012010BD0120704701203F49400608603E4908601F
:202B40003E490A68FF231B029A4383121A430A60384980390860704710B5024604203849F9
:202B600004E0C3005B181B79002B0AD00346401EC0B2002BF5D133A1432012F032FAFF2014
:202B800010BDC300CA50002259184A718A7101220A7110BD2A4A0021C000801801717047C1
:202BA00010B50446042803D326A1522012F019FA2348E1000C182079012803D021A153207C
:202BC00012F00FFA6079A179401CC0B2814200D060710120174940068031086010BD70B5F3
:202BE000164800680004800F022803D015A1692012F0F7F9124E194C03252078C100881967
:202C00000279012A07D1427983799A4203D042798271705880472078401CC0B22070042871
:202C200001D30020207028466D1EEDB20028E4D170BD000080E100E080E200E018E400E00F
:202C40002C1200207372635C736F635F7369676E616C6C696E672E63000000003C000020B9
:202C600010B5EFF31080C407E40F72B6D6484178491C41704078012801D10FF04BF9002C28
:202C800000D162B610BD70B5CF4CE07800280AD10125E570FFF7E4FF0FF044F9002804D057
:202CA00000200FF017F9002070BDC84865714560F9E770B5EFF31080C507ED0F72B6C24C98
:202CC0006078002803D1C2A18F2012F08AF96078401E60706078002801D10FF01FF9002D6D
:202CE00000D162B670BD10B5B748C178002904D000214171C170FFF7DCFF002010BD10B53D
:202D000004460FF00FF9B049C978084000D001202060002010BDF8B50246AB4C0026A67159
:202D20000820042101251027130012F04BFA0D080A0C0E101214161E26212325280025719F
:202D400022E0022001E021711EE020711CE027711AE02020F9E7012616E0FFF781FF0FF00D
:202D6000E1F80028FBD002260EE02171A5710BE02771FBE7202000E040202071F6E7FF2057
:202D800093A17E3012F02DF90FF0D8F8002809D00FF0DAF8B04205D130460FF0D8F8002853
:202DA000FAD024E001208007C5608D4A002151608C4A9661854B02225A6085608A48036931
:202DC0000569DB43DB06DB175B1C10273D430561834D00E020BF6F68002FFBD0002B03D1A1
:202DE000076910239F430761784882606960A07900280CD00FF096F805460EF0F3FF7B4AD1
:202E0000002D02D0A260E06001E0E260A060002E01D100F0B1F8F8BD10B504460FF088F872
:202E2000002805D068490120C8704A78521C4A702046FFF770FF10BDF8B5694FB86800255F
:202E4000012802D1BD600FF045F87868012800D17D60386801265C4C012814D13D60607973
:202E6000002803D000200FF035F865712078002809D00FF057F8002805D05948C0388663CF
:202E800000060661A670386901282CD13D6100F068F8012080074661A079002815D00FF086
:202EA00041F800900EF09EFF0099002901D0E16800E0A168411A022901DA8A1C13DC00995A
:202EC000002901D0E06000E0A060FFF7C9FE0FF029F8002806D04248C03886630006066125
:202EE000A67000E02670F868012819D100F039F800F037F800F035F8A078002804D1FF2042
:202F000033A1053012F06DF8FD60A5702570FFF7D0FE0EF0DEFA002802D03148C038C6630C
:202F2000F8BD10B5284CE078002801D10EF0F6FF01208107886100F014F8A07800280BD0B5
:202F4000274CE068002803D10FF001F80028F8D10020E06000F005F800201C49C043886014
:202F600010BD08B55020694608806A461088411E11800028F9D108BDF8B514481927876001
:202F8000174900200860C8600EF0CCFFBD0701240D4E002805D01248C03884632C61B4702D
:202FA00000E03470FFF75CFE084847600D4930798863FFF7D6FFAC61FFF7D3FF084900204B
:202FC00008616C61F8BD000040000020000300407372635C736F635F636C6F636B2E63007E
:202FE000000100400005004000ED00E0FFFFFF7F10B504460BF08FF820460CF0A4F810BDA6
:2030000010FFFFFFDBE5B151006001006300FFFF03B40148019001BD09000020FE494870A8
:20302000704710B5030012F0CDF8080E050E08080B0B0E1104F09BF810BDFFF7D9FF10BDED
:203040000DF0E8FF10BD01F0A7FE10BDFF20F3A1AF3011F0C6FF10BD7FB5F44905464868CB
:203060008968082301910090F14A1946F1480EF08BFD0024F0480EF0A5FD641CE4B2082C73
:20308000F8D3EB490320803140020CF031F9002803D0E2A1D42011F0A4FF1E220221E7484D
:2030A0000AF0E9FCE5481E22032110300BF05DFAE2480722342174300AF036FCDF484C2102
:2030C000283011F050FEDD496A46743108464C380164FF317B31416401211172039002F0EC
:2030E000DAF802A80CF052FC002803D0CBA1E82011F077FFCF4802222421A8380AF014FCBA
:20310000CC4802222C215C380AF00EFCCC490B200EF082F8002803D0C0A1F52011F061FF08
:2031200004F00EF803F012FA04F06EFE6B4600220821C4A001F09EFF002803D0B7A1FC20D9
:2031400011F04FFF284605F079F9002803D0B3A1FE2011F046FF8521C900BD4811F003FE22
:20316000BB49B24A0020135C0C18401CC0B2E3700428F8D3A849002048608870C8707FBD5F
:2031800070B5B44E0546706A94B00C46401C04D1B06AC0430004000C0BD0306AC007C00FE4
:2031A0002870706A11F0F2FDB06A2071000A607114E02B206946087009A968460AF0FAFB72
:2031C000002804D0FF2095A1233011F00AFF0120287006220AA9204611F066FD287800281B
:2031E00003D06079C0210843607114B070BDF0B5984C0646206895B00D463746401C083728
:20320000002808D16068401C05D1A068401C02D1E068401C11D02068314611F0B7FD60687B
:20322000311D11F0B3FDA068394611F0AFFDE06831460C3111F0AAFD25E02B206946087040
:2032400009A968460AF0B6FB002804D0FF2073A14C3011F0C6FE08220AA9304611F024FD7E
:203260002B206946087009A968460AF0A3FB002804D0FF2069A1533011F0B3FE08220AA9AD
:20328000384611F011FD20692E46401C0836002808D16069401C05D1A069401C02D1E0698D
:2032A000401C12D02069294611F070FD6069291D11F06CFDA069314611F068FDE069294653
:2032C0000C3111F063FD15B0F0BD2B246846047009A90AF06FFB002804D0FF204FA17130AB
:2032E00011F07FFE082209AF0AA9284611F0DCFC6846047009A90AF05DFB002804D0FF2033
:2033000046A1783011F06DFE0822391D304611F0CBFCD8E710B5002108460EF00BFD0021DA
:2033200001200EF007FD002102200EF003FD002103200EF0FFFC002104200EF0FBFC002191
:2033400005200EF0F7FC10BD10B5414CA0780B2804D3FF2031A1C83011F043FE20786021D2
:20336000484300190830002101704178E722C908C900C91C11404170274A0121917010BD3B
:2033800070B5254CA07800280ED0314800250178491CC9B201700B2900D105708178491C39
:2033A00081700EF092FDA57070BD70B51A4C05466068002804D0FF2018A1F13011F011FEAA
:2033C000656070BD70B5144E214DFFF7BDFF71680446002907D06022FDF7F6FEFFF7D0FF02
:2033E00000207060F1E72879002876D011485C380AF0AAFA6060002803D108A1164811F0A7
:20340000F0FD60680AF0FEFA002833D0204600F070FF6078010721E0340000207372635C3C
:20342000686F73745F636F72652E6300F0510100040400200C12002023300000840A00208C
:20344000B41000206E52463531383232000000008C0C0020800000100E02000007D5C00884
:20346000C000401C60702879401E287126E0F748616829E0F54861680AF06FFA687900283F
:203480002BD0F2484C380AF05FFA6060002803D1EF49F04811F0A5FD60680AF0B7FA0028B6
:2034A00016D0204603F0A2FE6078010709D5C008C000801C60706879401E6871FFF760FF0E
:2034C00083E7E24861684C380AF047FA7DE704E0DE4861684C380AF040FA70BDF7B50546BD
:2034E0000078002700090C463E46062804D0D948D749223011F075FD287A00280ED0012875
:2035000014D09D20D249800011F06BFD0298002C068001D0278066800020FEBD0227092629
:20352000002C0ED0A889A080A87B08E003271426002C06D02869E060A88A2082287B2072E5
:20354000E4E702980680E7E770B50E4600211C4619801546030011F035FE0723050B171129
:20356000231D230022462946304603F00BFE70BD22462946304601F080F970BD22462946B7
:20358000304604F03CFB70BD22462946304603F011F870BD224629463046FFF79FFF70BDD9
:2035A000AC48AB49693011F01CFD032070BD10B5A94C2178002901D0082010BDFFF74CFD9F
:2035C00001202070002010BD0146A04810B54C380AF0C3F9A1494879401CC0B248710128C4
:2035E00003D19D484078FFF7DBFA10BDF8B505469B480F46814208D3002D01D0854204D358
:20360000E81C80088000A84201D01020F8BD93488178002911D039880091417860225143FF
:203620000C18083420783B460007000F00222146FFF78AFF060004D015E000203880052027
:20364000F8BD002D13D039880098814201D90C260DE020783B460007000F2A462146FFF794
:2036600073FF060005D00C2E01D0002038803046F8BD7A4D6878401CC0B268700B2801D19D
:2036800000206870A878401EA87061784807400F022810D00128EAD16C4861680AF05DF96A
:2036A0002879401CC0B228710128E0D16A484078FFF776FADBE7C806D9D46068FFF784FFDA
:2036C000D5E770B50446674816460D46814204D163205F49C00011F084FC012E05D06520D4
:2036E0005B49C00011F07DFC70BD5B480121C1706620207000202072A581A17370BD70B575
:2037000016460D46040001D1FFF71EFE662101700121017229680161A98881820673002CB9
:2037200001D1FFF72DFE70BD4D49884201D21020704707210170002070474B4A10B59042B3
:2037400008D30124A404464AA04201D3904201D3914201D2102010BD0DF097FD10BD424B47
:2037600010B5994208D30124A4043D4BA14201D3994201D39A4201D2102010BD022803D06A
:20378000102801D0092010BD0DF0A5FD0028FAD0052010BD344B10B598420CD30124A404DD
:2037A0002F4BA04201D3984205D3994203D3002A03D09A4201D2102010BD0DF0B2FD0028F9
:2037C000FAD0072010BD10B50446254894B0844202D2102014B010BD01F0C9FD002801D060
:2037E0001120F7E70F2008A9087369460BA80AF0E1F80028EED16846007A20706846408914
:20380000608068468089A0800020E3E710B5124C0846E17800290ED000280AD0104A904208
:2038200002D30368934201D2102010BD8288002A03D0012903D0082010BD092010BD04F0C0
:2038400047FB0028FAD10021E17010BDB01100201C34000031020000340000208C0C002084
:2038600000200020FFFF000000600100334A10B5914206D301229204914204D3304A91420B
:2038800001D21020E1E7421E1E2A02D800F019F8DBE70246203A1F2A02D801F08BFCD4E720
:2038A0000720D2E7264A10B5914201D21020CCE70246203A1F2A02D801F0D2FCC5E7072013
:2038C000C3E710B51D4A94B0914206D301229204914204D31A4A914201D210207AE7002400
:2038E000012803D0022817D0072073E70878C007C00F03D001206946087101E06846047104
:2039000039206946087009A968460AF053F8002812D00C498C200DE003C9029101903D203D
:203920006946087009A968460AF044F8002803D004499C2011F055FB20464BE7006001007C
:20394000002000201C3400008107C90E002808DA0007000F083880082C4A80008018C069D9
:2039600004E080082A4A800080180068C8400006800F704710B50D20FFF7E6FFC4B204202C
:20398000C043FFF7E1FFC0B2844203D021A11A2011F027FB10BD0121234A48031060234B9F
:2039A00000221A60224A5160224A1060224A11601D4980390860704701211B4A4803106015
:2039C0001D4A5160194A002111601A490860704710B516490868012804D00EA1562011F0A1
:2039E00000FB10BD154880680022C0B20A600DF0C7FE10BD10B50D4801680029FCD0FFF7BF
:203A0000E7FF01200B494003086010BD00ED00E000E400E07372635C736F635F68616C5F66
:203A2000726E672E6300000080E100E000D1004000D3004080E200E000D0004000D50040E2
:203A400030B40121BC48C9020160CD1005604A030260BA4803681B021B0A0360046800239E
:203A6000240A24020460B6480468240A24020460B448012444608460B34C23606360A3607B
:203A8000B24B19601D601A60B14B19601A600121016030BC704710B40121A748CC0204609D
:203AA0000A0202600B060360A64841608160A6490020086048608860A44804600260036098
:203AC00010BC70470121A148C9020160C91001607047002805D0012805D0022805D19D485B
:203AE00070479D4870479D48704710B59CA18B2011F077FA002010BD70B500219F4CA04DAD
:203B0000A04A914B002808D001281DD0022822D093A1B32011F065FA70BD01200004A060F4
:203B2000A86011601960984B42109A60974A9060814A0012106096480160874801609548FA
:203B400001609548017070BD01204004A060A8605160596070BD01208004A060A8609160E7
:203B6000996070BDF8B59446844A854D00240127754E002808D0012836D0022844D078A163
:203B8000E82011F02EFAF8BD891E0902090A012000049060346068607A4A1160012B21D0B7
:203BA00000217D4A7D4B517061463D31DC63DF637B4B5C6002249C6004241C61744B19607D
:203BC00074490F60614B89151960704B58606048016075487349C16086606B49600348603B
:203BE0001770F8BD0121DCE701205C4E40046F4F012B04D13460506068603960F8BD90608C
:203C0000346068603960F8BD0120524E8004684F012BF4D1EEE767484068704770B54A4D6E
:203C200028680026554C012806D1A068C00303D501200004A0602E606868012809D1A068FC
:203C4000800306D501204004A0606E6001200FF058F9A868012809D1A068400306D5012008
:203C60008004A060AE6002200FF04BF970BD10B549490878002818D00120434AC0039060D8
:203C8000424A400090602C4A00121060404A00201060314A10603F4A106008704A78002A0E
:203CA00002D048700FF02DF910BD0320FAE7012041490006086070470120244900060860B8
:203CC000704701203C4940050860704701201F4940050860704731490020C86388151B4970
:203CE00008607047410A354AC005C00D5043801C5143400A0818704710B4314C430B634330
:203D00001B0C5C020C602D4C6343C31A2D485C0258432A4B400D4343E31A0124DB032404D8
:203D20001B191B1613700A681018086010BC704710B50FF0BEF910BD80E100E008E400E0C1
:203D400018E400E000B0004040B1004080E200E000E100E048B100404081004044B10040F4
:203D60007372635C72656D5F68616C5F6576656E745F74696D65722E6300000000B3004042
:203D800040B3004040B5004000F5014000830040408500400082004050000020C08F0040FC
:203DA000008500400080004080F5014044B5004048B5004000B5004000E200E0093D000055
:203DC000378600006F0C010010B50FF05EF910BD00200449C863012001218140024A116069
:203DE00000BF7047C01F004080E200E00E4A12680C498A420AD118470B4A1268094B9A42C0
:203E000004D101B50DF0D7FD03BC8E46074909680958084706480749054A064B704700004D
:203E200000000000BEBAFECA1C01002004000020981D0020981D002010B5F84C94B0216861
:203E4000087A002835D017206A4610700622093101A810F029FF09A9684609F0ABFD1128DF
:203E600025D02168C0318979062920D007291ED008291CD004291AD0092918D00A2916D02D
:203E80000B2914D0052912D0002803D0E4A1F42011F0A7F82168B820405806221C3009311F
:203EA00010F002FF2068017A8030806BC17614B010BD3220C8E770B5D84D04462968030072
:203EC000C03111F07FF90C077C0B1A212E3B48515C677080FF20D2A10A306EE088790128AA
:203EE0006DD009286BD0052869D00A2867D00B2865D0FF20CAA10F305FE0887901285ED082
:203F0000FF20C7A1163058E08879062857D0072855D0082853D0052851D0FF20C0A1193088
:203F20004BE0887909284AD00A2848D00B2846D0042844D0FF20BAA11F303EE08879032824
:203F40003DD007283BD0082839D0092837D0FF20B3A1253031E08879062830D00A282ED071
:203F6000FF20AFA12B3028E08879062827D0072825D00B2823D0FF20A9A12F301DE0887939
:203F800006281CD00A281AD00B2818D0FF20A4A1343012E08879092811D00A280FD0FF20D3
:203FA0009FA1393009E08879092808D00A2806D0082804D0FF209AA13D3011F012F82868F7
:203FC000C030847170BDFF2095A14230F5E79349C9220968525CD206920F05D1A0318A8B11
:203FE000824201D1887F70470020704770B50446112020700021894D61702968C031897A19
:20400000002908D003290ED0042910D0FF2084A16B3010F0E6FF20780009012802D928688F
:20402000807D607070BD0007000F203002E00007000F30302070EEE730B503887C497D4C65
:204040008B4202D09A1FA2421ED242888A4202D0951FA54218D2934216D883887D24E400F4
:20406000A34211D8C088884205D0724D04460A3C2D1FAC4208D2884208D08A4206D05B1C6D
:204080005A43C000824201DD072030BD002030BDFFB50022099B002802D0994205DC5CE094
:2040A000002902D1002004B0F0BD0920FBE7845C002C12D085186F780D2F4CD010DC3B0087
:2040C00011F080F80A421B2A2A303032323A3A42835C002B3FD1521CD2B28A42F8DBE1E7BF
:2040E000122F31D004DC0E2F35D00F2F2CD132E0142F11D0152F27D116E0022CD5D1AB78C2
:20410000039C072B237001D25B0701D40A20CAE7029B01241B7814E0E343DB0708E0012CF0
:2041200008D011E00620BEE70F2523072D075B19002BF4D03046B6E7029B1B789C070AD432
:2041400002242343029C2370835C521C9A18D2B28A4204DDA9E70B20A5E7192676028A42A8
:20416000A5DB9FE705E00278401C002A01D0002070470A46491E89B2002AF4D101207047F3
:2041800070B5264D00212868C943A030818300248477214606200DF0CDFD002105200DF040
:2041A000C9FD002102200DF0C5FD0120FFF783FE2868C030C471047201F063FF70BD30B50F
:2041C000164C95B02268C0329279042A0CD0052A0AD028236A4613709080132906D03B299A
:2041E00004D0072015B030BD0820FBE79171104609A909F0DFFB05000BD12068C0308179D8
:20420000062908D0082906D0072904D00520FFF752FE2846E6E70420F9E70000540000206E
:204220007372635C6761705F636F72652E630000FFFF00007B0C000030B587B0040003D091
:20424000002107200DF076FDF74D012128686A4601720421117003210C300DF06BFA296894
:204260004022887B8006800E1043887368460BF0AEFB00280DD12968098A00290AD0002CCC
:2042800008D08B000122002107200DF0AEFC072802D0032007B030BD0020FBE770B5002595
:2042A0000646002803D0002107200DF043FDDE4C012120680172062109300DF03BFA2068D1
:2042C000817B8906890E8173FFF7B6FD2068008A00280AD0002E08D0830001220021072017
:2042E0000DF083FC072802D00325284670BD0025FBE7F0B59BB0040003D1CC49CC4810F086
:2043000070FE72202070616800260A780825521F0127C548130010F055FF0F097CDFFD7C76
:204320007EFCFBBB7C7C7C7CFAF97C00BE480068C0308079032804D0BD48BC49093010F055
:2043400050FE002108460DF0F5FC002107200DF0F1FC6078B44A284360701068102501467B
:20436000C0314B7A2B434B7263689D783C2D4DD002469D88A032977763688030DB890B803F
:2043800063681B8A4B8063685B8A8B8095836168826BC97911756168806B08311530062237
:2043A00010F082FC0620FFF786FD9F48FB2300680146C0318E72027E1A400276B8221258A5
:2043C000937A9B089B0093724682487A4006400E4872284602F0C0FE002804D094489349E3
:2043E000243010F0FEFD284602F0D0F8002804D08F488E49273010F0F4FD284603F016FDE0
:20440000002806D08A48894929303EE10120FFF752FD1BB0F0BD074600688E88C0308079F0
:20442000062812D0072810D008280ED004280CD009280AD00A2808D00B2806D0052804D028
:204440007B487A49353010F0CCFD6078284360703868C030417A294341728079092811D020
:204460000A280FD00B280DD005280BD0FFF788FE304602F07AFE304602F08EF8304603F060
:204480000BFDC6E7FFF77CFE0220FFF714FDEFE70068C0308079062812D0072810D0082858
:2044A0000ED004280CD009280AD00A2808D00B2806D0052804D05E485C49593010F091FD95
:2044C0006068807902F004FF0028A2D06178294361706168C8809CE707460068C030807944
:2044E000062812D0072810D008280ED004280CD009280AD00A2808D00B2806D0052804D068
:204500004B484A496C3010F06CFD04E037E1A1E190E090E015E06078284360706068C188F9
:204520003868C0300180616809894180616849898180002102200DF0FDFB3868C030C671B3
:2045400067E706460068C0308079062819D0072817D0082815D0042893D0092811D00A285B
:204560000FD00B280DD005288BD031482F49833010F037FD3068C03080790428ABD0052897
:20458000A9D03068807C40063AD5606802210C30FFF7E8FD002833D060680821001DFFF788
:2045A000E1FD00282CD03168B8204058807A800708D1CA20405C002808D1488AC20505D59C
:2045C000C00703D1488A4022904348824A8A802082434A822D2268460270BC20425A6846D5
:2045E000828010229731801D10F05EFB09A9684609F0E0F90028A3D03D200C49000144E025
:2046000062683068AC2192890A5261680822091DAE3010F049FB10A805743068AE3015906D
:2046200014A80BF0D4F9F4E65400002020420000260300008F7106460068C0308179062950
:2046400019D0072917D0082915D00429EBD0092911D00A290FD00B290DD00529E3D0FD2028
:20466000FA49800010F0BDFC3068C03080790428D9D00528D7D060688179002902D08078DF
:20468000002805D02320F149400110F0AAFCC0E66078B8212843607030680958897A89079B
:2046A000890F012951D1817C09064ED4017E490701D5042100E00321C03081722B2069463D
:2046C000087009A9684609F075F9002803D0DF49DF4810F086FC68463168008D88820E22C1
:2046E00010A80274DB48B82215905258083242610A4660324260927902700A461432026169
:20470000521D82601032C260133A82619632C261921C0262473A4262103282621032C26206
:20472000473AC263521E0264921F50314264816414A80CF033FB022815D0002813D0C44834
:20474000C249293010F04DFC0DE0817C4906017E490701D5042100E00321C03081720021A1
:2047600006200DF0E7FA3068418A0A0602D440229143418289B280229143418249E6B64852
:204780000068C0308079032804D0B148AF49573010F027FC002108460DF0CCFA00210720B4
:2047A0000DF0C8FA6078AC4A28436070106810250146C0314B7A2B434B7263689D783C2D13
:2047C00000D123E602469D88A032977763688030DB890B8063681B8A4B8063685B8A8B8052
:2047E00095836168826BC97911756168806B08311530062210F058FA0620FFF75CFB964826
:20480000FB2301680A46C0329672087E184008764E82507A4006400E5072284602F09CFC83
:20482000002804D08A488949723010F0DAFB284601F0ACFE002804D085488449753010F01D
:20484000D0FB284603F0F2FA002897D080487F4977301AE7607828436070DAE500290BD0A3
:2048600088807D480068C0300288CA8002880A8142884A81808888817047F7B5064600785D
:204880000C460027010982B03D46012974D0724800680090C03002296FD0072904D00A292F
:2048A0006CD06A496D480DE271680A78521F130010F088FC0F09A451A4A42F585847A4A43F
:2048C000A4A4656FA4008A783C2A1BD010271625002C7DD08888A0807068A21DC089208228
:2048E0007068C089E0817068008A60827068408AA082716808460831C07901F0B1FB0020D8
:20490000607375E019270725002CE2D00021A17171E011270725002CDBD089880091A180A3
:204920007168F7228979A171417A11404172009802F01CFC009801F033FE009803F0BAFA17
:20494000D2E101270925002CC3D08888A080706880792072C8E1888812270E252146FFF77A
:204960007DFFC1E118270825002CB2D08888A080A01DFFF73BFBB7E144E0A6E15CE01A2726
:204980000725002CA5D04888A08070680079A071AAE18A783C2AB5D010271625002C98D07A
:2049A0008888A0807068C08920827068C089E0817068008A60827068408AA0827168607BC6
:2049C000497D40084000C907C90F0843607300E093E17168C007497DC00F49084900084355
:2049E00060737168A21D08460831C07901F038FB19480068C030417AEF2273E1A72013496C
:204A0000C0005FE1307A012803D014480F49C83858E112270E2570892146FFF71FFF002CF7
:204A200092D070784007400F032889D10A480068C030417AFB2255E107490968A031002C9B
:204A400001D08A8BA280327A921E09E02042000015040000AC12002054000020170600001F
:204A6000130010F0AFFB073D4853FDEB6F05FD0013270C25002C85D0009900224A82F16875
:204A800089788907890F0129217A26D0490849002172FD231940F3689B785B07DB0F5B0077
:204AA00019432172E323E2801940F3681B785B07DB0E19432172DF231940F3685B78DB07B3
:204AC0009B0E194321726272F1680122C978A172017A1143F7221140ADE001231943D7E796
:204AE00015270C25002C9BD0F06806220068A11D0EF07CFFF8E016270725002C90D0317B1A
:204B0000A171017A08221BE00172EDE014271225002C85D00098A21D8030806B0146153131
:204B2000007D01F09DFAB089E081207C01210843F92108402074FD480068C030017A02229B
:204B40001143E1E717273825002C94D03221A01D10F007F90020A071207A03210843207232
:204B6000FB210840F14909680A7E5207D20F920010432072B8204058807A800757D0A07ABB
:204B80008A7C4008D2074000D20F1043FD221040A0728B7CFB229B07DB0F10409B00184303
:204BA000A0728B7CF7269B07DB0F3040DB001843EF231840A072E07A10408A7CD206D20FA8
:204BC00092001043E0728A7C3040D206D20FD2001043E072888AA0812046102267310E3057
:204BE00010F062F8D149A07F0968C0078A7DC00F52001043A0770A7E400852074000D20F0E
:204C00001043A077084640304DC820344DC4303C3F20405C22463032393101F021FAC34840
:204C200000688030806B817A890889008172BF480068C030017AFB22114065E7327B022AFC
:204C400018D017273825002C11D0017AFB2319400172012A17D0032A22D0042A23D000E02D
:204C60002DE0052A1FD0B249B24810F0BAF901F008FA39E019270725002CF8D0898BA180C0
:204C80000121A17103E00121A1710021E171417ACA094906D201890E49000A434272E6E7F8
:204CA0000220A07106E0707B0007000F8030A071052A02D00020E071D9E70120FBE79D48FF
:204CC0009B490C3010F08DF90EE0317A00290BD119270725002C10D0491EA1800021A1715D
:204CE000417AFD22114041720498002C058001D027806580002005B0F0BD04980580F9E7A9
:204D000010B58A4C94B02068C0308079022809D0032807D0052805D0092803D00A2801D035
:204D20000B2837D11B2108A801730021017469460BA808F03FFE002804D1684640781B2805
:204D400002D0032014B010BD002108460CF0F2FF002107200CF0EEFF68468078002819D188
:204D60002068C0308079801E030010F02BFA0A060613081313130D0F1113012000E004202D
:204D8000FFF799F80020DDE70620F9E70720F7E70820F5E70820D5E770B50025634C002894
:204DA00007D0022817D0072828D062486049793046E0FFF7A5FF00280CD1FEF7C5FA22212C
:204DC00001700572FEF7DCFA2068C030417A02221143417270BDFEF7B7FA12210170012129
:204DE00001722168BC22525A4281C031CD71FEF7C7FA2068C030417A0422E9E72168C620ED
:204E0000405C022809D0032807D0092805D00A2803D00B2801D00528DCD1887B8109012951
:204E200011D0800904D043484149703010F0D9F80020FFF733FA0028CCD03E483C497430F8
:204E400010F0CFF870BD0020FFF7F6F9F3E770B50D46040004D137483549813010F0C1F8C7
:204E60002078012805D0334831499F3010F0B9F870BDA18830482D4E814209D1E288824213
:204E800006D130681321A030808BFFF798F970BD814202D1E08800280AD012202870687836
:204EA00008210843687007CC083507C5002106E000227823114602200CF097FE0221306841
:204EC000C030C17170BD00B5184A87B01268C032527AD20907D106236A46137001901172DA
:204EE00068460AF074FD07B000BD00B587B007206946087068460AF06AFDF4E70B48006846
:204F0000C030807A704738B5084C05460278206813000146C03110F055F909A9061111A34C
:204F2000204E738BA900FEF787FF38BD5400002020420000F2050000FFFF000088790628F2
:204F400005D0092803D0FE49FE4810F04AF820680422017E1143017682E0A9880029E4D041
:204F6000A030808BF8498842DFD0A868002804D1F448F349103010F034F82068C030407A79
:204F8000C00904D0EF48EE49113010F02AF8A86806220A38A86000902068AB88A030808BFB
:204FA000042102F00DF80028BFD0DB20E449C00010F017F8B9E788790528B6D92879012800
:204FC00002D0022808D103E0487A802210434872487A012210434872284601F05CF820687B
:204FE000C03080790628A0D9082801D8062004E009289AD90B2898D80920FEF75CFF94E7D3
:20500000887906280AD0042808D0092806D0052804D0CC48CA493D300FF0E3FF0ECDCB4818
:205020000361C2608160A2210170FEF7BEF97CE78879062818D0072816D009280DD00A285A
:205040000BD0C048BE4950300FF0CBFF2068C0308079062808D0072806D00B20FEF72BFF57
:20506000284601F018F860E70820F7E7B548B44964309DE7FFB593B0012468460321847080
:20508000C9021D4601800AF07AF900226946012003F085F906460AF076F9002E5CD16846D3
:2050A000152184704902018000271C2101A808970FF059FE01200146103108A8017000200E
:2050C000014608A841708178F9200140891C214308A8817068460179022631430171149948
:2050E0008185C7851F21018608A80A9013980D90684609900AF043F90EAA09A901A802F083
:205100001CFF07460AF03FF9002F02D0384617B0F0BD8F4F68463968008F488068468470DC
:205120008C49018008A88078F9210840801C4108490008A8817068468685068615A80D90A1
:205140000AF01DF90EAA09A901A802F0F6FE06460AF019F9002E01D03046D8E7684639686B
:20516000008F88807B4968468470C91C0180298810A8018069884180A9888180E988C1804C
:20518000082168468185018610A80D900AF0F7F80EAA09A901A802F0D0FE04460AF0F3F86B
:2051A000002C01D02046B2E768463968008FC8800020ACE7F0B5684E95B00C46B14235D32D
:2051C0000127BF04654DBC4201D3AC422ED3202804D0212824D0222837D13DE03C2168469E
:2051E0000170218881806188C18009A908F0E2FB002806D108A98979002904D002290DD02C
:20520000032015B0F0BD6168B142FAD3B94201D3A942F6D36A46128D0A80F2E75048F0E7CC
:2052200008684B4C002812D0A84201D21020E8E706210EF0C5FB411C07D02168A822505095
:205240000120A03188750020DBE70720D9E720680021A0308175F6E7084600F028FFD0E72E
:205260003D4A10B5914206D301229204914204D33A4A914201D2102010BD202805D0212846
:2052800003D0222803D0072010BD062010BD084600F042FF10BD70B504462C48CC21AC303F
:2052A0000FF061FD29482A4EAC3000213060C943A0308183002585770120FEF7FCFD306873
:2052C000C7210D54E121C57389000182B6210D54014609310830FDF753FF316808460A7A9D
:2052E00060308271062209310FF0DEFC3168084629311930FDF77BFF002C37D0306880307D
:205300008463FEF799FD1E20E081607A8F2108403030607230680146143121619831616246
:20532000933921601031616025721339A162091FE1628531E163303921631031616311E0F0
:2053400020420000C2060000FFFF00004C12002054000020012A0000006001000020002067
:205360000230000010310930A163A06470BDF7480068C0308079042803D0052801D000209F
:2053800070470120704770B50646F1480C46814206D301208004844204D3EE48844201D2D5
:2053A000102070BDFFF7E3FF002801D0112070BDE948E64D002E02D0012E46D12FE022780E
:2053C000002A0AD00121012A09D0022A14D0032AEDD1A2799209EAD112E0002103E0A27926
:2053E0009209032AE3D128680622017260308171611C0FF059FC05E0A2799209012AD6D146
:2054000028680172002107200CF094FC28680622611C09300FF048FCFEF70EFD11E021787A
:20542000002912D0012910D0022910D00329BED10120FEF733FF002803D0C849C8480FF02E
:20544000D0FD2868C673002070BD072070BD0120FEF7F2FEEFE7BF4910B5884201D210209F
:2054600010BDBA49024609680B7A0931184600F0F7FD002010BDFFB599B00546002069469E
:205480000871087208A90874144608750122B0499204B0481E46002D05D08D420BD3954281
:2054A00001D3854207D3002C08D08C4203D3944204D3844202D210201DB0F0BD284620430D
:2054C00018D01F270CAB01AA009728461A99FEF7DFFD0028F0D10DAB02AA314620460097F2
:2054E000FEF7D6FD0028E7D16846007AC10703D00A20E1E70720DFE7800705D568460079DA
:20550000800701D50B20D7E7FFF731FF002801D01120D1E703AF002D0FD01A20694608731B
:205520001A9808742946781D1A9A0FF0BDFB0EA903A808F03FFA0028BED1002C0ED0202139
:2055400068460173067432462146781D0FF0ACFB0EA903A808F02EFA0028ADD17B4908A8F9
:205560000968007C08700020A6E7F0B504467848002695B0844276D301208004844202D3B0
:2055800074488442F7D32378012B09D1704960688842F0D39904884202D36E498842EAD396
:2055A0006A490A681546C035A879022814D0032812D0052810D009280ED00A280CD00B28DD
:2055C0000AD0012803D0002B06D0012B04D0687AC506AD0F06D101E0082012E6850701D452
:2055E000400701D511200CE6208A5E4F0546203DBD4207D3012B6ED10028FCD1658A002D17
:20560000F9D111E0022B01D0032B01D1A02862D3012B01D1002807D01578ED0704D0658A93
:20562000002D58D0B42D56D8002B06D0012B08D0022B04D0032BDED118E0002519E00225E6
:2056400017E0002802D1608A00280DD004256068007800280DD001280AD0022808D00328CB
:2056600006D03D48CDE563E00125F0E7032500E00126D07B01281CD1108A002819D0907B97
:205680008109012911D0800904D035483349EC300FF0A7FC0120FEF701FE00280BD03048D1
:2056A0002E49F0300FF09DFC05E00120FEF7C4FDF3E7FEF7C1FB207A002806D0012806D0DD
:2056C000022806D0032806D106E0002705E0012703E0022701E087E00327002D01D0022D03
:2056E00048D1002F46D0E06800287DD00179002920D0082978D8027B082A75D800290AD07C
:20570000134B0168994213D301239B04994202D3104B99420CD3002A10D080680C49884268
:2057200006D301218904884208D30A49884205D2102066E5027B002A6AD0DCE70348006876
:205740000078800710D00448401E5AE55400002000600100002000200232000020420000D6
:2057600086080000E13F0000022D03D1022F4FD0032F4DD0182168460170218A8180218A2A
:20578000C1800572FE480068007A002801D001287ED1694648726846867221780B300129AB
:2057A00023D006210FF0DDFA072168464174877409A908F0FFF80028BBD10A2069460870CD
:2057C00009A9684608F0F6F80028B2D13A206946087009A9684608F0EDF80028A9D1002D4B
:2057E00009D0022D07D04CE012E061680622491C0FF05AFAD8E7002F43D00026374623E05C
:205800000168B00009580978002903D0012904D00720F6E469460F7102E001216A4611712D
:20582000E16806220968095801A8491C01300FF03BFA0B206946087009A9684608F0BAF856
:205840000028E6D1761CF6B2E0680179B142D7D800266F4611E08068B10041581022381D46
:205860000FF022FA3B206946087009A9684608F0A1F80028CDD1761CF6B2E068017BB142E3
:20588000E9D81B20694608700120087109A900E036E0684608F08EF80028BAD108A840795B
:2058A0001B282DD12B000FF08DFC0504040606041E00032015E0B2480068C0308079030053
:2058C0000FF080FC091E061E1E0A1E080C0E1E00022006E0092004E0052002E00A2000E056
:2058E0000B20FEF7E8FA012D0CD0608A002809D000228300114610460CF077F9002801D0FA
:2059000003207EE400207CE470B586B00C00064609D09C48844248D301208004844202D3F1
:205920009948844241D3964D2868C030C179022902D0407A400702D5112006B070BD002CFA
:2059400004D02046FEF778FB0028F6D13046FEF73EFB012803D0022823D08C48EDE7210030
:205960001BD1082069468882286801ABC08805AA002103F0F7F80028DFD16846808A082864
:2059800001D00320D9E7684681888181C188C181018901824189418203A9304601F068FCFE
:2059A000CBE7002C01D00620C7E71020C5E770B50C460546FEF70BFB012803D0022801D0D4
:2059C000724870BD21462846FEF7F9FB70BD00B50146143095B0192801D2880707D00846A8
:2059E0001E3004D00A3002D0072015B000BDFFF7BEFC002801D01120F7E7614831220068B4
:205A0000417068460270017109A907F0D3FFECE701B582B0022069460880594802AB0068FE
:205A20006A468088002102F00DFF69460988022900D003200EBD38B502216A46118052497A
:205A4000884201D2102038BD4D49034609688C880021204603F086F8694609880229F2D0FB
:205A6000032038BD3EB504460820694608804548844206D301208004844204D342488442B4
:205A800001D210203EBD2046FEF7D6FA0028F9D12088694688806088C880A0880881E08843
:205AA0004881374801AB00686A46C088002102F0C9FE694609880829E4D003203EBD1FB5A1
:205AC00004460820694688812E48844206D301208004844205D32C48844202D2102004B052
:205AE00010BD27480B46006803AAC088002103F039F80028F3D169468989082901D00320A5
:205B0000EDE769460988218069464988618069468988A1806946C988E180E0E7FEB50E465F
:205B20001849174605468E4206D3012292041648964203D3864201D21020FEBD1F2F01D940
:205B40000C20FEBD0E4C8D4232D3954201D385422ED3206801A9408802F026FE0028F0D1C4
:205B6000287869464871206801A9408802F0FFFD0028E6D16946009008780221084307E042
:205B800054000020006001000020002002300000694608704979090703D0082108436946CF
:205BA000087020686946408802F08BFD0028C8D169460F8120683346408802AA002102F06C
:205BC00041FE69460989B942BBD00320FEBD38B50C46F749002801D0884201D38C4201D22A
:205BE000102038BD21886A461180002801D000290BD0F049034609684D880021284602F050
:205C0000B1FF69460988218038BD0C2038BD30B50C46E94987B08C4206D3012189048C4219
:205C200005D3E3498C4202D2102007B030BDE14D2968C0310A7A520708D48A79521F1300FA
:205C40000FF0C0FA05040604040604000820ECE7497AC90901D00D20E7E7FEF7B8F901283F
:205C600003D002282DD0D548DFE720881E2801D20720DAE72868C030807906281FD00A20DE
:205C8000FEF719F905216846017000798108A0788900C007C00F014368460171FB200140BF
:205CA000A0788007C00F80000143684601712188C18009F08CFE0028B7D00320B5E7072090
:205CC000DEE70620B1E7F0B587B014460D46FEF77EF9012804D0022802D0B84807B0F0BDEF
:205CE000B44B18680146C0310A7AD20707D08A79062A04D9092A02D0002D02D050E008204D
:205D0000ECE7AD4A944206D301229204944204D3A74A944201D21020E0E7A278D206520FC0
:205D2000042A0CD8E378072B09D3102B07D822799A4204D3102A02D822881E2A01D0072082
:205D4000CCE702468032966BF727F372966B23793373966B737A3B40A778BF06FF0FFF0075
:205D60003B437372966B2388F381966BA778B37AFF079B089B00FF0F3B43B372FB273B40C1
:205D8000A778966BBF07FF0FBF003B43B372926BA478537AE406DB08DB00640F2343537281
:205DA0000B226B461A70852D22D008DC002D17D0812D17D0822D17D0832D08D116E0862D82
:205DC00018D0882D18D0892D18D08A2D18D00B221A71B622125C774C002A13D0A83012E069
:205DE0000022F5E70122F3E70222F1E70322EFE70522EDE70622EBE70822E9E70922E7E7C9
:205E00000A22E5E7002002908879072806D0082804D00A2804D00B2802D004E0062000E0D9
:205E20000920FEF748F8684609F0D1FD002801D0032053E720680422C030017A4908490086
:205E400011430172002049E770B55A4E0D46316886B0C031097A1446090701D408206CE510
:205E6000FEF7B5F8012803D0022801D0534864E5002D10D05048844206D3012080048442F6
:205E800004D34B48844201D2102056E5012D0BD0022D02D106E0002C01D007204DE500202D
:205EA000029005E0022000E00120694608710294032069460870684609F089FD002801D01A
:205EC00003203AE53068F722C030017A11400172002032E570B594B014460E46FEF777F8EE
:205EE000012804D0022802D0344814B070BD314D2868C030007A800701D40820F5E7002C38
:205F000001D00720F1E7FFF732FA002801D01120EBE7002E1DD02D21684601702C68BC209B
:205F2000015B684681801022B11C801D0EF0BCFE207EFB210840B17CC907490F08432076CA
:205F4000B07CFF214008A075608A82310843608207E02E21684601702868A030818B68465F
:205F6000818009A9684607F025FD2968FD23C0310A7A1A400A72B8E710B50C46FEF727F8E1
:205F8000012803D0022801D00C4810BD0A48844206D301208004844204D30548844201D2D0
:205FA000102010BD2046FEF721F8002010BD0000002000205400002000600100023000003C
:205FC00010B594B00446FEF702F8012804D0022802D0644814B0E9E763480068C030817949
:205FE000042910D005290ED03820694608708C8001208871C87109A9684607F0DBFC002854
:20600000E8D00B20E6E70020E4E710B594B00446FDF7DDFF012803D0022801D05148D9E772
:2060200051480068C030817904290DD005290BD03820694608708C8000208871C87109A9D3
:20604000684607F0B7FCC5E70020C3E746480068C0308079062801D30120704700207047E2
:2060600008B51346002806D040A00068009048796A468009105C18700622581C0EF014FE9A
:2060800008BD00B587B0012069460870684609F09EFC07B000BD10B50446FDF755F9A2213E
:2060A00001700ECC08300EC0FDF76AF97EE770B52D4C054601682068002911D02C4A9142A6
:2060C00006D301229204914204D32A4A914201D2102070BD102277300EF0E6FD20680121A9
:2060E0008030806B01722068A9880182C17B01290CD1807B800901280AD00120FEF7CEF8B0
:20610000002803D01C491D480EF06BFF002070BD0120FEF791F8F3E770B505460068124C56
:2061200000281AD01349884201D2102070BD2068B8210958097A012909D001467731293067
:206140000AF07BFF206801218030806B017221681022286877310EF0A7FD2068008AA88044
:20616000002070BD02300000540000200302FF01006001000020002020420000030300001E
:20618000FFB581B001980E46C078174610360E37022809D0032840D005287DD0F2A1F74883
:2061A0000EF01FFF05B0F0BDCC890A2060430E30188031230A98002A0380F3D048680088CB
:2061C00090800020D0801081097B9481891FCDB21AE030887168388048780A780002104314
:2061E000F880C8788A78000210433881BA1C091D28460BF070F8002D01D0002802D00020F2
:206200003871788008360A372046641EA4B20028DFD101990020C870C4E7CC890A20604389
:206220000E30188032230A98002A0380BAD04868002500889080D5801581087B401FC0B2AE
:206240000090948142E0716832880878FA803A79C30752085200DB0F1A43FD231A40830776
:20626000DB0F5B001A43FB231A404307DB0F9B001A43F7231A400307DB0FDB001A43EF2326
:206280001A40C306DB0F1B011A43DF231A408306DB0F5B011A4300E020E0BF231A4043068B
:2062A000DB0F9B011A433A71C00978718A784B781002184338813A46C91C00980BF00BF8B8
:2062C000002801D0BD703D8008360A372046641EA4B20028B7D10198C57063E7087BCC897E
:2062E000801E85B22846083060431030188034230A98002A03808FD04868174600889080FE
:206300000020D080108194811037E000D581C0190CE030883880009878602A467168009864
:206320000EF0C2FC009808360837401900902046641EA4B20028ECD16BE7FFB50546C078F7
:2063400081B00C460A9E03000EF03CFF0BA3071733414F6D8F9D9D9DA300207B17460828A9
:2063600006D0032804D085487FA154300EF039FE04990E20088030200CE0207B17460428EF
:2063800004D07E4878A171300EF02BFE04990E20088031203080002F44D060680088B88063
:2063A000607AFF300130F880E08938810020B88137E0207B1746042804D070486AA18D3021
:2063C0000EF00FFE04990E2008803220E2E7207B1746022804D0694863A1A9300EF001FEC3
:2063E00004990E2008803320D4E7207B1746042804D062485CA1C4300EF0F3FD04981021EE
:20640000018034203080002F0CD060680088B880607AFF300130F880E08938810020B88137
:20642000F881E870BEE6207B1746052806D0062804D052484CA1E1300EF0D3FD04981221B5
:20644000018035203080002FECD060680088B880607AFF300130F880E0893881E089B881CD
:2064600000203882A988F981DBE7207B1746072804D042483CA1F8300EF0B3FD04990E20D2
:206480000880362086E700962846049B00F02DFD88E635A13A480EF0A4FD83E670B50546B6
:2064A00000780C46082603000EF08CFE124C3434241C380A0A0A0A0A0A0A0A0A0A0A0A4C57
:2064C0006878002804D02E4827A12C300EF089FD002C03D11F2024A1400108E0607830434A
:2064E000607020E0002CF9D17D201FA1C0000EF078FDF3E7002904D03F201BA100010EF055
:2065000070FDFCF721FF0446407830436070FCF737FF08E01A4814A1473002E0184812A122
:206520004C300EF05EFD002C0AD06078000707D5932020702046582229460830FAF744FEC8
:20654000002070BD0E4808A15030EAE710B500200C4C0D490346C2008C525218401C000656
:20656000D370000EF7D010BD7372635C67617474635F636F72652E63000000005A0200008A
:20658000B3030000FFFF000058000020FE4908800120887000207047FB49002088707047FD
:2065A00010B50021F848C94301800021C17007F03BFAD8E7F7B584B0054600276846078163
:2065C000878068680C46008800F0ECFB0646287A032805D0002E03D1EC49ED480EF001FDDD
:2065E000297A2046C91E123000900B000EF0EAFD0FF2F1F03D09AA465C6D34B3CDF38B8B4B
:20660000F000F078012803D0E049AD200EF0E9FCA8896946C0000E30888030200881002C62
:2066200022D068680188A180E7802781A989A18100200DE0C100B27909190A74B288CA816D
:2066400082005219D3894B82128A401C8A8280B2A1898142EED8D7E002A8009001AB224636
:206660002946304600F0CCFBF1E002A8009001AB22462946304600F005FCE8E0F07806282B
:206680001AD0FF20C149223014E068680188A180E7802781A989A181B188E181E989218214
:2066A000EA89296900982BE0F078062804D0FF20B6493C300EF095FCE88969461230888045
:2066C00035200881002CE0D1C1E0F078072804D0FF20AE4956300EF084FCA88969460E30BB
:2066E000888036200881002CBED068680188A180E7802781A989A1812046AA890E302969B3
:206700000EF0D2FA80E0E8896946123080B2382288800A81002C79D068680188A180E78078
:206720002781A989A181287A102809D00221A173E9892182EA89296900980EF0B5FA86E0AE
:206740000121F4E702A8009001AB224629463046FFF716FD7BE0F078082803D08B498D4891
:206760000EF03FFC14206946888037200881002C6DD068680188A180E7802781A989A181CF
:20678000678227820120A0733EE0F078092804D080487E4918300EF024FC288A694614300E
:2067A000888037200881002C51D068680188A180E78004212781A173A989A181E989218279
:2067C000298A618220462A8A1430696998E702E038E01CE024E0F0780A2804D06D486B49A3
:2067E00033300EF0FEFB14206946888037200881002C2CD068680188A180E780278105219D
:20680000A173A78127826782F77020E017E002A8009001AB224629463046FFF78EFD16E0A2
:206820000D206946392288800A81002C07D00120E08055480188A1802781277307E00699FB
:20684000088010E08F205149C0000EF0CAFB6846069980880880002C05D06846008920803F
:20686000684680886080002007B0F0BDF7B594B015460F46149800F0A0FA04000AD0032027
:2068800000F088FB022802D2E078002804D0112017B0F0BD4048FBE717206946012608838C
:2068A000002D0FD00321684601711021018210A80246059004A928460AF033FD00280DD0F5
:2068C0000720E5E708216846017100210781C943418105218673C90281810CE0A878A071FC
:2068E0002888A080684605218673C902818100210781C943418109AA023206A901A807F081
:20690000CCF8002802D000F06BFAC1E707A800906846038B04220321149800F051FB0028E7
:20692000B6D1E670B4E770B592B00D0006460ED000F043FA04000CD0032000F02BFB0228D1
:2069400002D2E078002806D0112012B070BD1020FBE71148F9E71721684681800421017223
:20696000298881816988C181012181740B4901820AAA023201A902A807F08FF800280FD082
:2069800000F02EFAE1E7000058000020686500003C040000630200000230000002280000D1
:2069A00008A800906846838804220321304600F007FB0028C9D10221E170C6E770B592B0E2
:2069C0000D0006460DD000F0F8F904000BD0032000F0E0FA022802D2E078002805D0112050
:2069E000B3E71020B1E7FA48AFE717216846818004210172298881816988C18101218174E1
:206A0000F44901820AAA023201A902A807F045F8002802D000F0E4F997E708A80090684613
:206A2000838804220321304600F0CAFA00288CD10321E17089E770B592B00D0006460DD0D0
:206A400000F0BBF904000BD0032000F0A3FA022802D2E078002805D0112076E7102074E797
:206A6000DB4872E7022168460172298881816988C181172181800AAA023201A902A807F004
:206A80000CF8002802D000F0ABF95EE708A800906846838804220321304600F091FA0028C3
:206AA000DBD10421E17050E7F0B591B015000E4607460ED000F081F904000CD0032000F0A6
:206AC00069FA022802D2E078002806D0112011B0F0BD1020FBE7BE48F9E717216846818081
:206AE00004210172298881816988C181B1788174318801820AAA023201A902A806F0CDFFC0
:206B0000002802D000F06CF9E1E708A800906846838804220321384600F052FA0028D6D192
:206B20000521E170D3E7F7B592B015460E46129800F043F904000AD0032000F02BFA022871
:206B400002D2E078002804D0112015B0F0BDA048FBE70627002D12D0684607728681C581F0
:206B6000A5801720694688800AAA023201A902A806F093FF002807D000F032F9E5E7052132
:206B8000684601728681EBE708A800906846838804220321129800F013FA0028D5D1E770EC
:206BA000D3E7F7B592B016460D000ED0129800F004F904000BD0032000F0ECF9022802D27A
:206BC000E078002805D01120BFE71020BDE78048BBE707276846077286811721049581801D
:206BE0000AAA023201A902A806F057FF002802D000F0F6F8A9E708A8009068468388042286
:206C00000321129800F0DCF900289ED1E7709CE7F3B5172091B00C46002915D021780B004C
:206C20000EF0D0FA062B05051A041C2B1520C01EE28880B2002A02D0A368002B04D0824273
:206C400004D90C2013B0F0BD1020FBE7042905D0A088002811D101E00620F3E7119800F0FB
:206C6000ACF805000BD02078092701281AD0022807D0042824D0052835D00720E2E75448D6
:206C8000E0E76846077161880181E1884181A06808260390304600F07DF9072829D34C480D
:206CA000801CCFE70C216846017161880181E1884181A06803900EE0E878002811D118E0B4
:206CC0000D216846017161880181A1884181E1888181A06804900326304600F05BF90228FC
:206CE000EAD31120AEE70E2168460171217B0172F1E717216846018309AA023206A901A832
:206D000006F0CBFE002802D000F06AF89AE707A800906846038B04223146119800F050F9ED
:206D200000288FD12178012907D002298AD0042905D0052905D0032084E7082102E0EF70AF
:206D400080E70A21E9707DE730B591B00C46054600F033F8002808D0032000F01BF90228B5
:206D600005D31B48801C11B030BD1948FBE70F216846017104811721018309AA023206A924
:206D800001A806F08AFE002802D000F029F8EAE707A800906846038B04220321284600F0CD
:206DA0000FF9E0E70C49884205D00C490988814201D10A4870470020704710B5FFF7F2FF09
:206DC000002802D08178C90700D1002010BD00000230000003280000FFFF0000580000205F
:206DE000002806D0012805D0052805D0062805D00320704711207047082070475C48704796
:206E0000FFB583B003980C9EC0781D4614460F46012803D05749D2200EF0E3F8F889C00054
:206E20000E30288030203080387B001FC0B20190002C26D078680088A0800020E0802081CC
:206E4000F889A081002616E0F0000519C01900902A4641690E3201980AF03DFA002802D0DF
:206E600000202874E8810098761C008A68820098B6B2408AA882A089B042E5D803990020C7
:206E8000C870F1E4F8B50646C0781F4614460D46042804D0FF20374903300EF0A2F8A88907
:206EA000062148430E30388033210698002C01801AD068680088A0800020E0802081A989D6
:206EC000A18103460CE01946062251434A190919D789CF81977C8F74128A5B1C0A829BB209
:206EE000A1899942EFD8F070F8BD70B514460546142204981A8037220280002C18D04868DC
:206F000000260088A080487AFF300130E080C8892081C889A0816682E878082809D009283B
:206F200011D00A2819D0134913480EF05AF8EE7070BD087B0C2804D00F480E490C380EF048
:206F400050F8012012E0087B0D2804D00A48094908380EF046F8042008E0087B0E2804D091
:206F600005480449001F0EF03CF80520A073DEE7033000006865000082030000014600203D
:206F8000F74A02E0401C082803D24300D35A8B42F8D1704730B50446F14A0020163A11794C
:206FA00053790AE05518AD79A54201D1401CC0B2491CC9B2102900D100218B42F2D130BD79
:206FC000FFB5E74881B0163841790A9C491CCDB21E46102D00D10025E14816380079A8429A
:206FE00002D1042005B0F0BD0820FFF7D3FF0746072804D9FF20DBA1A1300DF0F2FF0298FB
:20700000082801D1072F17D001982080301D6080002060712071E68003982081204606F06B
:20702000EDFC00280AD0CE48029916384379821D995445710020D5E7CF48D3E7FF20C9A132
:20704000B3300DF0CEFF0320CCE7F0B58DB0044600256846057116468C460620FFF79AFF55
:2070600000281CD121780127C807002801D0132917D9684687766178C17602218183C5831C
:2070800004A8009070680C23008805220621FFF797FF002803D0B3A184200DF0A2FF0DB0FD
:2070A000F0BDAF4816380278002AF8D0427863789A42F4D1012918D0132919D1614606292E
:2070C00016D10570002101200AF034FE68460771706801886846C1800021C94301816079E8
:2070E00022790102114368461AE06146062908D0684600790028D2D0314601A8FDF7A7FE9E
:20710000CDE70570002101200AF014FE684607716079227901021143684601810021C943AA
:207120004181E9E78E4810B50021163801704A1E428041700171417101200AF0FBFD10BD63
:2071400010B5FFF7EFFF0020854902464300401CCA520828FAD310BD10B50446FFF7E2FFE5
:207160007F4816384480002010BDDBE770470EB501216846017081498180C1800021FDF7AB
